:020000040800F2
:10000000A02700204D020008691A0008E519000821
:10001000651A0008FF180008271F000800000000EC
:100020000000000000000000000000000D1C00089F
:100030000319000800000000A3020008FD1C0008CE
:1000400067020008670200086702000867020008EC
:1000500067020008670200086702000867020008DC
:1000600067020008670200086702000867020008CC
:1000700067020008670200086702000867020008BC
:1000800067020008670200086702000867020008AC
:10009000670200086702000867020008670200089C
:1000A000670200086702000867020008670200088C
:1000B000670200086702000867020008670200087C
:1000C000670200086702000867020008670200086C
:1000D000670200086D1D000867020008670200083B
:1000E000670200086702000867020008670200084C
:1000F000670200086702000867020008670200083C
:10010000670200086702000867020008670200082B
:10011000670200086702000867020008670200081B
:10012000670200086702000867020008670200080B
:1001300067020008670200086702000867020008FB
:1001400067020008670200086702000867020008EB
:1001500067020008670200086702000867020008DB
:1001600067020008670200086702000867020008CB
:1001700067020008670200086702000867020008BB
:10018000670200086702000800F002F800F04FF86C
:100190000AA090E8000C82448344AAF10107DA45E2
:1001A00001D100F044F8AFF2090EBAE80F0013F0E5
:1001B000010F18BFFB1A43F001031847C44D00009C
:1001C000E44D0000103A24BF78C878C1FAD852072D
:1001D00024BF30C830C144BF04680C6070470000C1
:1001E0000023002400250026103A28BF78C1FBD840
:1001F000520728BF30C148BF0B607047662904F022
:100200003484642900F0D080732900F02B8500200D
:1002100070471FB504F024FC00F03AFD04000020F4
:10022000002103F0C7FFE0601FBD10B510BD00F056
:100230004BFE1146FFF7EDFF01F0A2FF00F069FE53
:1002400003B4FFF7F2FF03BC01F08EFE09488047BC
:1002500009480047FEE7FEE7FEE7FEE7FEE7FEE7A8
:10026000FEE7FEE7FEE7FEE704480549054A064BC0
:1002700070470000051D000889010008A02100202A
:10028000A0270020A0230020A023002072B67047E2
:1002900062B6704772B64FF0000484F3098862B604
:1002A000704772B6EFF3098048B1403880EC108A8D
:1002B000A0F1200080E8F00F0A49096808600948A9
:1002C00009490A680260106890E8F00F00F1200008
:1002D00090EC108A403080F309884EF0040E62B62C
:1002E00070470000300000203400002070470000FC
:1002F0000FB4044910B503AA029800F0B7FC10BC73
:100300005DF814FB1400002070B504468569006890
:10031000C10601D5302600E02026C00707D070BDF9
:10032000D4E9012130469047206A401C20626D1EAE
:10033000F6D570BD70B5044685690078C00707D151
:1003400070BDD4E9012120209047206A401C206222
:100350006D1EF6D570BD70B50C460546012A05D058
:100360002878800600D5EA69002302E0012305E031
:100370005B1C934202D2E05C0028F9D1A869E61820
:10038000C01AA861286A184428622846FFF7BCFFF3
:1003900004E0D5E9012114F8010B9047B442F8D3E9
:1003A0002846FFF7C7FF70BD2DE9F041064600243F
:1003B00010687529314616A510D0AFF300800028CB
:1003C00002DA404213A507E031688A0701D512A579
:1003D00002E0490704D511A5012401E0AFF3008034
:1003E00000210A2206F1240709E0B0FBF2FCB0FB71
:1003F000F2F302FB1C00303078541846491C0028E8
:10040000F3D123462A463046BDE8F04100F0B0B9AA
:10041000000000002D0000002B0000002000000064
:100420002DE9F05F894604464FF0000ADFF824B159
:10043000FB44C0F820A02046E168884700287DD012
:10044000252806D0D4E901219047206A401C20626B
:10045000F1E700255F462046E168884720280646E8
:1004600007DB312E05D2B81910F8200C08B105436E
:10047000F1E7A80701D525F00405C4F81CA0002762
:10048000C4F818A02A2E09D0304601F066FD38B312
:1004900004EB8708303EC8F8186019E059F8041BCF
:1004A000204604EB87029161E1688847012F0646E8
:1004B00018D1E069002820DA25F020051DE0D8F8E1
:1004C000180000EB800006EB40003038C8F8180038
:1004D0002046E1688847064601F03FFD0028EED13E
:1004E000012F0AD02E2E08D12046E16888477F1CB4
:1004F0000646022F45F02005C4DBA069002803DA78
:10050000404245F00105A061E80701D025F0100543
:10051000A6B1A6F14100192802D8203645F400659D
:100520004A463146204625604D46FFF767FE60B1DA
:10053000012807D0ED1D25F0070000E007E000F1DD
:10054000080978E705F1040975E730467AE7206A7B
:10055000BDE8F09F7147000030B505460B462A46BE
:1005600013F8014B12F8010B08B1A042F8D01CB1EE
:10057000002802D06D1CF1E7284630BD40EA010397
:10058000024630B59B0710D14FF0013400E008C29D
:1005900008C91D1B9D4315EAC41FF8D013F0FF01C5
:1005A00002F8011B0DD01B0AF8E711F8013B002BE4
:1005B00002F8013B05D011F8013B002B02F8013B8A
:1005C000F3D130BD10B5431C02E010F8011B71B12E
:1005D0008107FAD14FF0013202C88C1A8C4314EA19
:1005E000C211F9D0C01A0A0603D0C01E10BDC01A2D
:1005F00010BD0A0401D0801E10BD0902FCD0401EAF
:1006000010BD40EA010370B59B072ED14FF00136B3
:10061000042A2AD308C810C99D1B9D43121F15EA3E
:10062000C61517D0D8B2E1B2401A50EA056110D110
:1006300098B2A1B2401A50EA05410AD123F07F4096
:1006400024F07F41401A50EA052102D1180EA0EB98
:10065000146070BDA342DBD018BA21BA884201D918
:10066000012070BD4FF0FF3070BD0AB9002070BD91
:1006700010F8013B11F8014B63B1A3420AD1521E9D
:1006800008D010F8013B11F8014B1BB1A34201D176
:10069000521EEDD1181B70BD4FF0000200B513467D
:1006A00094469646203922BFA0E80C50A0E80C5092
:1006B000B1F12001BFF4F7AF090728BFA0E80C5043
:1006C00048BF0CC05DF804EB890028BF40F8042B3C
:1006D00008BF704748BF20F8022B11F0804F18BFA9
:1006E00000F8012B704700004FF0013C50F8042B3C
:1006F00051F8043B9A4221D1A2EB0C03934313EA35
:10070000CC1317D150F8042B51F8043B9A4215D161
:10071000A2EB0C03934313EACC130BD150F8042B38
:1007200051F8043B9A4209D1A2EB0C03934313EA1C
:10073000CC13DBD04FF00000704700BFD01A01BAD5
:10074000B1FA81F101F0180122FA01F0CB40C1F1B8
:100750002001DBB2C0B2C01A2CFA01F3D11A9143C6
:1007600011EAC311E6D17047704770477047704770
:100770002DE9F0470D4699469246044600F12408BB
:100780000168880604D5E06921F01001216000E0CD
:100790000120A84201DD471B00E00027A1697A196A
:1007A00002EB0900081AA0612078C00602D4204696
:1007B000FFF7AAFD002608E0D4E901211AF8060097
:1007C0009047206A401C761C20624E45F4DB20785E
:1007D000C0060AD52046FFF797FD06E0D4E90121BF
:1007E00030209047206A401C2062381EA7F1010784
:1007F000F4DC07E0D4E9012118F805009047206AED
:10080000401C2062281EA5F10105F3DC2046FFF7FD
:1008100091FD2078000602D50220BDE8F087012076
:10082000FBE770472DE9FF4F0C461E464FF0FF37A0
:100830008BB0D2E90001DDF860800A908A46C1F3EE
:100840000A5505B93D46002108464FF00000BAF1AF
:10085000000F00F4400005DA00EB80004FF4400187
:1008600001EA50004FEA9059B9F1010F00DDB94695
:100870000A9850EA4A000ED044F61050A5F2FF350F
:1008800045432F14B8F1000F1ED07542291E1EDDFE
:10089000C9F100021CE0B8F1010F4FF0000001D0D7
:1008A000302103E0F24305E02154401CB042FBDB61
:1008B00030460022002121540B99C1F80880C1E97B
:1008C00000200FB0BDE8F08FBD1B6D1CDEE74A466F
:1008D00000DA694206A800F07DFA06AB93E807004B
:1008E00003AB83E8070050460A9900F01BFB8DE834
:1008F0000700A0F500501F3800900398002D0ADD76
:1009000042F21F014A460844002303A903906846A7
:1009100000F084FD09E0A0F500504A461F3800238E
:1009200003A90390684600F08EFD8DE807000004DF
:10093000000C03D04FF0FF30410800E01046B8F142
:10094000000F03D00022009215461EE0751E05D44C
:1009500000F0A2F9303262556D1EF9D5B34601227E
:10096000084302D000227F1C04E02078302801D107
:1009700000227F1E002A099784D01DE0112D07DA7E
:1009800000F08AF9303262556D1C50EA0102F5D14F
:10099000084302D00098C8B10EE00021681E05E0AF
:1009A000235C625C63542254401E491C8142F7DB85
:1009B000AB46A81B401E0990002004F80B000B98C2
:1009C000099AC0F80880C0E9002B7AE711264FF099
:1009D000000857E72DE9F04F88460446D21D22F063
:1009E000070191B0D1E90001CDE90A0101F09DFABA
:1009F00002460B98C00F01D02D2007E02068810728
:100A000001D52B2002E0202101EAC000032A099031
:100A100001D0072A05DB03464146204600F09AF93B
:100A20000BE12078800601D5E06900E00620B8F1EE
:100A3000650F814606D0B8F1660F18D0B8F1670F80
:100A400070D131E00020B9F1110F009001DB1123CA
:100A500001E009F101030AAA01A90CA8FFF7E2FECF
:100A6000DDE90C70002609F10105834647E001200D
:100A70004B4600904FF000470AAA01A90CA8FFF7C7
:100A8000D1FEDDE90DB00C995D46002610B909F1E3
:100A900001000D18B9EB050003D4C0F1FF3609F1D0
:100AA0000105A5EB09002BE0B9F1010F01DA4FF0C8
:100AB00001090020B9F1110F0090484601DD112312
:100AC00000E003460AAA01A90CA8FFF7ABFEDDE986
:100AD0000C704D4600268346207800070AD4AB45AB
:100AE00000DA5D4601A8012D04DD411911F8011C51
:100AF000302907D04F4502DA17F1040F04DA01203C
:100B000082460FE06D1EEEE7002F02DCED1B3E4437
:100B100003E0781CA84200DD7D1CB81B00F1010A2F
:100B20004FF000472078000703D4AA4501DB4FF0BF
:100B3000FF3A0021B7F1004F0DF143088DF8431043
:100B400024D002202B23002F01DA7F422D230A21FB
:100B5000021EA0F1010000DC5FB197FBF1FC97FBE6
:100B6000F1F201FB1C7C17460CF1300C08F801CDAA
:100B7000EEE7A8F1010003702188090501D54521A0
:100B800000E06521A0F1010800F8011C09980FA9F7
:100B9000A1EB0807FF1D00B10120411901EBEA702C
:100BA000A1693844081A401EA0612078C00602D40A
:100BB0002046FFF7A9FB099828B1D4E90121904705
:100BC000206A401C20622078C00622D52046FFF70C
:100BD0009BFB1EE0002E04DBB34502DD01A8805D17
:100BE00000E03020D4E901219047206A401C2062B7
:100BF000761CAAF101005FEA000A0AD100F048F869
:100C0000C0680168405CD4E901219047206A401C1B
:100C10002062281EA5F10105DCDC07E0D4E90121F2
:100C200018F8010B9047206A401C2062381EA7F17B
:100C30000107F3DC2046FFF77DFB032011B041E6FE
:100C400010B5436913B1AFF3008001E0FFF783FBF8
:100C5000012010BD127800F124010A7000224A70B0
:100C60000122EDE711684FF0FF32E9E7074B70B55D
:100C70000D467B4400F05BF80446284600F01CF962
:100C800010B14FF0FF3070BD204670BDEF14000072
:100C9000004870476021002030B5B0F10A024FEAE9
:100CA000900E71F100034EEA817EB0EB0E0061EB15
:100CB00091014FEA101E4EEA017E10EB0E0041EB4F
:100CC00011114FEA102E4EEA016E10EB0E0041EBAF
:100CD00011214FEA104E4EEA014E10EB0E0041EB8F
:100CE0001141401841F100014FEAD00040EA417043
:100CF0004FEAD10110EB80054FEA810444EA907479
:100D000044EB01046D1944EB0404521BA3414FF062
:100D1000000348BF0A3200D530BD401C41F100013C
:100D200030BD000001694A1C02610878704700B5B7
:100D30008FB0CDE901310021059105497944CDE914
:100D4000031011466846FFF76BFB0FB000BD0000B3
:100D5000E5FFFFFF2DE9F0411F4604460326016829
:100D6000072A01F4006004DB08B116A505E016A50A
:100D700003E008B115A500E015A521F010002060E2
:100D8000A069C01EA0610FB1401EA0612046FFF700
:100D9000BBFA4FB1D4E9012138469047206A401C84
:100DA0002062C01C206206E0206AFAE7D4E9012133
:100DB00015F8010B9047761EF8D22046FFF7BAFAD5
:100DC000BDE8F0814E414E006E616E00494E460016
:100DD000696E66002DE9F047814616468AB03548AF
:100DE00078440DC88DE80D0032487844801C03AC6F
:100DF0000DC884E80D0041F69B300844372190FB74
:100E0000F1F290FBF1F5A5F1800501FB12041B3C0A
:100E100002D56442012000E00020DFF898A080465F
:100E20000027FA44AAF1BE0A0EE0E0070AD03246D3
:100E3000684607EB470101230AEB810100F003FB41
:100E40008DE8070064107F1C002CEED1194F7F4401
:100E5000AE3F19E0E80715D007EB04100DF1180AB2
:100E600090E80E008AE80E00C068F04201D198199F
:100E700008903246012306A903A800F0E4FA03AB68
:100E800083E807006D10641C002DE3D14FF00103CF
:100E900032466946B8F1000F03A802D000F0BEFA4E
:100EA00001E000F0D0FAC9E90001C9F808200AB051
:100EB000BDE8F087503E0000007B00F080007047E6
:100EC00000487047402100207546FFF7F9FFAE4605
:100ED00005006946534620F00700854618B020B546
:100EE000FFF7C2F9BDE820404FF000064FF00007C1
:100EF0004FF000084FF0000B21F00701AC46ACE8C2
:100F0000C009ACE8C009ACE8C009ACE8C0098D462E
:100F1000704710B50446AFF300802046BDE810408E
:100F2000FFF78EB95FEA400C08BF91F0000F4FEA5F
:100F30008C234FEAC12243EA51514FEA1C5018BF9B
:100F400000F5F0404FEA300018BF41F000415FEA81
:100F50006C5C00F02980BCF1FF3F08BF40F080408E
:100F60007047130C06BF12044FF0100C4FF0000C2A
:100F7000130E04BF12020CF1080C130F04BF120170
:100F80000CF1040C930F04BF92000CF1020CD30F70
:100F900004BF52000CF1010C11464FF00002A0F109
:100FA0001F00A0EB0C00704711F0004F08BF704706
:100FB00031F000413FF4D5AF0B0C06BF09044FF0F0
:100FC000100C4FF0000C0B0E04BF09020CF1080CC2
:100FD0000B0F04BF09010CF1040C8B0F04BF890037
:100FE0000CF1020CCB0F04BF49000CF1010CCCF149
:100FF0002003A0EB0C0022FA03F302FA0CF241EA00
:10100000030100F10100704720F07F4C80EA0300EB
:1010100023F07F47ACEB070303F57C5300F000405F
:1010200003F1FF032DE980494FEA154B09B44FEA5C
:10103000144325EA0B4E24EA03480FF2042606EB7C
:10104000132749083E785FEA320203FB0667C7F5BB
:10105000000707FB06F64FEA54374FEAD64606F17B
:10106000020607FB066CCCF1005C4FEA1C472CEA39
:10107000074C07FB06F40CFB06F504EB15464FEA9C
:10108000961634BF00204FF000404FEAD13706FBE0
:1010900007FC4FEA1C4C0CFB0BF7D21B03FB0CF7B5
:1010A00061EB07010CFB0EF7B0EB074072EB174248
:1010B0000CFB08F734BFA2EB0742B2EB074261EB2F
:1010C00017414FEA0C444FEA910706FB07FC4FEA31
:1010D0001C4C0CFB0BF7B0EBC74072EB573203FB19
:1010E0000CF734BFA2EBC742B2EBC74261EB5731FA
:1010F0000CFB0EF7B0EBC70072EB57720CFB08F756
:1011000034BFA2EBC702B2EBC70261EB5771039F7A
:101110004FEA816141EA921104EBCC044FEAD137E6
:101120004FEA826206FB07FC42EA90124FEA8060B7
:101130004FEA1C4C0CFB0BF7D21B03FB0CF761EBCB
:1011400007010CFB0EF7B0EB074072EB17420CFBEC
:1011500008F734BFA2EB0742B2EB074261EB17413D
:101160004FEA8C554FEA910704EB9C2406FB07FCE1
:101170004FEA1C4C0CFB0BF7B0EBC74072EB57323D
:1011800003FB0CF734BFA2EBC742B2EBC74261EBE3
:1011900057310CFB0EF7B0EBC70072EB57720CFB2C
:1011A00008F734BFA2EBC702B2EBC70261EB57717D
:1011B00015EB4C254FEA816141EA92114FEA8262B8
:1011C0004FEAD13742EA901206FB07FC44F10004D3
:1011D0004FEA80604FEA1C4C0CFB0BF7D21B03FB61
:1011E0000CF761EB07010CFB0EF7B0EB074072EB5D
:1011F00017420CFB08F734BFA2EB0742B2EB0742E1
:1012000061EB174115EB1C154FEA813141EA924120
:101210004FEA823242EA90424FEA80304FEA0C763F
:1012200044F1000448EA03434EEA0B484FF0000E35
:10123000B2EB080C71EB030724BF624639464EEB54
:101240000E0E4FF0000B0018524149414BEB0B0BB7
:10125000B2EB080C71EB03077BF1000B24BF624675
:1012600039464EEB0E0E4FF0000B0018524149412B
:101270004BEB0B0BB2EB080C71EB03077BF1000B94
:1012800024BF624639464EEB0E0E51EA020718BFE4
:1012900046F0010616EB0E7655F1000254F10001FE
:1012A00003D5BDE88901BDE80088BDE88901BDE836
:1012B0000048B619524141EB0101A3F10103704707
:1012C00080807F7E7D7C7B7A797877767675747383
:1012D000727171706F6E6E6D6C6C6B6A6A69686842
:1012E000676666656464636362616160605F5F5ED8
:1012F0005E5D5D5C5C5B5B5A5A595958585757564E
:1013000056555555545453535252525151505050B2
:101310004F4F4F4E4E4D4D4D4C4C4C4B4B4B4A4A04
:101320004A49494948484847474747464646454548
:101330004544444444434343434242424241414181
:10134000002B9C4630D477002BD01CB54FEA3707D2
:1013500003B44FF010004FF01001BAF1000F06D0A7
:10136000BCF1000FDCBF40F0080040F008014FF076
:1013700000000FBCBDE810400BF1010BBBF1010FE9
:1013800008BF5FEA170722BF12F1010211F1010144
:101390004FF0004143F1000300F0004043EA000039
:1013A0007047F9D35708D0E746EA064613F1400FD5
:1013B0004FEA16461FDD13F1200FDFBF16430A4622
:1013C000002120335B42BED0C3F1200746EA064627
:1013D00002FA07F74FEA164646EA0706C3F1200766
:1013E00022FA03F201FA07F721FA03F14FF00003A2
:1013F00042EA0702A7E746EA020646EA06464FEA3D
:10140000164646EA0106BCBF46EA0646360C4FF0D1
:1014100000034FF000024FF0000194E72DE9804CEB
:101420009A46934670B491E8380007C831EA400CF8
:1014300048BF34EA430C03D5FFF7E6FDFFF780FF12
:10144000F0BCBDE8008C2DE9804C9A46934670B400
:1014500091E8380007C810F0804F08BF13F0804FA4
:1014600003D100F005F8FFF76BFFF0BCBDE8008C7E
:1014700020F07F4780EA030023F07F4C07EB0C034A
:10148000A3F57C5300F00040A3F1FE0392F0000F9F
:1014900000F0B38095F0000F00F077802DE901494E
:1014A0004FEA11404FEA144621EA004800FB06FCCF
:1014B00024EA064708FB06F607FB08F800FB07F7D7
:1014C00018EB06484CEB164C4FEA124B18EB07484A
:1014D0004FEA15464CEB174022EA0B4E0BFB06FC7D
:1014E00025EA06470EFB06F607FB0EFE0BFB07F789
:1014F0001EEB064E4CEB164C4FF000061EEB074E53
:101500004CEB174B18EB0B0840F1000018EB0E0BDF
:1015100058EB000840F100008F1A4FF000013CBF6B
:10152000C943661B14BFB5EB040C00213CBFC94383
:10153000F61B4FEA17444EEA8E0E27EA04454FEA9F
:101540001C4704FB07622CEA074C05FB07F70CFB62
:1015500005F604FB0CFC16EB074642EB174216EBB4
:101560000C4642EB1C421BEB060658EB02024141C3
:1015700046EA9E0601D5BDE80189B619524141EB04
:101580000101A3F10103BDE801894FEA14454FEAC7
:10159000114724EA054621EA074C05FB07F406FB40
:1015A00007F70CFB06F105FB0CFC11EB074144EBC4
:1015B00017444FEA124711EB0C4144EB1C4422EA5A
:1015C000074C05FB07F206FB07F70CFB06F605FBCD
:1015D0000CFC16EB074642EB174216EB0C4642EBAF
:1015E0001C456A1854F1000148BF7047B6195241B2
:1015F00041EB0101A3F10103704795F0000F37D0D3
:101600004FEA11424FEA144721EA024624EA074C06
:1016100002FB07F106FB07F70CFB06F402FB0CFCD0
:1016200014EB074441EB17414FEA154714EB0C4408
:1016300041EB1C4125EA074C02FB07F506FB07F7C7
:101640000CFB06F602FB0CFC16EB074645EB1745B8
:1016500016EB0C4645EB1C42121951F1000148BF34
:101660007047B619524141EB0101A3F101037047E4
:101670004FEA14454FEA114724EA054621EA074C90
:1016800005FB07F106FB07F70CFB06F24FF000061F
:1016900005FB0CFC12EB074241EB174112EB0C422D
:1016A00051EB1C4148BF7047921841EB0101A3F177
:1016B0000103704710B5FEF7E9FD034CA00620605A
:1016C000FEF7E6FD10BD000004ED00E00148FF213B
:1016D0000170704722ED00E010B500242EE0C4EB4D
:1016E00004106B4901EB800090F8200020BBC4EB94
:1016F000041001EB8000006901280CD9C4EB041030
:1017000001EB80000069401EC4EB0411604A02EB4B
:101710008101086110E0C4EB04105D4901EB800019
:101720000069012808D1C4EB0411594A02EB810178
:1017300091F8210000F0A8FC601CC4B2062CCEDB9E
:1017400054480068401C5349086002F031FA51487F
:101750008068401E4F49886000287DD10846406857
:10176000886001248BE0C4EB0410494901EB800040
:1017700090F8200000287FD1C4EB041001EB80001A
:1017800045490968884217D1C4EB0410404901EB70
:101790008000C069C4EB04113D4A02EB810148613D
:1017A000C4EB0410114601EB8000C069C4EB0411C6
:1017B00002EB8101886160E0C4EB0410344901EB65
:1017C00080004069012824D9C4EB041001EB80009B
:1017D0004069401EC4EB04112D4A02EB81014861AF
:1017E000C4EB0410114601EB80008069C4EB0411C6
:1017F00002EB8101496988423ED9C4EB04101146CD
:1018000001EB80004069C4EB041102EB81018861A7
:1018100032E0C4EB04101E4901EB8000406901284E
:101820002AD11C48807DFF2810D101F075F9194894
:10183000407F48B9C4EB0410154A02EB800000F168
:10184000220116A0FEF754FD02F0D6F9C4EB0410F5
:101850000F4901EB800000E019E0C069C4EB0411FE
:101860000B4A02EB81014861C4EB0410114601EB05
:1018700080001249086005E000BF601CC4B2062C5D
:10188000FFF671AF00BF062C01DA01F031FA10BD8E
:1018900068100020D0110020300000200D0A656F74
:1018A000733E3E25732072756E696E672074696D94
:1018B000656F75742E2E0D0A0000000034000020A4
:1018C0000848094909684FF47A72B1FBF2F1491EE0
:1018D0004FF0E022516100210170916105211161F9
:1018E0007047000023ED00E0000000204FF0E020F2
:1018F000006940F002004FF0E0210861704700BF2E
:10190000FEE77047F0B50A4600210023002400BF1F
:101910003DE0012505FA01F3156805EA03049C4240
:1019200034D105684F000326BE40B54305601579E4
:101930004E00B5400668354305601579012D02D08B
:101940001579022D16D185684F000326BE40B54398
:10195000856055794E00B540866835438560456899
:1019600001268E40B5434560456896798E40B6B2F3
:1019700035434560C5684F000326BE40B543C5608A
:10198000D5794E00B540C6683543C560491C10295D
:10199000BFD3F0BDF0B5002300244D07ED0E02FAD1
:1019A00005F3CE1000F1200555F826504E07F70E2E
:1019B0000F26BE40B543CF1000F1200646F8275051
:1019C000CE1000F1200555F8265045EA0304CE104C
:1019D00000F1200545F82640F0BD418370470183A2
:1019E0007047000000200649487701F095F805A0EF
:1019F000FEF77EFC02F000F900F0EAFE00BFFEE711
:101A0000D01100200D0A2D2D2D2D2D2424204861CC
:101A100072644661756C742024242D2D2D2D2D0D9E
:101A20000A0000001CB50121202000F05BF84FF4F3
:101A3000C060009001208DF8040000208DF80600A1
:101A400003208DF8050001208DF807006946044841
:101A5000FFF758FF4FF4C0610148FFF7C0FF1CBDFE
:101A60000014024000BFFEE77047000070B500217F
:101A700000230F22C4781CB3174C246804F4E064DC
:101A8000C4F5E064C4F30721C1F10404E3B20A41E0
:101A900044789C40E1B28478144021430C07210E25
:101AA0000E4C05786155047804F01F050124AC4004
:101AB00005786D11AD0005F1E025C5F8004109E09C
:101AC000047804F01F050124AC40054D067876111A
:101AD00045F8264070BD00000CED00E000E400E099
:101AE00080E100E029B1064A12680243044B1A6003
:101AF00004E0034A12688243014B1A6070470000F9
:101B00003038024029B1064A12680243044B1A6079
:101B100004E0034A12688243014B1A6070470000D8
:101B200044380240F0B5002100220024022500269E
:101B30000223324F3F6807F00C0121B1042905D080
:101B4000082937D105E02E4F076036E02D4F07609A
:101B500033E02A4F3F1F3F68C7F38056274F3F1F90
:101B60003F6807F03F036EB1264FB7FBF3F7DFF88E
:101B70008CC0ACF1040CDCF800C0CCF3881C07FB73
:101B80000CF40CE01E4FB7FBF3F7DFF870C0ACF1BC
:101B9000040CDCF800C0CCF3881C07FB0CF4174FD6
:101BA0003F1F3F68C7F301477F1C7D00B4FBF5F77B
:101BB000076002E0124F076000BF00BF0F4F3F6891
:101BC00007F0F0010909104F7A5C0768D7404760B9
:101BD0000A4F3F6807F4E051890A0B4F7A5C476867
:101BE000D7408760054F3F6807F46041490B064FB7
:101BF0007A5C4768D740C760F0BD000008380240F3
:101C00000024F40000127A001A000020704700003F
:101C10000CB50020019000903448006840F48030FA
:101C20003249086000BF3148006800F4003000907D
:101C30000198401C0190009818B90198B0F5A04F88
:101C4000F1D12A48006800F4003010B10120009062
:101C500001E0002000900098012846D12348403040
:101C6000006840F0805021494031086020480068F9
:101C700040F440401E4908601C48083000681B4979
:101C8000083108600846006840F4004008600846D3
:101C9000006840F4A05008601648091F0860081F3B
:101CA000006840F08070091F086000BF0F4800689E
:101CB00000F000700028F9D040F205700E4908606D
:101CC0000A480830006820F003000849083108601D
:101CD0000846006840F00200086000BF0348083072
:101CE000006800F00C000828F8D10CBD0038024054
:101CF0000070004008544007003C024010B5FFF758
:101D0000EBFC10BD10B51548006840F47000134995
:101D100008601348006840F0010011490860002085
:101D20000F49083108600E4800680E4908400C4908
:101D300008600D48091D0860081F006820F4802015
:101D4000091F0860002006490C310860FFF760FF9A
:101D50004FF0006001498039086010BD88ED00E057
:101D600000380240FFFFF6FE1030002410B540F2AC
:101D70002551064800F018F830B1044800F0CEF8BC
:101D8000C4B2204601F03EFC10BD0000001001402E
:101D900021B1828942F40052828104E082894DF6A9
:101DA000FF731A408281704770B5024600240023F9
:101DB0000025002040F66A16B14200D100BFC1F3F1
:101DC000421501F01F03012606FA03F3012D02D18B
:101DD0009689334006E0022D02D1168A334001E095
:101DE000968A33400C12012606FA04F41688344011
:101DF00013B10CB1012000E0002070BDF0B5034626
:101E0000002400260025002040F66A17B94200D1C0
:101E100000BF1846C1F3421401F01F06012707FA5C
:101E200006F5012C01D10C3004E0022C01D1103058
:101E300000E014301AB107682F43076002E007681A
:101E4000AF430760F0BD00002DE9FF4705460E4691
:101E50000024A14600BFA046B08900B100BF2C8A73
:101E600024F44054F08804432C82AC8941F20C6085
:101E70008443B08831890843718908430443AC81A5
:101E8000AC8A24F44074B0890443AC826846FFF7FE
:101E900049FE2048854202D01F48854202D1DDF824
:101EA0000C9001E0DDF80890A88900F4004040B1F2
:101EB00009EBC90000EB091031684900B0FBF1F7EC
:101EC00007E009EBC90000EB091031688900B0FB9D
:101ED000F1F76420B7FBF0F004012009642101FB55
:101EE0001078A88900F4004040B1322000EBC8000F
:101EF000B0FBF1F000F00700044308E0322000EBF3
:101F000008106421B0FBF1F000F00F0004432C81B5
:101F1000BDE8FF8700100140001401400146888899
:101F2000C0F30800704700BFFEE703B4019841000A
:101F3000009850EAC12018BF04204A0D18BF40F095
:101F4000010040F2FF72B2EB515F08BF40F00200A7
:101F5000012808BF052002B0704730380A2801D296
:101F6000012070470020704700BF704701480249B8
:101F700088607047E0930400241D0020002413E0D3
:101F80000A48807DFF280BD100F0C6FD0748407F3E
:101F900020B92146641C06A0FEF7AAF901F02CFE28
:101FA0004FF47A7000F0AEFAEAE70000D01100209A
:101FB0006170705F30312072756E6E696E672025BA
:101FC000640D0A00002413E00A48807DFF280BD12D
:101FD00000F0A2FD0748407F20B92146641C06A0FE
:101FE000FEF786F901F008FE4FF4FA7000F08AFA65
:101FF000EAE70000D01100206170705F303220727B
:10200000756E6E696E672025640D0A0003E000F0AE
:10201000A7FB00F09DF9FAE71BE04FF400710D48B3
:10202000FFF7DBFC4FF480610A48FFF7D8FC4FF460
:10203000FA7000F067FA4FF400710648FFF7CFFC22
:102040004FF480610348FFF7C8FC4FF4FA7000F0CA
:1020500059FAE2E70014024010B58110094A127FD4
:1020600001238B409A43074B1A7703F11802525C05
:1020700000F003040123A3409A43024B18335A543F
:1020800010BD0000D011002010B58110094A127F48
:1020900001238B401A43074B1A7703F11802525C55
:1020A00000F003040123A3401A43D3B2014A1832BB
:1020B000535410BDD011002000F02EFD1448807D37
:1020C000FF2809D100F028FD1148407F10B911A068
:1020D000FEF70EF901F090FD1A481B490860012433
:1020E0000AE0C4EB0410194901EB8000406816496E
:1020F00041F82400601CC4B2062CF2DB01F07CFD28
:1021000005E000F0C1FEAFF24F0000F073FAF8E70F
:10211000D0110020656F733E3E7468652068696762
:1021200068657374207072696F20617070207573B8
:10213000656420746F206170705F7368656C6C0DEE
:102140000A000000F0110020B41C002068100020DC
:1021500006E000F005FB00F069FA642000F0D2F917
:10216000F7E7000000BF054A128802F04002002A8B
:10217000F9D0C2B2014B9A807047000000100140B4
:1021800010B500F0D1FC002010BD00002DE9F04793
:1021900004468A4616461D46DDE90879C4EB04105C
:1021A000394951F8200050B1C4EB041001EB800014
:1021B00090F82000032802D00020BDE8F087C4EB8F
:1021C0000411314A02EB810101F122005146FEF770
:1021D000D5F9284600F0AEF98046C4EB04102A4930
:1021E00001EB8000C0F80480681E08EB80013046D7
:1021F00000F0E8F9C4EB0411234A42F82100C4EBD3
:102200000410114601EB80008660C4EB041001EB62
:102210008000C560C4EB041001EB800080F8214011
:102220000120C4EB041102EB8101086137B1781C75
:10223000C4EB041102EB8101C86105E0C4EB04109A
:10224000114901EB8000C761C4EB04100E4901EB9A
:102250008000C069C4EB04110B4A02EB81014861A4
:10226000C4EB0410114601EB800080F82090B9F116
:10227000000F03D12046FFF707FF02E02046FFF7DB
:10228000EBFEFF2099E700006810002010B514A1B4
:102290001548FEF773F940F2E9311448C0F80C1103
:1022A000C0F804111249C0F8F8101249C0F8F4102F
:1022B00001F57F710E4800F085F90C49C1F8F00076
:1022C0004FF480710948C0F8FC10042180F8111106
:1022D000012180F810110420FFF7D6FE10BD000088
:1022E000636F7265000000007A1100206810002002
:1022F00051210008F013002010B510A11148FEF77D
:102300003DF940F2E9300F492239C86148610E4871
:1023100088600E48486000F5FE710B4800F052F9E5
:102320000849223908608020C860002081F8210017
:1023300081F82000FFF7A8FE10BD000069646C65FD
:10234000000000008A1000200D200008F01100207D
:1023500010B500F03BFA00F0A9FC10BD02460121C7
:102360000BE0C1EB0110074B03EB8000806890424B
:1023700001D108467047481CC1B20629F1DB002094
:10238000F8E70000681000200649097F064A505C03
:1023900004491831095C515C01EB8001014A117557
:1023A00070470000D01100203800002030B50546ED
:1023B00000F0B2FB2846FFF7D1FF0446002C2DDDCC
:1023C000C4EB0410174A02EB80004268C4EB04100F
:1023D000144B03EB8000C068401E02EB80012846CE
:1023E00000F0F0F8C4EB04110E4A42F82100C4EBEF
:1023F0000410114601EB800080F821400120C4EB5D
:10240000041102EB810108610020C4EB041102EB0E
:10241000810181F820002046FFF71EFE01F0ECFB51
:1024200030BD00006810002010B5012412E0C4EB9C
:1024300004100A4901EB800090F82000022807D11F
:10244000C4EB0411054A02EB81018868FFF7AEFF77
:10245000601CC4B2062CEADB10BD0000681000202E
:1024600030B5054600F058FB2846FFF777FF0446D5
:10247000002C0ADD0020C4EB0411054A02EB8101A7
:1024800081F820002046FFF7FFFD01F0B5FB30BDCD
:102490006810002010B515A11648FEF76FF800214E
:1024A0001548C0F84811C0F840111449C0F834115B
:1024B0001349C0F8301101F57F71104800F082F81F
:1024C0000D49C1F82C014FF480710B48C0F8381148
:1024D000052180F84D110121C0F83C11002180F840
:1024E0004C110520FFF7D0FD10BD00007368656C2E
:1024F0006C000000B611002068100020B920000810
:10250000401D002010B5044604B1641C0748006853
:10251000046107484068064988600449096891F8E1
:102520002100FFF799FD00F0C1FB10BD3000002035
:10253000D011002070B5044617480068174901EB18
:10254000800509E014480068401C134908600846EB
:102550000068124901EB800505F007000028F1D161
:102560000D48006820440C490860084600684FF494
:102570008051B1EB800F0DD80948807DFF2809D12B
:1025800000F0CAFA0648407F10B906A0FDF7B0FE79
:1025900001F032FB284670BD2C00002068000020AE
:1025A000D01100200D0A656F733E3E6572726F7226
:1025B0003A6F735F737461636B20736D616C6C0D44
:1025C0000A00000010B50246084648384FF08073F4
:1025D0000360031F18461A606FF00104031F1846BA
:1025E0001C6010380024031F18461C604038203837
:1025F00010BD000070B5054600F08EFA2846FFF7C2
:10260000ADFE0446002C0ADD0120C4EB0411064A8D
:1026100002EB810181F820002046FFF71DFD01F04B
:10262000EBFA00F059FB70BD6810002010B5FFF701
:10263000FBFE01F0DFFA00F039FB10BD024600207E
:1026400001E0401C521C13788B4202D01378002BFF
:10265000F7D17047FF20034981F8AD04024948775C
:1026600070470000F0170020D011002010B500F0D6
:1026700053FA03A0FDF73CFE01F0BEFA10BD0000C6
:102680000D0A656F73243A0D0A000000002003490B
:1026900081F8AD040249487770470000F017002028
:1026A000D011002010B500F037FA03A0FDF720FE8E
:1026B00001F0A2FA10BD0000656F73243A657869D5
:1026C000740D0A001D490968B1F57A7F35D90020DB
:1026D00018E0C0EB00111A4A02EB810191F82010BA
:1026E00071B9184951F820104FF47A725143134AC6
:1026F0001268B1FBF2F18AB212491C3121F81020A4
:10270000411CC8B20628E4DB0E494839B1F8641010
:10271000C1F57A710B4A483AA2F860101146B1F837
:102720006210B2F86020914207DA06494839B1F8E0
:102730006010044A483AA2F862107047D011002095
:1027400068100020FC1C002000200149887570479B
:10275000D0110020FF20014988757047D01100205A
:1027600070470000FDF792FD012080F3138800BF41
:1027700000BFBFF34F8F0748006800F4E0600649D0
:102780000843001D03490860BFF34F8F00BF00BF1F
:10279000FEE700000CED00E00000FA0510B500F0C7
:1027A000BBF903A0FDF7A4FD01F026FA10BD00005F
:1027B0002D2D2D2D2D2424204861726452657365C2
:1027C000742024242D2D2D2D2D0D0A00704700007E
:1027D00070B52DED0A8B8AB000F09EF9FFF772FFFD
:1027E00001F0B6F900F098F98848FDF781FD01F095
:1027F00003FA00F091F98648FDF77AFD01F0FCF943
:1028000000F08AF983A286A188A0FDF771FD01F08E
:10281000F3F900F081F98B4800898A49897A894A5D
:10282000D27A884B1B7BCDE90032CDE90210854876
:10283000437B827B01688448FDF75AFD01F0DCF997
:1028400000F06AF97F48C07B7E490A7C497C7D4B59
:102850009B7CCDE90031CDE902207A48C37C01217F
:1028600042687A48FDF744FD01F0C6F900F054F9DA
:102870007749B1F8620001F0F7FE41EC1A0B9FEDC9
:10288000750B53EC102B01F053FD41EC180B704904
:10289000B1F8600001F0E8FE41EC1A0B9FED6D0B02
:1028A00053EC102B01F044FD41EC190B8DED008B26
:1028B00053EC192B6948FDF71BFD01F09DF900F061
:1028C0002BF96748FDF714FD01F096F900F024F9A3
:1028D0006448FDF70DFD01F08FF900F01DF9624825
:1028E000FDF706FD01F088F900247EE000F014F900
:1028F000C4EB04115D4A02EB8101C86801F0B4FE2B
:1029000041EC1A0B5249183151F8240001F0ACFE89
:1029100041EC1C0B9FED560B53EC102B01F0B8FE55
:1029200041EC1B0B53EC1A2B01F002FD41EC180B90
:102930004749643131F8140001F096FE41EC1A0B5E
:102940009FED440B53EC102B01F0F2FC41EC190B02
:10295000C4EB0410454901EB80012231C4EB0410A3
:10296000424A02EB800090F82120C4EB04103F4B58
:1029700003EB8000C069C4EB04133C4D05EB8303FB
:102980009B69C01AC4EB041305EB8303DB69C4EB3A
:102990000415364E06EB85056D695B1BCDE90630E7
:1029A000CDE90821C4EB0410314601EB8000006939
:1029B000C4EB0411324602EB810191F82010CDE9FD
:1029C00004108DED028B2248303050F82410183856
:1029D00050F8240053EC192BCDE900012648FDF7EF
:1029E00087FC01F009F9601CC4B2062CFFF67EAF2B
:1029F00000F092F80648FDF77BFC01F0FDF801F0CD
:102A0000FBF80AB0BDEC0A8B70BD0000FC4C00085E
:102A1000CC4D0008323032322F30352F30330000A9
:102A2000654F535F56332E312E330000202025731F
:102A30002040416E676C655F31343520257309098C
:102A4000090D0A00A01C0020844E0008344F000825
:102A5000B41C00200000000000002440AC4C000822
:102A6000644D0008D44E00084C4C0008681000204B
:102A70000000000000005940344E000810B500244A
:102A800024E00020C4EB04111E4A42F8210001207A
:102A9000C4EB041102EB810108610320C4EB0411B3
:102AA00002EB810181F82000C4EB0410114601EB18
:102AB000800080F821400020C4EB041102EB81016A
:102AC000C8602046FFF7C8FA601CC4B2062CD8DBE9
:102AD00000200D4908600D49086001204860084643
:102AE00040688860FF204875C875FFF705FCFFF750
:102AF000CDFB0448064908600649086001200349E7
:102B0000887510BD681000202C000020D011002016
:102B100030000020340000200248C068401C0149F9
:102B2000C8607047D01100201CB5FFF7A7FF002038
:102B30004FF4FA614FF48073104ACDE9001010A1F0
:102B40000120FFF723FB00204FF4FA614FF480735C
:102B50000D4ACDE900100DA10220FFF717FB002060
:102B60004FF4FA6180230B4ACDE900100AA103203B
:102B7000FFF70CFB00F0DAFF1CBD00007D1F000812
:102B80006170705F30310000C51F00086170705FB8
:102B900030320000192000086170705F6C656400BD
:102BA00010B5FFF7B9FF012411E0C4EB04100C4984
:102BB00001EB800090F8200038B90120C4EB04112B
:102BC000074A02EB810181F82000601CC4B2052C89
:102BD000EBDB00200349C87501F00EF810BD0000C2
:102BE00068100020D011002010B5FFF795FF03A05A
:102BF000FDF77EFB01F000F810BD00002D2D2D2DFE
:102C00002D2424204F5320534C454550202024246C
:102C10002D2D2D2D2D0D0A0010B5FDF737FBFFF7DB
:102C20007BFF11A0FDF764FB00F0E6FF012412E03A
:102C3000C4EB04100E4901EB800090F8200001283D
:102C400007D10020C4EB0411094A02EB810181F88D
:102C50002000601CC4B2052CEADBFF200549C875C2
:102C6000FDF716FB10BD00006F6E2E2E2E0D0A0014
:102C700068100020D011002010B5FFF74DFF03A011
:102C8000FDF736FB00F0B8FF10BD00002D2D2D2DF7
:102C90002D2424204F53204157414B454E202024C2
:102CA000242D2D2D2D2D0D0A0000000010B50748F4
:102CB000C06848B900F01CF8054800680549096873
:102CC000884201D0FEF7F6FC10BD0000D0110020B4
:102CD000340000203000002010B50448C06818B946
:102CE00000F006F8FEF7E6FC10BD0000D011002051
:102CF00000B5FFF749FB1148007DC0EB00101049FB
:102D000001EB80000069012808D100200B49097DF2
:102D1000C1EB01110A4A02EB810108610748007DFD
:102D2000C0EB0010064901EB800006490860084628
:102D30000068C0690968486100BD0000D01100202A
:102D4000681000203400002070B50446204600F0D2
:102D500025FE05462A4621460348FDF752FC08B9E0
:102D6000FF2070BD0020FCE7F0170020F8B50446F6
:102D70000D4600260020009029462046FFF75EFC05
:102D8000471C3A4621460C48FDF73BFC88B98DF8B4
:102D9000005000208DF8010069460748FDF7DCFB74
:102DA000064626B1304600F04DF8FF20F8BD002061
:102DB000FCE70020FAE70000F017002070B5044699
:102DC0000D46284600F0EAFD064604490819324639
:102DD0002946FDF716FCC0B270BD0000F0170020B8
:102DE00014490968B9B1002012E0C0EB0011124A81
:102DF00002EB8101114A1268914207D1104951F842
:102E00002010491C0E4A42F8201003E0411CC8B2B1
:102E10000628EADB0CE0002005E00022084941F822
:102E20002020411CC8B20628F7DB0121014A1160AD
:102E300070470000D01100206810002030000020F2
:102E4000FC1C002010B5044608220E49204600F064
:102E5000F7FE08220B494031204601F0A8F808226D
:102E600008496031204601F0E3F808220549A03105
:102E7000204601F02EF8082202498031204600F059
:102E8000B3FF10BDF01B00202DE9FC47FB4890F874
:102E9000AC04FF2873D1FA48FFF756FF18B1FFF7CB
:102EA000F5FBFFF7FFFBF54890F8AD04002867D06D
:102EB000F4488078002876D1F2484078FF2872D113
:102EC000F0484069401C20B1EE484069401CED4983
:102ED0004861EC48006910B90320EA490861EA48F2
:102EE000FFF732FFC8B1FFF741F80020E54948611C
:102EF000FF208870C8700870FFF70EFEE3A0FDF792
:102F0000F7F900F079FEFFF707FEE3A0FDF7F0F90F
:102F100000F072FEFFF7BAFB45E0E448FFF714FF4C
:102F200070B1FFF723F80020D6494861FF20887070
:102F3000FFF7F2FDDEA0FDF7DBF900F05DFE32E009
:102F4000D048006901281CD10020CE4948700846AD
:102F5000C068496947F2305202FB0100C949C860A4
:102F6000FFF7DAFDC748C0684FF47A71B0FBF1F49F
:102F70002146D2A0FDF7BCF900F03EFE13E030E39D
:102F80001FE3C048006901280DD9BE480069401EF2
:102F9000BC490861FFF7C0FDBA480169CFA0FDF741
:102FA000A7F900F029FED648FFF7CEFE002853D03F
:102FB000B4488078E0B9B348C06850B9FF20B1493F
:102FC0004870FFF7A9FDCFA0FDF792F900F014FEBD
:102FD000F5E2FFF7A1FDAB48C0684FF47A71B0FB92
:102FE000F1F42146B5A0FDF783F900F005FEE6E215
:102FF000FEF7BCFFA348C078FF2807D1FFF78CFD80
:10300000C9A0FDF775F900F0F7FDD8E29D480078FA
:10301000FF2819D1FEF7AAFF00209A494861FF2036
:103020008870C8700870FFF777FD98A0FDF760F909
:1030300000F0E2FDFFF770FD97A0FDF759F900F0F1
:10304000DBFDFFF723FBBAE2FFF766FDBAA0FDF751
:103050004FF900F0D1FDB2E2BD48FFF775FE002840
:1030600037D088488078E0B98648C06850B9FF20DA
:1030700084494870FFF750FDA2A0FDF739F900F030
:10308000BBFD9CE2FFF748FD7E48C0684FF47A71B3
:10309000B0FBF1F4214689A0FDF72AF900F0ACFD60
:1030A0008DE2FEF763FF7748C078FF2807D1FFF76E
:1030B00033FDA8A0FDF71CF900F09EFD7FE2FFF7AD
:1030C0002BFDABA0FDF714F900F096FDFFF7DEFA3B
:1030D00075E2AB48FFF738FE002832D06A49042079
:1030E000FFF76CFE68B1FEF741FFFF20654988706D
:1030F0000870FFF711FDA3A0FDF7FAF800F07CFDC2
:103100005DE26A490420FFF759FE70B1FEF72EFF19
:10311000FF205C49887000200870FFF7FDFC9FA02D
:10312000FDF7E6F800F068FD49E200205549887097
:103130000870FFF7F1FC9FA0FDF7DAF800F05CFDE6
:103140003DE2A348FFF700FE58B100204D498870CA
:103150000870FFF7E1FC9FA0FDF7CAF800F04CFDF6
:103160002DE2A048FFF7F0FDF8B146488078FF282F
:1031700013D144480078FF2807D1FFF7CDFC9AA06F
:10318000FDF7B6F800F038FD19E2FFF7C5FC9BA08B
:10319000FDF7AEF800F030FD11E2FFF7BDFC9CA09A
:1031A000FDF7A6F800F028FD09E29E48FFF7CCFDE8
:1031B00018B1FFF7F3FAFFF7D5FA9B48FFF7C4FD04
:1031C00010B1FFF705FBFAE19848FFF7BDFD18B114
:1031D000FFF7E4FAFFF7C6FA9548FFF7B5FD20B10F
:1031E000FFF71AFDFFF748FDE9E19248FFF7ACFD54
:1031F00020B1FFF7D5FCFFF7F7FCE0E18E48FFF7C1
:10320000A3FD10B100F068FCD9E18C48FFF79CFDEC
:1032100050B100F009FC0020009003460246014630
:10322000019000F04BFCCAE13D218548FFF79EFD6F
:1032300070B1002000F0E8FBC4B20020009003460B
:1032400022460146019000F019FC00F045FCB6E171
:103250003D217C48FFF78AFD70B1002000F0D4FBCF
:10326000C4B200200090234602460146019000F0BF
:1032700005FC00F031FCA2E1E6E00000F0170020C0
:10328000744A0008241D002048000020B3ACBCB6DE
:10329000D3C3BBA70D0A0000D5FDD4DABDD3CAD570
:1032A000CAFDBEDD2E2E3025250D0A00550000205A
:1032B000C6D5CDA8D3C3BBA70D0A0000C1ACD0F8BA
:1032C000CAE4C8EBB4EDCEF3A3ACC7EBD4DA256403
:1032D000C3EBBAF3D6D8CAD40D0A0000D3C3BBA738
:1032E000B2BBB4E6D4DA0D0A3CCAA3D3E0B3A2CA97
:1032F000D4B4CECAFD3A2564B4CE3E0D0A00000017
:103300005E4B0008C7EBCAE4C8EBD3C3BBA7C3FB43
:10331000BACDC3DCC2EB28BFD5B8F1B8F4BFAA2937
:10332000A3BA0D0A00000000494150D5FDD4DABD12
:10333000F8D0D02E2E0D0A00C6D5CDA8D3C3BBA77A
:103340003E3ED4DDCEDEC8A8CFDE0D0A0000000070
:10335000694B0008CEDEB7A8B6C1C8A1A3AC4941ED
:1033600050D5FDD4DABDF8D0D02E2E0D0A000000C5
:10337000D5FDD4DAB6C1C8A12E2E0D0A000000007A
:10338000744B0008B5C7C2BCB3C9B9A6A3A13E3EE1
:10339000B3ACBCB6D3C3BBA70D0A0000B5C7C2BC53
:1033A000B3C9B9A6A3A13E3EC6D5CDA8D3C3BBA77A
:1033B0000D0A0000B5C7C2BCCAA7B0DCA3A13E3E3F
:1033C000D3C3BBA7B2BBB4E6D4DA0D0A0000000039
:1033D000794B0008D2D1CDCBB3F6B5C7C2BCA3A1FF
:1033E0000D0A0000804B0008D2D1B5C7C2BC3E3EDA
:1033F000B3ACBCB6D3C3BBA70D0A0000D2D1B5C7CE
:10340000C2BC3E3EC6D5CDA8D3C3BBA70D0A0000A3
:10341000CEB4B5C7C2BC3E3ED4DDCEDEC8A8CFDE3A
:103420000D0A00004F4B0008794A0008854A000841
:10343000564B0008944A0008444B0008394B0008DA
:10344000DF4A0008EE4A00083D216748FFF78EFC7E
:1034500070B1002000F0D8FAC4B200200346024642
:103460000146CDE9004000F009FB00F035FBA6E085
:103470003D215E48FFF77AFC60B1002000F0C4FAFD
:10348000C4B20020034602460146CDE9000400F024
:10349000F5FA94E03D215648FFF768FC00B305209B
:1034A00000F0B2FAC4B2042000F0AEFAC5B20320B4
:1034B00000F0AAFAC6B2022000F0A6FAC7B20120B4
:1034C00000F0A2FA00F0FF08002000F09DFA81460B
:1034D00033463A464146CDE9005400F0CFFA6EE05B
:1034E0003D214448FFF742FC60B1002000F08CFA17
:1034F000C4B200200090034622460146019000F02D
:10350000DDFA5CE03D213C48FFF730FC60B1002073
:1035100000F07AFAC4B20020009023460246014629
:10352000019000F0CBFA4AE03D212F48FFF71EFC46
:1035300060B1002000F068FAC4B2002003460246E1
:103540000146CDE9004000F0B9FA38E03D212748B6
:10355000FFF70CFC60B1002000F056FAC4B2002066
:10356000034602460146CDE9000400F0A7FA26E032
:103570003D211F48FFF7FAFB08B3052000F044FA8D
:10358000C4B2042000F040FAC5B2032000F03CFAB7
:10359000C6B2022000F038FAC7B2012000F034FAB7
:1035A00000F0FF08002000F02FFA00F0FF0933467A
:1035B0003A4641464846CDE9005400F07FFA00F013
:1035C000C1FD0E48FFF7C0FB18B1FFF743F8FFF746
:1035D0004DF800F0D9F900200949C1F8A80481F894
:1035E000AC04BDE8FC870000FD4A00080C4B000855
:1035F0001B4B0008DF4A0008EE4A00086E4A00082C
:10360000F017002010B50446464890F8AC04002896
:103610007DD14448D0F8A80440F2FF31884278D2E6
:103620004048D0F8A814D0F8A804401C3D4AC2F87D
:10363000A80410464454D0F8A804062839D2DFE87C
:1036400000F038030C17222D36480078652803D087
:1036500000203449C1F8A8042BE033A13148FDF71C
:1036600043F8002803DA00202E49C1F8A80420E01E
:103670002EA12C48FDF738F8002803DA002029494C
:10368000C1F8A80415E02AA12648FDF72DF8002866
:1036900003DA00202349C1F8A8040AE026A1214842
:1036A000FDF722F8002803DA00201E49C1F8A8041B
:1036B00000BF00BF1B48D0F8A804062831D3194822
:1036C000D0F8A804801E1749085C0D2829D10846A7
:1036D000D0F8A804401E085C0A2822D10846D0F879
:1036E000A804401FC1F8A8046FF004010D4800F0C1
:1036F0005EF900210B48D0F8A804801E094A115435
:10370000FF20114681F8AC040D48FEF7A9FE08E041
:10371000FFE700200349C1F8A8040846D0F8A80430
:103720000C5410BDF0170020656F0000656F73002A
:10373000656F732400000000656F73243A00000079
:10374000B920000810B57D480089B0F57A7F05DA08
:103750007A480089401C79490881EEE000207749C9
:1037600008810846807A401C88720846807A3C2886
:1037700037DB002088720846C07A401CC8720846B1
:10378000C07A3C282DDB0020C8720846007B401C14
:1037900008730846007B182823DB002008730846BE
:1037A000407B401C48730846007B182819DB00202A
:1037B00008730846407B401C48730846407B1E281F
:1037C0000FDB002048730846807B401C8873084646
:1037D000807B0C2805DB0020887308460068401CAD
:1037E00008605648C07B88B95448007C58B9534893
:1037F000407C40B95148807C28B95048C07C10B901
:103800004E48406810B101204C49C8734B48C07BFA
:1038100002281CDD4948C07B0D2818DA4748007C87
:10382000A8B94648407C90B94448807C78B9434860
:10383000C07C60B94148406848B9FFF76DF93F481E
:10384000C07B811E3EA0FCF753FD00F0D5F93B483C
:10385000C07B02281DD13948007CD0B93748407C54
:10386000B8B93648807CA0B93448C07C88B93348A0
:10387000406870B900203149C873FFF74DF936A090
:10388000FCF736FD00F0B8F9FFF78AF9FFF7ACF95D
:1038900053E02A48C07B012804DD2848C07B401E35
:1038A0002649C8732548C07B012846D13C202349BE
:1038B000C8730846007C002804DD0846007C401ED2
:1038C00008743AE01D48407C002807DD1B48407C16
:1038D000401E1A4948743B2008742EE01748807C2B
:1038E000012809DD1548807C401E14498874172082
:1038F00048743B20087420E01048C07C01280BDD90
:103900000E48C07C401E0D49C8741E2088741720C4
:1039100048743B20087410E00848406801280CD91E
:1039200006484068401E054948600C20C8741E20A7
:103930008874172048743B20087410BDA01C002018
:10394000436F756E74696E6720646F776E3A2025D9
:10395000302E32640D0A000074696D696E67206351
:103960006F6D706C657465642C2073797374656D0C
:1039700020686173206265656E20736875742064C9
:103980006F776E0D0A00000010B54FF48061024899
:10399000FCF782FE10BD0000F01700200146002059
:1039A00001E0401C491C0A78002AFAD170472DE931
:1039B000F04705460E4600240027A146A0462846AB
:1039C000FCF700FE8046002E01DA774202E037461F
:1039D0004FF00109B9F1000F0AD1002403E0E0190A
:1039E000285C2855641CA8EB0700A042F7D809E022
:1039F000A8F1010403E0E01B285C2855641E781E32
:103A0000A042F8D3BDE8F0870146082903DB04484B
:103A1000D0F87C047047034850F82100FAE7000012
:103A2000F0170020501C00200EB5FFF775F809486C
:103A3000C07B0849097C074A527CCDE900210290ED
:103A40000448837CC27C416803A0FCF751FC00F071
:103A5000D3F80EBDA01C002073687574646F7720C6
:103A600063616E63656C3A25642E25642E2564209F
:103A700025643A25643A25640D0A0000F0B5DDE9B5
:103A800005450D4EF67B2E440B4FFE733E46367CAD
:103A900026443E743E46767C1E447E743E46B67C8A
:103AA0001644BE743E46F67C0E44FE743E4676686E
:103AB00006447E60F0BD0000A01C002070B5DDE96A
:103AC0000445044EF57334747374B274F174706009
:103AD00070BD0000A01C00200EB5FFF71DF80948BE
:103AE000C07B0849097C074A527CCDE9002102903D
:103AF0000448837CC27C416803A0FCF7F9FB00F01A
:103B00007BF80EBDA01C002073687574646F77206D
:103B100064656C61793A25642E25642E2564202520
:103B2000643A25643A25640D0A000000FEF7B2FCF1
:103B3000FDF7C6FE00F068F8FDF7C2FEFDF7D6FE01
:103B4000FCF7A8FBFDF7C2FDFDF7B4FD00BFFEE7E3
:103B5000002025E000210023134A42F8203007E02E
:103B6000114A52F82020521C0F4B43F82020491CC8
:103B70000D4A303A52F8202052F82120002AEFD086
:103B8000C0EB0012094B03EB8202D368064A52F8DD
:103B900020209B1A044A183A42F82030421CD0B226
:103BA0000628D7DB70470000E41C002068100020C6
:103BB00010B5FFF715F9FFF7C5FD0D48C06820B136
:103BC0000B48C068401E0A49C86009488078FF2831
:103BD0000DD10748806820B105488068401E04491F
:103BE00088600348806810B900200149887010BDC2
:103BF000241D0020704700000248C068401E014993
:103C0000C8607047D011002010B5FEF7A3FD4FF437
:103C1000E13000F041FAFDF705FF0748807DFF28FD
:103C200009D1FEF779FF0448407F10B903A0FCF7E3
:103C30005FFBFFF7E1FF10BDD01100200000000086
:103C40002DE9F0472DED048B80460E4617464FF0C8
:103C500000090025AA460024444600BF07E09FED66
:103C60005E0B06EBC50080ED000B681C85B2BD4203
:103C7000F5D30025A6E0207830287DDB2078392890
:103C80007ADC14F8010C2D2801D14FF0FF0920E057
:103C90002178A1F1300000F0D0FC41EC180B06EBCC
:103CA000C50090ED001BB0EE410AF0EE610A9FEDF9
:103CB0004C1B53EC112B51EC100B00F0E9FC41ECC8
:103CC000190B53EC182B00F08BFA06EBC50203C25C
:103CD000641C2078302802DB20783928D8DD207851
:103CE0002E2853D14FF0010A641C31E02178A1F154
:103CF000300000F0A2FC41EC180B06EBC50090ED83
:103D0000001BB0EE410AF0EE610A9FED351B53EC4B
:103D1000112B51EC100B00F0BBFC41EC190B53ECD8
:103D2000182B00F05DFA06EBC50203C2504600F006
:103D30009BFC41EC190B9FED2A0B53EC102B00F070
:103D4000A7FC41EC180B00F04BFC1FFA80FA641C36
:103D50002078302802DB20783928C7DD504600F073
:103D600083FC41EC180B06EBC50090ED001BB0EE98
:103D7000410AF0EE610A00E023E053EC182B51EC0D
:103D8000100B00F0D5FA06EBC50203C2B9F1FF0F24
:103D900012D106EBC50090ED001BB0EE410AF0EE2B
:103DA000610A53EC102B9FED0C1B51EC110B00F032
:103DB0006DFD06EBC50203C2681C85B2BD4200D38F
:103DC00004E0641C207800287FF455AF00BFBDECF0
:103DD000048BBDE8F0870000000000000000000038
:103DE0000000000000002440F0B506460B461446D3
:103DF000002100220020304600BF04E0002543F8E7
:103E000021504D1CA9B2A142F8D300215CE0002250
:103E10003AE00578302D0BDB0578392D08DC057884
:103E2000303D53F8217005EB071543F821501CE095
:103E30000578412D0BDB0578462D08DC0578373DEC
:103E400053F8217005EB071543F821500DE0057874
:103E5000612D0ADB0578662D07DC0578573D53F8A0
:103E6000217005EB071543F82150401C551CAAB2E0
:103E7000D71702EB5777FF10A2EBC70727B94D1CE6
:103E8000A9B2A14200D311E00578302D02DB0578FC
:103E9000392DBEDD0578412D02DB0578462DB8DDD4
:103EA0000578612D02DB0578662DB2DD00BFD717DE
:103EB00002EB5777FF10A2EBC70727B14D1CA9B241
:103EC000A14200D303E0401C0578002D9FD100BF24
:103ED000F0BDF0B505460B46144600210022002037
:103EE000284600BF03E000265E544E1CB1B2A1423A
:103EF000F9D3002156E0002234E00678302E09DBA9
:103F00000678392E06DC0678303E5F5C06EB071635
:103F10005E5418E00678412E09DB0678462E06DC52
:103F20000678373E5F5C06EB07165E540BE00678BA
:103F3000612E08DB0678662E05DC0678573E5F5C4E
:103F400006EB07165E54401C561CB2B2164602EB36
:103F5000D6777F10A2EB470727B94E1CB1B2A1421A
:103F600000D311E00678302E02DB0678392EC4DD4E
:103F70000678412E02DB0678462EBEDD0678612EDD
:103F800002DB0678662EB8DD00BF164602EBD67758
:103F90007F10A2EB470727B14E1CB1B2A14200D35C
:103FA00003E0401C0678002EA5D100BFF0BDF0B59F
:103FB00004460B46002500200021214600BF04E0F6
:103FC000002643F82060461CB0B29042F8D300208F
:103FD00029E00E78302E25DB0E78392E22DC11F800
:103FE000016C2D2E00D1FF250AE00E78303E53F8EB
:103FF000207007EB870706EB470643F82060491C53
:104000000E78302E02DB0E78392EEEDDFF2D04D136
:1040100053F82060764243F82060461CB0B29042CC
:1040200000D303E0491C0E78002ED2D100BFF0BDB2
:1040300070B504460B4600210020204600BF04E076
:10404000002543F821504D1CA9B29142F8D300211C
:104050001DE00578302D19DB0578392D16DC0AE0D6
:104060000578303D53F8216006EB860605EB4605E2
:1040700043F82150401C0578302D02DB0578392D9E
:10408000EEDD4D1CA9B2914200D303E0401C05783F
:10409000002DDED100BF70BD10B588B004460121EF
:1040A0000846FDF71FFD01211020FDF72BFD07221B
:1040B00009212248FDF76EFC07220A211F48FDF75F
:1040C00069FC4FF4C060069002208DF81C008DF84A
:1040D0001D0000208DF81E0001208DF81F0006A98C
:1040E0001648FDF70FFC02940020ADF80C00ADF867
:1040F0000E00ADF81000ADF814000C20ADF8120061
:1041000002A90F48FDF7A0FE01210D48FDF740FE72
:10411000012240F225510A48FDF770FE25208DF856
:10412000040003208DF805008DF8060001208DF8AD
:10413000070001A8FDF79AFC08B010BD000002407E
:104140000010014010B50DA0FEF7FEFD40B1FEF7D6
:1041500001FBFEF7E1FC0CA0FCF7CAF8FFF74CFDF1
:104160000DA0FEF7F1FD40B1FEF7EEFAFEF7D4FC2C
:104170000CA0FCF7BDF8FFF73FFD10BD646562754C
:1041800067206F6E000000006F6B206465627567CA
:10419000206F6E0D0A0000006465627567206F660F
:1041A000660000006F6B206465627567206F66664D
:1041B0000D0A000010B500290AD00878002807D0A1
:1041C00005487844FCF790FA002801D0002010BD83
:1041D0000248784410BD0000DE0D0000D60D00003E
:1041E00010B591EA030F48BF83F0004300F15683F6
:1041F000841A71EB030C05D2121943EB0C03001B5C
:1042000061EB0C01DFF824E14FEA1154A4EB135CDD
:104210001EEA430F18BF9EEA445F73D023EA0E03E1
:10422000DCF1200E21EA045143F4801332D322FA48
:104230000CFE10EB0E0023FA0CFE41EB0E01CCF14C
:10424000200E03FA0EFE10EB0E0051F10001B1F545
:10425000801FCCF1200E32D201EB045112FA0EF283
:10426000BDE8104058BF7047401C38BF5FEA4202AB
:1042700018BF7047002814BF20F0010041F1000171
:104280004FEA410313F5001F38BF7047A1F1C04149
:1042900000F0F6BA012A43EB0302ACF1200CDCF18A
:1042A0001F0E32BF4FF0000E23FA0CF310EB030089
:1042B00041EB0451B4EB115FD0D0A1EB045101F5F7
:1042C000801149085FEA300001EB04510ED350F130
:1042D000000038BF12FA0EFE08D1BDE81040C9E751
:1042E000401C38BF5FEA4202CAD1C3E7BDE81040B4
:1042F0004FEA410313F5001F38BF7047A1F1C041D9
:1043000000F0BEBA9EEA445F08D011EA5E0FBDE835
:10431000104004BF01F0004100207047BDE810408C
:1043200070B500F05FFA00BF64FBBE3E0000E0FF26
:104330002DE9C04130B4DFF8A0C23CEA111418BF27
:104340003CEA131400F0EC8081EA03051CEA111426
:1043500044EAD57418BF1CEA131500F0C780A4EB1B
:1043600005044FF0004545EAC12145EAC32341EA6F
:10437000505143EA525304F17F74994204F50034DA
:104380004FEAC0204FEAC22208BF904200F09C8052
:104390004FEA13650FF24016765D4FEA134506FBB0
:1043A00005F7C7F1807706FB07F74FEAD737A7FB7A
:1043B00003687642C8F58038A7FB06CE38BFA8F15F
:1043C000010807FB08E64FF0000EA6FB028CE6FB97
:1043D00003CEDCF1000CCEF1004E38BFAEF1010E81
:1043E000A6FB0C584FF000074FF00005E6FB0E87C8
:1043F000A1FB08C6A0FB07CE16EB0E0645F1000593
:10440000E1FB076515F1E04E7EBFA4F580345FEA5D
:1044100046066D4116F1800745F100054FEA172762
:104420004FEA066647EA0567A6F1DE46B6F1805F09
:104430004FEA15251FD9384624F0010C05EBC4714D
:10444000BCF1FE6F01EB0C1102D8F0BCBDE800819D
:1044500024425CBF01F5801E9EEAC47F02D4F0BCFA
:10446000BDE80081244238D4F0BCA1F1C041BDE8D0
:10447000004100F005BA4FEAD22242EA43524FEA25
:10448000D323A7FB02864FEAD02040EA415007FB26
:1044900003661EEA0E0F4FEAD12105FB026658BFE4
:1044A000A6EB0056B6EB00564FEA520E4EEAC37E1C
:1044B00018EB0E0E56EB530EBDD518EB02085E41FD
:1044C0007F1C55F10005B6E74FF480154FF000074B
:1044D0004FF000064FF00008ADE7F0BC4FF00000D1
:1044E00001F1C04101F00041BDE8008111EA0C1F5B
:1044F0000CEA131500D00CE013EA0C1F00F0258025
:104500004FF00000F0BC81EA030101F00041BDE87A
:104510000081F0BCBDE8004181EA030100F0B0B9C0
:10452000F0BCBDE8004170B500F05CF9097EFC3ECE
:1045300000F007B881EA03014FF0000001F00041EC
:10454000704781EA030100F09BB9F0BCBDE800416F
:104550004FF0000021497047FFFDFBF9F7F5F4F239
:10456000F0EEEDEBE9E8E6E4E3E1E0DEDDDBDAD80E
:10457000D7D5D4D3D1D0CFCDCCCBCAC8C7C6C5C46C
:10458000C2C1C0BFBEBDBCBBBAB9B8B7B6B5B4B383
:10459000B2B1B0AFAEADACABAAA9A8A8A7A6A5A46E
:1045A000A3A3A2A1A09F9F9E9D9C9C9B9A99999832
:1045B0009797969595949393929191908F8F8E8ED5
:1045C0008D8C8C8B8B8A8989888887878685858462
:1045D00084838382828181800000FF070000F87F4E
:1045E0004FEA1153A3F58063D3F11E03A8BFD3F1A3
:1045F000200C08DB4FF0004242EAC12252EA50523E
:1046000032FA03F0704709420BD4102BC4BF0020CC
:10461000704703F5787CBCF1FF3F05D04FF0FF30C9
:1046200070474FF00000704770B500F0DBF800BF36
:104630004992248000207047F0E710F0004248BF04
:104640004042B0FA80F310FA03F10AD0C3F11D031F
:1046500003F580634FEA415002EB035202EBD12194
:1046600070474FF000007047B0FA80F310FA03F182
:104670000AD0C3F11D0303F580634FEA41504FEAAE
:10468000035202EBD12170474FF000007047000049
:10469000DFF848C170B51CEA111E1EBF1CEA1315D5
:1046A0009EEA0C0F95EA0C0F00F06F8081EA03047C
:1046B00023EA4C134EEAD47E21EA4C1141F48011D6
:1046C00043F48013AE44A1FB024CA0FB0365AEF1A2
:1046D0007F7E361955EB0C05A1FB034C4CF1000312
:1046E000A0FB021C16EB0C06654153F100030942C6
:1046F00018BF46F0010613F4007F0BD14FEA0331D7
:104700004FEA0530340341EA155140EA16506FF084
:1047100003020AE04FEAC3214FEAC520F40241EA4E
:10472000555140EA56506FF0020202EB2E4201EB67
:10473000025585EACE710AD05FEA440C18BF24F016
:10474000004450F1000041F1000120EAD47040F231
:10475000FE7C624500D270BDA84214BF4FF0804479
:104760004FF04044002E08BF0024BEF1806FA8BF68
:10477000A1F1C041BDE8704080F282804FF000009E
:1047800001F1C04101F0004170479EEA0C0F0CEAB4
:10479000131518BF95EA0C0F06D04FF0000081EA00
:1047A000030E0EF0004170BD00F01CF88900013EC0
:1047B00000F007B800F009B84FEA430C5FEA5C5C10
:1047C00008D081EA030100F05BB84FEA410C5FEAD0
:1047D0005C5CF6D14FF00000014970470000FF0714
:1047E0000000F87F0EF1020E2EF0030E5EF8046B4F
:1047F000364205D4012A43EB030515F5001F12D8F4
:10480000012841EB010C1CF5001F0CD80ED14FEA1A
:10481000D17C15F5001F0CEB4C0C0CF1020C08BF01
:104820004CEBD37C04E04FF0080C01E04FEAD37C62
:104830000CEB4C0526FA05F606F00706B6F1040C5B
:1048400006D20EEB860CBDE870404CF0010C6047C0
:10485000DFE80CF0090B02024FF000414FF00000BE
:10486000A1F5002170BD19461046012851EB010445
:1048700018BFD4F5001484BF002001F0004170BDC2
:104880000808A0F500114FEA3101704710B591EA10
:10489000030F48BF83F000433FF5AAAC841A71EBC5
:1048A000030C07D212198CF0004C43EB0C03001BD5
:1048B00061EB0C01DFF8A4E14FEA1154A4EB135CA7
:1048C0001EEA430F18BF9EEA445F00F0B08023EA5F
:1048D0006E03524221EA0451C3EB6E0338BF5B1EE4
:1048E000DCF1200E25D322FA0CFE10EB0E0043FA69
:1048F0000CFE41EB0E01CCF1200E03FA0EFE10EB84
:104900000E0051F10001CCF1200E29D412FA0EF262
:1049100001EB0451BDE8104058BF7047401C1CBF5C
:10492000B2F1004F704700280CBF491C20F0010075
:10493000704712EB020E43EB030218BF4FF0010E5B
:104940004EEA4202ACF1200CDCF11E0E54D943FABF
:104950000CFE10EB0E0051F1FF31CCF11E0ED5D53F
:104960000EF1010E12FA0EFE404141EB010101EB86
:10497000445C5FEA5C5C10D910EBDE7001EB045123
:1049800038BFBEF1004FBDE8104018BF7047002887
:104990000CBF491C20F00100704730D24FEAD42CE4
:1049A00011F5001124F400641BD0B1FA81F20B3A26
:1049B000A41AA41ED2F12003914030FA03F3194344
:1049C000904001EBCC71002C01EB0451BDE810408C
:1049D000A8BF704701F1C0414FF0000001F0004155
:1049E0007047B0FA80F310FA03F100D110BDE41A59
:1049F000173C4805C90AE4E701EB045110BD491012
:104A000001EB0451BDE810404FEA300002E04FF0E6
:104A1000000170474A0008BF0042F8D0B2F5001FFD
:104A200028BF704701F000414FF0000070479EEA38
:104A3000445F07D011EA5E0FBDE8104004BF0021BB
:104A400000207047BDE8104070B5FFF7CBFE00BFF7
:104A500040DFF63E83F00041104670470000E0FF63
:104A60004FF04070E1EE100A7047FBF7B3BF656E80
:104A7000746572006578697400696E666F726D6145
:104A800074696F6E0073687574646F776E2D722031
:104A90006E6F770073687574646F776E2D68206E23
:104AA0006F770073687574646F776E2D74643D253D
:104AB000640073687574646F776E2D74683D256447
:104AC0000073687574646F776E2D746D3D25640096
:104AD00073687574646F776E2D74733D256400730D
:104AE000687574646F776E2D68643D256400736823
:104AF0007574646F776E2D68683D25640073687502
:104B000074646F776E2D686D3D25640073687574ED
:104B1000646F776E2D68733D2564007368757464E7
:104B20006F776E2D68743D25642D25642D256420D6
:104B300025643A25643A25640073687574646F7758
:104B40006E2D630073687574646F776E2D6A0072E2
:104B500065626F6F7400737461727475700073793D
:104B60007374656D2D6961700073797374656D2D53
:104B7000726170006C6F616400756E6C6F616400CF
:104B8000616363657373007274633D25642D2564EE
:104B90002D25642025643A25643A25642077256410
:104BA00000727463000400000800000000000000B0
:104BB000020001000010000002400000000000A000
:104BC0000000000005400000000000C800000000D8
:104BD0000C4000000000409C000000001940000054
:104BE0000020BCBE0000000034400000BFC91B8E86
:104BF00000000004B5400000504BCFD06607E2CF64
:104C0000010000006C4100003E8251AADFEEA73493
:104C100001000000D9420000DCB5A0E23A301F9745
:104C2000FFFFFFFFB4450000FD25A0C8E9A3C14F69
:104C3000FFFFFFFFFF3F00000000008000000000BA
:104C4000FF3F0000000000800000000020204350D3
:104C50005520202020557365642020202020467296
:104C600065652020202020205065722020202020F3
:104C7000537461746520202020536C65657020207A
:104C80002054696D654F7574202054696D654D61C0
:104C9000782020202041707049642020202041701D
:104CA000704E616D650D0A0D0A0000002020435012
:104CB00055B5B1C7B0D5BCD3C3C2CAA3BA252D342C
:104CC0002E31662525202020202020202020202075
:104CD000202020202020202020202020200909C062
:104CE000FACAB7D7EEB4F3D5BCD3C3C2CAA3BA25A8
:104CF0002D342E31662525200D0A00002B2B2B2B61
:104D00002B2B2B2B2B2B2B2B2B2B2B2B2B2B2B2BF3
:104D10002B2B2B2B2B2B2B2B2B2B2B2B2B2B2B2BE3
:104D20002B2BCFB5CDB3D7B4CCACD0C5CFA22B2BCA
:104D30002B2B2B2B2B2B2B2B2B2B2B2B2B2B2B2BC3
:104D40002B2B2B2B2B2B2B2B2B2B2B2B2B2B2B2BB3
:104D50002B2B2B2B2B2B2B2B2B2B2B2B2B2B0D0AE2
:104D6000000000002D2D2D2D2D2D2D2D2D2D2D2D27
:104D70002D2D2D2D2D2D2D2D2D2D2D2D2D2D2D2D63
:104D80002D2D2D2D2D2D2D2D2D2D2D2D2D2D2D2D53
:104D90002D2D2D2D2D2D2D2D2D2D2D2D2D2D2D2D43
:104DA0002D2D2D2D2D2D2D2D2D2D2D2D2D2D2D2D33
:104DB0002D2D2D2D2D2D2D2D2D2D2D2D2D2D2D2D23
:104DC0002D2D2D2D2D2D0D0A000000003D3D3D3DCA
:104DD0003D3D3D3D3D3D3D3D3D3D3D3D3D3D3D3D03
:104DE0003D3D3D3D3D3D3D3D3D3D3D3D3D3D3D3DF3
:104DF0003D3D3D3D3D3D3D3D3D3D3D3D3D3D3D3DE3
:104E00003D3D3D3D3D3D3D3D3D3D3D3D3D3D3D3DD2
:104E10003D3D3D3D3D3D3D3D3D3D3D3D3D3D3D3DC2
:104E20003D3D3D3D3D3D3D3D3D3D3D3D3D3D0D0A15
:104E3000000000002025342E31662525202020206A
:104E4000252D3664202020252D36642025352E3151
:104E500066252520202020202025316420202020A8
:104E60002020252D3664202020252D36642020206A
:104E7000252D366420202535642020202020202563
:104E8000730D0A002020D4CBD0D0C4A3CABDA3BACE
:104E90007072696F202B2074696D656F75740909D4
:104EA0000909D4CBD0D0CAB1BCE4A3BA252D64C4BF
:104EB000EA252D64D4C2252D64C8D520252D64CAC9
:104EC000B1252D64B7D6252D64C3EB20252D646D47
:104ED000730D0A00D5BCD3C3C2CA202020CAB9D3DF
:104EE000C3D5BB202020BFD5CFD0D5BB202020B03C
:104EF000D9B7D6B1C820202020D7B4CCAC202020F0
:104F0000D0DDC3DF6D7320202020B3ACCAB12020D8
:104F10002020D7EEB4F3B3ACCAB1202020D3C5CF44
:104F2000C8BCB6202020D3A6D3C3C3FBB3C60D0A8A
:104F3000000000002020CAB1D6D3BDDAC5C4A3BA90
:104F4000252D34646D730909090909CFB5CDB3B9AD
:104F5000D8B1D5B5B9BCC6CAB1A3BA252D64C4EAC7
:104F6000252D64D4C2252D64C8D520252D64CAB151
:104F7000252D64B7D6252D64C3EB0D0A0000000073
:104F8000BC4F00080000002064000000C4010008BD
:104F900020500008640000203C270000E0010008C9
:104FA0001C00000043000000F8FFFFFF0C000000A1
:104FB0000E0000000F0000002E000000007A030A1F
:104FC00000000000000000000102030406070809B9
:104FD00000000000000000000000010203040102C4
:104FE000030406070809000000000000000000009C
:104FF000000000000000010102020202030303039B
:105000000303030361646D696E2031323334353636
:1050100000757365722061626331323300000000F5
:040000050800018965
:00000001FF
