:0200000490006A
:10000000401801208D03009079270090592400901A
:1000100071270090E107009061CE00900000000081
:10002000000000000000000000000000692A0090AD
:10003000E90700900000000011280090712A00904C
:10004000A7030090A7030090A7030090A7030090C8
:10005000A7030090A7030090A7030090A7030090B8
:10006000A7030090A7030090A7030090A7030090A8
:10007000A7030090A7030090A7030090A703009098
:10008000A7030090A7030090A7030090A703009088
:10009000A7030090A7030090A7030090A703009078
:1000A000A7030090A7030090A7030090A703009068
:1000B000A7030090A7030090A7030090A703009058
:1000C000A7030090A7030090A7030090A703009048
:1000D000A7030090A7030090A7030090A703009038
:1000E000A7030090A7030090A7030090A703009028
:1000F000A7030090A7030090A7030090A703009018
:10010000A7030090A7030090A7030090A703009007
:10011000A7030090A7030090A7030090A7030090F7
:10012000A7030090A7030090A7030090A7030090E7
:10013000A70300900000000000000000A70300904B
:10014000A7030090A7030090A7030090A7030090C7
:10015000A7030090A7030090A7030090A7030090B7
:10016000A7030090A7030090A7030090A7030090A7
:10017000A7030090A7030090A7030090A703009097
:10018000A7030090A7030090A7030090A703009087
:10019000A7030090A7030090A7030090A703009077
:1001A000A7030090A7030090A7030090A703009067
:1001B000A7030090A7030090A7030090A703009057
:1001C000A7030090A70300900000000000000000BB
:1001D0000000000000000000A703009000000000E5
:1001E000000000000000000000000000000000000F
:1001F0000000000000000000A7030090A70300908B
:10020000A7030090A703009000000000A703009040
:10021000A7030090A7030090A7030090A7030090F6
:10022000A7030090A7030090A70300900000000020
:10023000A7030090A703009000000000A703009010
:10024000A7030090A7030090A7030090A7030090C6
:10025000A7030090A7030090A7030090A7030090B6
:10026000A7030090A7030090A7030090A7030090A6
:10027000A7030090A7030090A703009000000000D0
:10028000A7030090A703009000000000A7030090C0
:1002900000000000A7030090A7030090A7030090B0
:1002A000A7030090A7030090A703009000F002F8B6
:1002B00000F05CF80AA090E8000C82448344AAF1A4
:1002C0000107DA4501D100F051F8AFF2090EBAE8A2
:1002D0000F0013F0010F18BFFB1A43F0010318477A
:1002E0009CAE0500BCAE05000A444FF0000C10F8AF
:1002F000013B13F0070408BF10F8014B1D1108BFA4
:1003000010F8015B641E05D010F8016B641E01F843
:10031000016BF9D113F0080F1EBF10F8014BAD1C93
:100320000C1B09D16D1E58BF01F801CBFAD505E0B1
:1003300014F8016B01F8016B6D1EF9D59142D6D30B
:10034000704700000023002400250026103A28BF33
:1003500078C1FBD8520728BF30C148BF0B60704737
:100360001FB541F01CFB1FBD10B510BD00F003FA16
:100370001146FFF7F5FF3AF0ABF900F021FA03B4AC
:10038000FFF7F2FF03BC00F0EFF9000009488047D7
:1003900009480047FEE7FEE7FEE7FEE7FEE7FEE767
:1003A000FEE7FEE7FEE7FEE704480549054A064B7F
:1003B00070470000A12B0090AD02009040C80020C3
:1003C0004018012040E8002040E8002053EA020CD9
:1003D00000F069802DE9F04B4FF00006002B1FBFA5
:1003E000B3FA83F503FA05F424FA05F65E4012BF6A
:1003F0001643B2FA82F502FA05F4C5F120051EBFD4
:1004000022FA05FC44EA0C04203556EA044C4FEA73
:10041000144418BF641C4FF000084FF000099042CC
:1004200071EB030C39D3002919BFB1FA81F701FA36
:1004300007F6B0FA80F700FA07F6C7F120071EBFEB
:1004400020FA07FC46EA0C062037B6FBF4FCA7EBC3
:100450000507103F07F01F0BCBF120062CFA06F61C
:100460000CFA0BFB44BFB3460026202FA4BF5E4608
:100470004FF0000B5BEA060C08BF4FF0010B19EBC5
:100480000B0948EB0608ABFB027C06FB02CC0BFB1E
:1004900003CCC01B71EB0C01C1E70B460246414681
:1004A0004846BDE8F08B13B5084318BF4FF0FF3046
:1004B0000146AFF30080BDE81C40704740EA0103ED
:1004C000024630B59B0710D14FF0013400E008C25E
:1004D00008C91D1B9D4315EAC41FF8D013F0FF0186
:1004E00002F8011B0DD01B0AF8E711F8013B002BA5
:1004F00002F8013B05D011F8013B002B02F8013B4B
:10050000F3D130BD10B5431C02E010F8011B71B1EE
:100510008107FAD14FF0013202C88C1A8C4314EAD9
:10052000C211F9D0C01A0A0603D0C01E10BDC01AED
:1005300010BD0A0401D0801E10BD0902FCD0401E6F
:1005400010BD032A40F2308010F0030C00F015803B
:1005500011F8013BBCF1020F624498BF11F801CBC6
:1005600000F8013B38BF11F8013BA2F1040298BF2B
:1005700000F801CB38BF00F8013B11F0030300F095
:10058000C080083AC0F0088051F8043B083A51F89E
:1005900004CBA0E80810F5E7121D5CBF51F8043B3E
:1005A00040F8043BAFF30080D20724BF11F8013BB1
:1005B00011F801CB48BF11F8012B24BF00F8013B13
:1005C00000F801CB48BF00F8012B704702F0FF0391
:1005D00043EA032242EA024200F00AB802F0FF03B3
:1005E00043EA032242EA024200F024B84FF000023C
:1005F0000429C0F0128010F0030C00F01B80CCF135
:10060000040CBCF1020F18BF00F8012BA8BF20F8A2
:10061000022BA1EB0C0100F00DB85FEAC17C24BFF6
:1006200000F8012B00F8012B48BF00F8012B7047A0
:100630004FF0000200B5134694469646203922BF7B
:10064000A0E80C50A0E80C50B1F12001BFF4F7AFC6
:10065000090728BFA0E80C5048BF0CC05DF804EBA8
:10066000890028BF40F8042B08BF704748BF20F816
:10067000022B11F0804F18BF00F8012B70470000CB
:1006800030B44FF0013C50F8042BCCFA52F451F83E
:10069000043BD51A20D1FCB950F8042BCCFA52F403
:1006A00051F8043BD51A17D1B4B950F8042BCCFA41
:1006B00052F451F8043BD51A0ED16CB950F8042B02
:1006C000CCFA52F451F8043BD51A05D1002CDAD0FB
:1006D00030BC4FF00000704729BAB1FA81F111F037
:1006E0001801D1F120008440F2D1CA40CB4012F071
:1006F000FF0213F0FF0330BCD01A704770477047F9
:10070000704710B5203AC0F00B80B1E81850A0E84F
:100710001850B1E81850A0E81850203ABFF4F5AFCF
:100720005FEA027C24BFB1E81850A0E8185044BF2B
:1007300018C918C0BDE810405FEA827C24BF51F898
:10074000043B40F8043B08BF7047D20728BF31F88C
:10075000023B48BF11F8012B28BF20F8023B48BFDD
:1007600000F8012B7047000001491820ABBEFEE7DE
:10077000260002007047754600F02CF8AE460500D2
:100780006946534620F00700854618B020B5FFF7AC
:100790000BFEBDE820404FF000064FF000074FF081
:1007A00000084FF0000BAC46ACE8C009ACE8C0094B
:1007B000ACE8C009ACE8C00921F007018D467047DC
:1007C00010B50446AFF300802046BDE81040FFF7A7
:1007D000D6BD000000487047E8010020000000007E
:1007E000FEE700000000000070470000000000006D
:1007F00070B515460C46064606F05AFD06F058FD43
:10080000BA200BF019FB012807D1300A0BF014FBBA
:10081000012802D1F0B20BF00FFB06F049FDBB201E
:100820000BF00AFB012815D164B1013D644200BF01
:10083000B4F1FF3018BF012005F022FE013405F8A5
:10084000010FF5D307F084FF002407F081FF204655
:1008500070BD00BF012407F07BFF204670BD000083
:10086000B0B5044600F01CF940F200010546C2F2A2
:100870000001621C097818BF0C4400BF00F010F999
:10088000401BA042FAD3B0BD2DE9F04F86B00F68EF
:100890000290002F00F0E88002988C4600F126427A
:1008A0000A2102F1FF7342F20042C5F602024FF044
:1008B000000990424FEAB32208BF0921092A4FF0EC
:1008C000010238BF4FEAB32101264FF0000A4FF072
:1008D00000080091CDF804C00EE000BFDCF8007005
:1008E00008F1010837FA06F10AF1020A06F10106D9
:1008F00009F1040900F0B880701E02FA00FE17EA40
:100900000E01EBD0DCF804B00491BBF1120F00F241
:10091000A38002FA0BF717F0061F00F09D80029CDF
:10092000032101FA0AF2A368DCF80C709343D14367
:1009300007FA0AF21A43A26062684FEA1B134FEAF1
:10094000480522EA0E0283401A4362604BF010030E
:10095000E268122BDCF8083002EA010203FA05F320
:10096000039142EA0302E26014D16FF0030109F03F
:100970001C0701EA50020F212244B940D2F820E0BE
:10098000DCF810302EEA0101BB40029C19431162D1
:10099000DCF804B00BF003012268039BA9401A4065
:1009A0005FEACB0341EA02012160DDF804C04FF0A9
:1009B0000102049C92D544F2545240F2084EC5F60E
:1009C0000202C5F6000E0F27116841F00201116006
:1009D000116801F00201059120F00301059A09F068
:1009E0000C024FF0B04051F80E309740BB43009FCF
:1009F00007FA02F21A4341F80E2040F2040EC5F63F
:100A0000000EDEF87C10DCF8042041EA0403D70372
:100A100058BF21EA04039703CEF87C30DEF880103B
:100A200041EA040358BF21EA0403D702CEF880301C
:100A3000016841EA040358BF21EA040392024FF01F
:100A400001020360DEF8001041EA040358BF21EA06
:100A50000403CEF8003041E70321554601FA0AF7B6
:100A6000029CF94372E700BF06B0BDE8F08F0000BA
:100A70000069084018BF0120704700000000000016
:100A8000426902EA0103914341EA034181617047EF
:100A9000002A08BF090481617047000000000000BF
:100AA0004CF63C00C2F200000068704700000000F5
:100AB00040F200004CF63C01C2F20000C2F200011C
:100AC00000780A68104408607047000000000000C9
:100AD00080B5032000F038FA01F092F944F2184191
:100AE00041F6F413C5F60201C9F204030A68096865
:100AF00001F00F01C2F30322595C9A5C01F01F015F
:100B000002F01F02D04040F20C02C2F2000220FAB2
:100B100001F1116040F20801C2F2000108600020FA
:100B200000F00AF800281CBF012080BD00F0CCF9BD
:100B3000002080BD0000000070B540F20006C2F247
:100B400000063178E1B1044640F20800C2F200002C
:100B50004FF47A72B2FBF1F10068B0FBF1F001F0F2
:100B600063FC0F2C4FF0010508D838B94FF0FF3067
:100B700000222146002500F0B7F97460284670BDB8
:100B8000012070BD000000002DE9F041044690F8FE
:100B9000A00001284FF0020008BFBDE8F081342317
:100BA0004FF0010884F8A08084F8A10002FB034004
:100BB000D1E900CED1E90267D1E90435C0E91235A7
:100BC000C0E91067C0E90ECED1E906CED1E90865CB
:100BD000D1E90A37C0E91837C0E91665C0E914CE73
:100BE0000B6B8366206801F0C7FC2068C0F8248086
:100BF000002084F8A18084F8A000BDE8F081000006
:100C0000002869D010B5044690F8A10028B900204A
:100C100084F8A000204600F063F8022084F8A100C8
:100C2000D4E9000CD4E90223816921F0704181618B
:100C300042EA0C012269194311438269114381611F
:100C40004FF600028168CFF2000211408160D4E9C2
:100C5000051343EA0141836819438160C16811406B
:100C6000C160D4E9071343EA0141C3681943C16075
:100C7000016911400161D4E9091343EA01410369A3
:100C800019430161416911404161D4E90B1242EA03
:100C9000014142691143416194F8351094F83620BE
:100CA000C36A03F07F43C362120494F8343042EA0B
:100CB0000121C26A19441143C162416B41F006012E
:100CC0004163816941F0010181610020C4F8A40001
:100CD000012184F8A11010BD012070470000000020
:100CE0002DE9F04186B041F200010068C5F2000133
:100CF000884203D006B0BDE8F08100BF44F2405006
:100D000040F60044C5F60200C5F6020401AD002716
:100D100041684FF0010841F008014160416801F06D
:100D2000080101910199016841F004010160016825
:100D300001F0040101910199016841F00101016094
:100D4000016801F0010101910199016841F002017E
:100D50000160016801F0020101910199016841F00F
:100D600010010160016801F0100101910199016811
:100D700041F008010160016801F008010191019949
:100D8000016841F0080101600068294600F0080090
:100D900001900198022002900E200590C120019040
:100DA000A4F580600397CDF81080FFF76DFDEA2071
:100DB0000190A4F540602946FFF766FD4FF47840A6
:100DC000019004F580602946FFF75EFDA4F50066FA
:100DD0004FF47060019030462946FFF755FD4FF4FF
:100DE0008960019020462946FFF74EFD03200190BF
:100DF0000920059030462946FFF746FD4FF4004193
:100E0000002220464FF40046FFF742FE20462946C6
:100E1000CDE90168CDE90377FFF736FD06B0BDE8FF
:100E2000F081000000000000B0B502784EF69C5C36
:100E3000CEF2000C43784CF8043CFAB14368CCF88D
:100E40000030037BC17A90F80AE0457B447A42EA9D
:100E50000372837B42EA0161C27B41EACE41007AA0
:100E600041EA854141EA434141EA024141EA042124
:100E700041EA4000CCF80400B0BD00BF0020CCF82F
:100E80000000CCF80400B0BD4EF62450CEF20000B5
:100E9000BFF35F8F016821F4803101600021016799
:100EA00070470000000000004EF6245140F00100A1
:100EB000CEF200010867086840F480300860BFF394
:100EC0004F8FBFF36F8F704781B044F25450C5F617
:100ED0000200016841F002010160006800F00200B8
:100EE0000090009801B0704770B54EF60C5C4FF062
:100EF000FF36CEF2000C00F16045DCF80030C3F3A1
:100F0000022E8EF00703042B28BF0423BEF1030436
:100F100006FA03F321EA030100F00F0338BF0024AF
:100F2000043BB0F1FF3F634406FA04F003F10C0305
:100F300001FA04F1C8BF05F5644322EA0000084342
:100F40000001187070BD00004EF60C514FF6FF0303
:100F5000CEF200010A681A4060F30A2242F0806073
:100F600040F0FD7008607047B0B544F60C05C5F65A
:100F7000020529684907296806D401F00701081A03
:100F800018BF0120B0BD00BF21F007010843286051
:100F9000FFF786FD044600BF55F8080C800407D40F
:100FA000FFF77EFD001BB0F57A7FF5D90120B0BDBB
:100FB0000020B0BD000000002DE9F0470446C078D5
:100FC00044F22C480007C5F602083FD5A06E4FEA50
:100FD000305103290CD8DFE801F00311293200BF9A
:100FE000D8F8001041F40031C8F8001027E000BF25
:100FF00001266078C0070AD02CE000BF201D022126
:1010000001F00AFC0646C8B16078C00722D1354617
:1010100037466078800735D43E46607840074AD42A
:101020003746E078800740F119815DE004F1240043
:10103000022101F085FC06460028E5D1A06ED8F813
:10104000241021F440110843C8F8240000266078D9
:10105000C007DCD0606D042800F28A803546DFE8E6
:1010600000F0038F950A0A00D8F80000354640F4D6
:101070000030C8F80000002D2F4600F09180607805
:101080008007C9D5A06D4FEAB010052800F29880FE
:10109000DFE800F0049EA40A0A0A00BFD8F80000A6
:1010A00040F40030C8F80000002D2E4600F0A0806B
:1010B00060784007B4D5E06D4FEA7020052800F253
:1010C000A780DFE800F003ADB3090909D8F80000F4
:1010D00040F40030C8F80000002D2F4600F0B0802A
:1010E000E078800740F1BA80A06C4FEA3010032806
:1010F0001AD8DFE800F003212B0300BF2E466DB3A2
:101100006078C00600F1AF8037466078800600F155
:10111000C3803E466078400600F1D2803746607852
:10112000000640F19281E1E0012501266078C006C9
:1011300000F19980E8E700BFD8F8000040F40030E3
:10114000C8F80000002D2E46DAD107E0201D02214C
:1011500001F062FB0546002D2E46D1D1D8F82000C3
:10116000A16C20F0300000250843C8F8200075E08D
:1011700001250127607880073FF584AF4CE700BF69
:10118000201D002101F048FB05E000BF04F1240010
:10119000002101F0D5FB0546002D2F467FF46FAFEF
:1011A000D8F82400616D20F0070000250843C8F836
:1011B00024003746607880077FF52EAF62E700BFD6
:1011C00001250126607840073FF575AF28E700BF8D
:1011D000201D002101F020FB05E000BF04F12400E8
:1011E000002101F0ADFB0546002D2E467FF460AFD7
:1011F000D8F82400A16D20F4E07000250843C8F859
:1012000024003E46607840077FF50AAF53E700BFF1
:1012100001250127E07880073FF566AF1EE000BF9B
:10122000201D002101F0F8FA05E000BF04F12400C0
:10123000002101F085FB0546002D2F467FF450AFBD
:10124000D8F82400E16D20F4606000250843C8F858
:1012500024003746E07880073FF546AF3E46607889
:10126000C0067FF551AF206E4FEA3030042800F2FF
:101270006D80DFE800F0037379090900D8F80000F9
:1012800040F40030C8F80000002D2F4600F07680B2
:10129000607880067FF53DAF606E4FEA30400528EC
:1012A00000F27C80DFE800F004828C04040400BFBC
:1012B000002D2E4600F08E80607840067FF52EAF20
:1012C000D4F8AC004FEA3070062800F29380DFE8D3
:1012D00000F00599A3050505050000BF002D2F4668
:1012E00000F0A4806078000640F1AF80606F58B1D4
:1012F000B0F1005F10D0B0F1805F1FD1D8F80000CE
:1013000040F40030C8F800002E466DB1E078C00708
:1013100000F0CF809DE000BF201D012101F07CFA8C
:101320000546002D2E46F1D1D8F82400616F20F03B
:10133000405000250843C8F8240086E00125012616
:10134000E078C00740F08580B3E000BF01250127A9
:10135000607880063FF5A0AFDBE600BF201D0021CE
:1013600001F05AFA05E000BF04F12400002101F069
:10137000E7FA0546002D2F467FF48AAFD8F82400FF
:10138000216E20F4E04000250843C8F824003746C9
:10139000607880067FF5BDAE7EE700BF012501269F
:1013A000607840063FF58CAFB8E600BF201D0121F4
:1013B00001F032FA0546002D2E467FF47DAF09E09C
:1013C00004F12400012101F0BBFA0546002D2E4650
:1013D0007FF472AFD8F82400616E20F4E02000257D
:1013E0000843C8F824003E46607840067FF596AE74
:1013F00066E700BF01250127607800063FF576AF5C
:1014000023E000BF201D012101F006FA0546002D52
:101410002F467FF467AF09E004F12400012101F0B9
:101420008FFA0546002D2F467FF45CAFD8F82C00CC
:10143000D4F8AC1020F0E04000250843C8F82C0098
:101440003746607800063FF551AF3E46E078C0076A
:101450002FD0606C032809D8DFE800F002101A02D0
:10146000A946EDB1A07840062AD426E001254FF028
:101470000109A078400620D522E000BFD8F800007E
:1014800040F40030C8F80000002DA946EAD107E07A
:10149000201D022101F0C0F90546002DA946E1D129
:1014A000D8F82000616C20F0030000250843C8F83C
:1014B0002000B146A078400602D44F4619E000BF94
:1014C000D8F8D40340F48070C8F8D403FFF7E8FAE2
:1014D000064600BFD8F8D403C00507D4FFF7E0FAEA
:1014E000801B6428F6D90325032702E0002D2F4630
:1014F00068D02078C00700F0BB80D4F880004FEAA5
:10150000F000052800F29080DFE800F004949E04CB
:10151000040400BF002D2E4600F0A0802078800734
:1015200000F1AB8037462078400700F1BB803E4693
:101530002078800600F1CC80B1462078400600F18A
:10154000DF804F462078000600F1F280B94620681F
:10155000010740F10581D4F88810B1F5805F0BD107
:1015600004F12400022101F0EBF9002818BF4FF02C
:1015700001092068D4F88810D8F8282022F44052B5
:101580001143C8F82810C10640F1ED80D4F89C1032
:10159000B1F5807F0BD104F12400022101F0D0F9D4
:1015A000002818BF4FF001092068D4F89C10D8F823
:1015B0002C2022F440721143C8F82C10000340F193
:1015C000F980D2E0D8F84410D4F8B000414011F4CA
:1015D000407F11D0D8F84410D8F8442042F480322B
:1015E000C8F84420D8F8442021F4407122F4803215
:1015F000C8F84420C8F84410B0F5807F40F0AE82AF
:10160000FFF74EFA064641F2883A0325032700BF4A
:10161000D8F84400800700F19F82FFF741FA801B51
:101620005045F5D965E700BF0125012620788007E0
:1016300023D477E7201D012101F0EEF80546002DA7
:101640002E467FF46BAF09E004F12400012101F084
:1016500077F90546002D2E467FF460AFD8F82800B4
:10166000D4F8801020F0380000250843C8F828007E
:101670003E46207880077FF555AFE06F052800F2E1
:101680008F81DFE810F0070095019F010700070038
:10169000070000BF002D2F4600F09E8120784007F4
:1016A0007FF545AFD4F89800052800F2A581DFE862
:1016B00010F00700AB01B50107000700070000BFED
:1016C000002D2E4600F0B481207880067FF534AFDF
:1016D000D4F894004FEA3070052800F2B981DFE8B1
:1016E00010F00700BF01C90107000700070000BF95
:1016F000002DA94600F0C881207840067FF521AF73
:10170000D4F8A0004FEAB020052800F2CD81DFE830
:1017100010F00700D301DD0107000700070000BF3C
:10172000002D2F4600F0DC81207800067FF50EAFFB
:10173000D4F8A4004FEA7030052800F2E181DFE818
:1017400010F00700E701F10107000700070000BFE4
:10175000002DA94600F0F081206801073FF5FBAE9F
:10176000C1063FF513AF000324D5D4F8A800B0F5A7
:10177000003F0FD0B0F5803F06D0B8BB201D002140
:1017800001F04AF805E000BF04F12400022101F055
:10179000D7F805462E461DB1A07840073FD50DE08D
:1017A000D8F82C00D4F8A81020F4403000250843C5
:1017B000C8F82C004E46A078400730D5D4F88C00ED
:1017C000B0F5401F0BD0B0F5001F15D0B0F5801F4D
:1017D00070D1D8F8000040F40030C8F800002F465F
:1017E0009DB1A078C0071ED169E000BF0126012588
:1017F000A0784007E2D412E004F12400012101F0B6
:101800009FF80546002D2F46EBD1D8F82800D4F8D4
:101810008C1020F4401000250843C8F828003746F3
:10182000A078C0074BD0E06CB0F5803F2AD0D8BB81
:10183000D8F8000040F40030C8F800002E464DB340
:10184000206881003FD4810348D4C1025ED4810264
:1018500066D401056FD4410078D4B0F1FF3F40F366
:101860008680000208D5D8F82800D4F8901020F41B
:1018700040000843C8F82800002E18BF0126304653
:10188000BDE8F087201D022100F0C6FF0546002DAF
:101890002E46D5D1D8F82000E16C20F48030002508
:1018A0000843C8F820000AE00126012520688100CD
:1018B000C9D508E001270125A078C007B3D13E466D
:1018C00020688100BFD504F12400022101F038F81E
:1018D000002818BF012620688103B6D5D4F88410EB
:1018E0006FF0010202EB3122022A0AD34FEA3122C1
:1018F0003AB1012A07D1D8F8002042F40032C8F8E2
:101900000020002D40D00126C102A0D5D8F8241017
:10191000A26F21F000411143C8F82410810298D52C
:10192000D8F82410E26E21F080711143C8F8241019
:1019300001057FF590AFD8F82C10226F21F00061DF
:101940001143C8F82C1041007FF587AF58F81C1CD4
:1019500021F4004148F81C1CD4F8B41058F81C2C91
:10196000114348F81C1CB0F1FF3F3FF77AAFD8F89D
:101970002010226D21F040511143C8F820100002C0
:101980007FF57AAF6FE700BFD8F8282022F44072C5
:101990001143C8F82810C1027FF559AFB6E700BF60
:1019A00001250127207840073FF57CAEBFE500BF49
:1019B000201D012100F030FF0546002D2F467FF449
:1019C0006DAE09E004F12400012100F0B9FF0546E5
:1019D000002D2F467FF462AED8F82800E16F20F08A
:1019E000070000250843C8F828003746207840073C
:1019F0007FF59DAD56E600BF0125012620788006C3
:101A00003FF566AE98E500BF201D012100F004FF00
:101A10000546002D2E467FF457AE09E004F1240060
:101A2000012100F08DFF0546002D2E467FF44CAEBF
:101A3000D8F82C00D4F8981020F0070000250843AF
:101A4000C8F82C003E46207880067FF575AD3FE64D
:101A50004FF001090125207840063FF551AE70E5B1
:101A6000201D002100F0D8FE0546002DA9467FF478
:101A700043AE09E004F12400022100F061FF0546B5
:101A8000002DA9467FF438AED8F82800D4F8941079
:101A900020F0E04000250843C8F82800B14620782F
:101AA00040067FF54EAD2BE6012701252078000684
:101AB0003FF53EAE4AE500BF201D002100F0ACFE20
:101AC0000546002D2F467FF42FAE09E004F12400D7
:101AD000022100F035FF0546002D2F467FF424AE8D
:101AE000D8F82C00D4F8A01020F4E05000250843CA
:101AF000C8F82C004F46207800067FF527AD17E682
:101B00004FF001090125206801077FF529AE22E584
:101B1000201D002100F080FE0546002DA9467FF41F
:101B20001BAE09E004F12400022100F009FF054684
:101B3000002DA9467FF410AED8F82C00D4F8A410DC
:101B400020F4604000250843C8F82C00B9462068FE
:101B500001077FF505AEFEE4D4F8B0004FF6CF7371
:101B600058F81C2CC0F2FF0300F4407122F47C52A0
:101B700003EA10136FF31F30B1F5407F08BF1A431B
:101B8000002548F81C2CD8F844100843C8F8440035
:101B9000FFF793BC000000002DE9F04381B000285E
:101BA00000F02A8142F200080446C5F20028894666
:101BB000D8F8000000F00F0088420ED2D8F80000DC
:101BC00020F00F0040EA0900C8F80000D8F8000033
:101BD00000F00F00484540F00F81206844F218479C
:101BE0004107C5F602070AD521693A6802F070027A
:101BF000914204D93A6822F070021143396001071A
:101C00000AD561697A6802F07002914204D97A6853
:101C100022F0700211437960C1060AD5A1697A6881
:101C200002F4E062914204D97A6822F4E06211433E
:101C3000796081060AD5E169BA6802F070029142C2
:101C400004D9BA6822F070021143B96010F00201A1
:101C50000AD0E2683B6803F00F039A4204D93B685C
:101C600023F00F031A433A60C20746D0386820F4C5
:101C70007061D4E90102012841EA0201396009D00A
:101C800003280DD0022811D157F8181C890340F100
:101C9000B38010E057F8181CC90540F1AD800AE088
:101CA00057F8181C890140F1A78004E057F8181C68
:101CB000490740F1A18057F8081C21F007010843AB
:101CC00047F8080CFEF7ECFE064641F2883500BFE7
:101CD00057F8080C616800F03800B0EBC10F09D06C
:101CE000FEF7DEFE801BA842F2D9032001B0BDE85A
:101CF000F08300BF206800F0020151B1E1683A684A
:101D000002F00F02914204D23A6822F00F0211430E
:101D10003960D8F8001001F00F0149450DD9D8F805
:101D2000001021F00F0141EA0901C8F80010D8F8AD
:101D3000001001F00F0149455ED141070AD5216924
:101D40003A6802F07002914204D23A6822F07002BE
:101D50001143396001070AD561697A6802F070029F
:101D6000914204D27A6822F0700211437960C10670
:101D70000AD5A1697A6802F4E062914204D27A68D5
:101D800022F4E0621143796080060AD5E069B968FF
:101D900001F07001884204D2B96821F07001084353
:101DA000B86000F02DF8396841F6F4133A68C9F2CA
:101DB0000403C1F3032102F00F02595C9A5C01F0A5
:101DC0001F0120FA01F102F01F0040F20C0221FA7B
:101DD00000F0C2F20002106040F2040040F208027B
:101DE000C2F20000C2F200020068116001B0BDE85A
:101DF000F043FEF7A1BE00BF012001B0BDE8F083B3
:101E000044F20041C5F602010869C0F3C20003288C
:101E100010D002282CD088BB0868800649F2000048
:101E2000C0F2D03058BF70470968C1F3C101C84043
:101E3000704700BF8A6A886AC0F3051CC86ABCF193
:101E4000000F4B6B20D0C3F3CC0300F001005843CC
:101E500002F00302022A00EE100AB8EE400A15D082
:101E6000C2B90868800619D49FED281A23E000BF84
:101E700047F64000C0F27D10704700BF40F60010EA
:101E8000C0F23D00704700BF002070479FED1E1A52
:101E900011E000BF9FED1B1A0DE000BF086849F27A
:101EA0000002C0F2D032C0F3C10022FA00F001EE0D
:101EB000100AB8EE411A086B9FED153A6FF35F20D8
:101EC00002EE100A086BC0F34620B8EE422A013039
:101ED00000EE032A00EE10CAB7EE003AB8EE400A50
:101EE00081EE000A32EE031A20EE010A01EE100A1A
:101EF000B8EE411A80EE010ABCEEC00A10EE100ADC
:101F0000704700BF0024744A20BCBE4B0024744CB0
:101F10000000003900000000F0B581B0002800F09A
:101F2000B1800446007844F20046C007C5F60206B8
:101F300012D0306900F03801B06A102905D0182994
:101F40002ED100F0030002282AD13068800303D587
:101F50006068002800F09680207880073BD53069C3
:101F600010F03801B06A29D0182908BF5FEA8070E4
:101F700024D0E0683168002800F0F68021F01901D3
:101F800008433060FEF78CFD054600BF306840070F
:101F90001AD4FEF785FD401B0228F7D989E100BF5E
:101FA0006068B0F5A02F80F2C180002800F0408169
:101FB000B0F5803F00F0608162E100BF306840070B
:101FC00002D5E06800285DD07068216920F0FE40ED
:101FD00040EA016070602078C00618D5306900F0D2
:101FE0003801B06A082905D0182977D100F003001C
:101FF000012873D13068C00502D5E069802841D13D
:10200000F068216A20F07C5040EA0160F06020789E
:1020100000073BD4207880064CD42078400771D448
:10202000656A65B3306900F03800182840F0DE803A
:10203000012DB16A306B25D001F00302A36A9A42E8
:1020400020D1C1F30511E26A91421BD10146226BF6
:102050006FF35F21013A914214D1C0F34622616BC4
:1020600001398A420ED1C0F30642A16B01398A427E
:1020700008D1C0F30660E16B0139884202D100202B
:102080006DE100BF012001B0F0BD00BF6069002814
:10209000706F59D040F001007067FEF701FD0546F2
:1020A000706F8007B6D4FEF7FBFC401B0228F7D9FF
:1020B000FFE000BFA0690028306873D040F4805072
:1020C0003060FEF7EDFC054630688004A5D4FEF7CD
:1020D000E7FC401B0228F7D9EBE000BFE0690028CD
:1020E000306871D040F080003060FEF7D9FC0546C2
:1020F0003068C0053FF584AFFEF7D2FC401B0228D4
:10210000F6D9D6E0D6F8000440F48070C6F8000492
:10211000FEF7C6FC054600BFD6F80004C00535D45E
:10212000FEF7BEFC401B6428F6D9C2E000F09C809C
:10213000B0F5A81F40F0A480306840F480203060E3
:10214000306840F4801096E020F001007067FEF7E0
:10215000A7FC0546706F80077FF55CAFFEF7A0FC1B
:10216000401B0228F6D9A4E021F001003060FEF700
:1021700097FC0546306840077FF52DAFFEF790FCD1
:10218000401B02284FF00300F4D9E8E0A0680428BF
:1021900000F39280002800F09B80012800F0BE80B0
:1021A000C0E000BF20F480503060FEF779FC0546A7
:1021B000306880047FF531AFFEF772FC401B0228C7
:1021C0004FF00300F4D9CAE020F080003060FEF741
:1021D00067FC05463068C0057FF519AFFEF760FC67
:1021E000401B02284FF00300F4D9B8E0306820F01B
:1021F00080703060FEF754FC022D05460CD100BF04
:102200003068800140F1AE80FEF74AFC401B022896
:102210004FF00300F4D9A2E0306880017FF52FAFC2
:10222000FEF73EFC401B02284FF00300F4D996E075
:10223000306820F480303060306820F480103060E6
:10224000306820F480203060FEF72AFC054600BF8D
:10225000306880037FF580AEFEF722FC401B6428C7
:102260004FF00300F4D97AE0306840F48020306009
:10227000306820F480103060306840F480300AE02C
:10228000306820F480303060306820F48020306086
:10229000306820F480103060FEF702FC054600BF75
:1022A000306880033FF558AEFEF7FAFB401B642808
:1022B000F6D9032001B0F0BD052827D0852831D1FB
:1022C000306F40F004003067306F40F0800024E051
:1022D000306F20F001003067306F20F080003067F1
:1022E000306F20F004003067FEF7DAFB054641F25C
:1022F0008837306F80077FF593AEFEF7D1FB401B28
:10230000B8424FF00300F4D929E000BF306F40F02D
:1023100004003067306F20F080003067306F40F08D
:1023200001000AE0306F20F001003067306F20F0CC
:1023300004003067306F20F080003067FEF7B0FB9C
:10234000054641F2883700BF306F80073FF568AE21
:10235000FEF7A6FB401BB8424FF00300F4D901B0D2
:10236000F0BD00BF04F12807B06A40F2F3318843A2
:102370008ECF0843591E40EA02104FF47E426FF39D
:102380005F21B06202EB47204FF4FE0280B2E36BA4
:102390000844A16B02EB01414FF0FE4201F4FE0143
:1023A00002EB0362084402F0FE4108443063F06A25
:1023B0004FF6F87120F00100F062706BA26C884358
:1023C00040EAC2007063F06A216C20F00C00084300
:1023D000F062F06A616C20F002000843F062F06A7B
:1023E00040F48030F062F06A40F40030F062F06A4D
:1023F00040F48020F062F06A40F00100F062306842
:1024000040F080703060FEF74BFB0446306880017E
:102410003FF535AEFEF744FB001B02284FF00300EA
:10242000F4D99CE700000000411E0020B0EB116FC2
:1024300002D00120704700BF4EF21002F023CEF20E
:10244000000251604EF62351CEF200010B700721BD
:102450009060116070470000FEE70000000000007F
:1024600080B586B044F240510020C5F60201CDE9A6
:1024700004000A6842F004020A60096801F00401DD
:10248000009100994FF40051CDE901100120039013
:1024900040F6000001A9C5F60200FEF7F5F906B006
:1024A00080BD00000000000070B541F2000C022564
:1024B000C5F2002C049EDCF800E02EF00104CCF8FC
:1024C00000400024CCF80040CCF81C504FF4487574
:1024D00001FB0500CCF81040C2F54871CCF8401063
:1024E0004FF01051CCF80C6001EB4000CCF83C00F0
:1024F00043EA0240CCF84400DCF8000040F0010060
:10250000CCF80000DCF80000C0070CD0DCF80000BC
:10251000C0071CBFDCF800005FEAC07003D0DCF825
:102520000000C007EED170BD70B586B044F24050D7
:102530000025C5F60200059540F60004002201685A
:10254000C5F6020441F0040101600068022100F0B8
:1025500004000090009820460226FEF799FA012018
:1025600001A9CDE90205204601960495FEF78CF9F4
:1025700006B070BD00000000F0B500EBC2120027ED
:10258000D1E900CED1E90234C568D2F8886006F4FA
:102590007046C2F88860C668C0F6FF773D40C6F353
:1025A0000B46664405EB0E4501363543C2F88850AC
:1025B000C568D2F88C606FF3DF2506F47046C2F868
:1025C0008C602C44C0686FF3DF201844013040EA6F
:1025D0000440C2F88C00D2F8940020F00700C2F842
:1025E00094000B69C2F8943091F83200072B91F8EF
:1025F00031404FEA00408D69D2F89C604FF00006F0
:10260000C2F89C6040EA042091F8307040EA05600E
:1026100040F207743844C2F89C00D2F8980020F0C9
:10262000FF00C2F898004869C2F89800D2F8A000EC
:1026300020EA0400C2F8A000D1E9070440EA04003F
:10264000C2F8A00002F18400D2F8AC40C2F8AC603D
:102650004C6AC2F8AC4007D841F64432C9F20402D1
:1026600052F8232001E000BF0122C36AAEEB0C0741
:1026700003F0E023C3628B6AC96A53437A4307328B
:1026800042EA0342C262026B40F2FF739A43026362
:102690000163016841F001010160F0BD000000002C
:1026A00070B58EB001AC34212046FDF7C1FF44F275
:1026B000345040F2FC65C5F60200C2F20005002667
:1026C000016841F010010160006800F01000009006
:1026D00041F200000099C5F2000028605020E86136
:1026E000282028624FF45C7068624FF40270A86280
:1026F0004FF48760E86240F21E202863284685F880
:102700003660C5E90166C5E90366C5E90566AE86BA
:10271000FEF776FA4FF448704FF4F071CDE90206F7
:1027200004910022CDE90B0102200590FF200690C4
:102730004FF480600890052009904FF010500A90E7
:102740002846214601960796ADF834608DF836602C
:10275000FEF71AFA40F600404FF40041C5F60200B9
:102760000122FEF795F90EB070BD000000000000D8
:10277000FEE7000000000000FEE70000000000008F
:10278000B0B586B044F240510020C5F60201059074
:1027900041F2000401AD0A68C5F6020442F01002DD
:1027A0000A600A6802F010020092009A0A6842F079
:1027B00010020A60096801F010010091009902906E
:1027C0000221039104901020019020462946FEF733
:1027D0005BF80820019020462946FEF755F84FF493
:1027E0007A6001F0FDFF08212046FEF741F901283B
:1027F0000BD010212046FEF73BF9012805D040F20E
:1028000048200121C2F20000017006B0B0BD0000F6
:102810007047000000000000F0B581B044F22C4782
:10282000C5F6020757F8042C02F00302032A03D16D
:10283000012001B0F0BD00BF054657F82C0C0C4636
:1028400020F0806047F82C0CFEF72AF9064600BFFE
:1028500057F82C0C000105D5FEF722F9801B022841
:10286000F6D964E057F8040CEE6895E80E0020F401
:102870007C30012C40EA0130A2F101016FF35F21AD
:102880004FF47E4202EB432247F8040C92B24FF021
:10289000FE4302EB01004FF4FE012A6901EB064101
:1028A00001F4FE0103EB0262084402F0FE41084419
:1028B000F8603868696920F0C00040EA01003860BB
:1028C0003868A96920F0200040EA010038603868C3
:1028D0004FF6F87120F0100038603869EA6920EA94
:1028E00001004FF4001140EAC2003861386808BFA7
:1028F0004FF4801140F01000002C386008BF4FF4F6
:10290000002138680843386057F82C0C40F080608C
:1029100047F82C0CFEF7C4F8044600BF57F82C0CFF
:10292000000107D4FEF7BCF8001B0328F6D30320F0
:1029300001B0F0BD002001B0F0BD000000000000BB
:10294000F0B581B044F22C47C5F6020757F8042CC5
:1029500002F00302032A03D1012001B0F0BD00BF41
:10296000054657F82C0C0C4620F0805047F82C0CEC
:10297000FEF796F8064600BF57F82C0C800005D5E8
:10298000FEF78EF8801B0228F6D964E057F8040C95
:10299000EE6895E80E0020F07C70012C40EA0150B2
:1029A000A2F101016FF35F214FF47E4202EB43225B
:1029B00047F8040C92B24FF0FE4302EB01004FF4D3
:1029C000FE012A6901EB064101F4FE0103EB0262FC
:1029D000084402F0FE41084478613868696920F4CF
:1029E000406040EA010038603868A96920F400704E
:1029F00040EA0100386038684FF6F87120F48070C2
:102A00003860B869EA6920EA01004FF0807140EA55
:102A1000C200B861386808BF4FF4000140F480700C
:102A2000002C386008BF4FF48001386808433860D4
:102A300057F82C0C40F0805047F82C0CFEF730F87B
:102A4000044600BF57F82C0C800007D4FEF728F886
:102A5000001B0328F6D3032001B0F0BD002001B015
:102A6000F0BD000000000000704700000000000002
:102A700080B5FEF71DF80120BDE8804036F010BF9C
:102A8000B0B5CAB037A844F6180408304421C5F6DA
:102A90000204FDF7CDFD01A8B8210025CDE935558B
:102AA000CDE93355CDE93155CDE92F55FDF7C0FDC1
:102AB0000220FEF759FA0095206840F4404020605B
:102AC000206800F440400090009800BF2068800417
:102AD0005FBF20685FEA804020685FEA804002D4E0
:102AE00020688004F2D54FF610400222CFF6FF7026
:102AF000215862F301012150012037904FF48030BA
:102B000038900520429070200024CDE9430208202F
:102B1000479037A8CDE94022CDE94522CDE9484488
:102B2000FFF7FAF920B1EFF3108072B6FEE700BFAD
:102B30003F202F9003204FF48061CDE930044020E6
:102B40003294CDE93300CDE935102FA80721FFF7E6
:102B500023F828B1EFF3108072B600BFFEE700BF84
:102B600019200A904FF4A5700B9002204FF40071C9
:102B7000CDE90C000A200E9000200F90CDE9101036
:102B80004FF00050019001A8FEF716FA20B1EFF3C4
:102B9000108072B6FEE700BF4AB0B0BD0000000072
:102BA00080B54EF6085C42F2000ECEF2000CC5F283
:102BB000002EDCF8801041F47001CCF88010DEF8B3
:102BC000001001F00F01022906D8DEF800100323DF
:102BD00063F30301CEF8001044F200414EF67F5239
:102BE000C5F60201CEF6F6220B6843F001030B6036
:102BF00000230B61086810400860DEF8000010F048
:102C00000C0F06D0DEF80000032262F30300CEF8BA
:102C1000000040F200208B61CB61C0F202200B6209
:102C200088620020C0F2FF10C86240F28020C0F22B
:102C3000011008634B638863CB6308644B640868C6
:102C400020F48020086044F200000B66C5F20020EA
:102C500043F2D20101604FF00060CCF800004FF069
:102C60001040CCF8000080BDB0B582B041F2000445
:102C70002021C5F60204002220460025FDF708FFAA
:102C8000ADF80050BDF80000032824D8BDF80000BE
:102C90000130ADF80000BDF8000004281BD2BDF8DB
:102CA00000000130ADF80000BDF8000003289FBF10
:102CB000BDF800000130ADF80000BDF8000098BF7D
:102CC000032808D8BDF800000130ADF80000BDF8B9
:102CD00000000428DAD3ADF80050BDF80000032846
:102CE00024D8BDF800000130ADF80000BDF80000A8
:102CF00004281BD2BDF800000130ADF80000BDF87B
:102D0000000003289FBFBDF800000130ADF80000AF
:102D1000BDF8000098BF032808D8BDF800000130B6
:102D2000ADF80000BDF800000428DAD30020ADF8AB
:102D30000000BDF80010032924D8BDF800100131AF
:102D4000ADF80010BDF8001004291BD2BDF800102A
:102D50000131ADF80010BDF8001003299FBFBDF888
:102D600000100131ADF80010BDF8001098BF032924
:102D700008D8BDF800100131ADF80010BDF8001002
:102D80000429DAD3ADF80000BDF80000032824D8E8
:102D9000BDF800000130ADF80000BDF800000428C7
:102DA0001BD2BDF800000130ADF80000BDF80000F6
:102DB00003289FBFBDF800000130ADF80000BDF84A
:102DC000000098BF032808D8BDF800000130ADF816
:102DD0000000BDF800000428DAD30020ADF80000A0
:102DE000BDF80010032924D8BDF800100131ADF85A
:102DF0000010BDF8001004291BD2BDF800100131ED
:102E0000ADF80010BDF8001003299FBFBDF80010F9
:102E10000131ADF80010BDF8001098BF032908D8A3
:102E2000BDF800100131ADF80010BDF80010042904
:102E3000DAD3ADF80000BDF80000032824D8BDF8AF
:102E400000000130ADF80000BDF8000004281BD2DE
:102E5000BDF800000130ADF80000BDF80000032807
:102E60009FBFBDF800000130ADF80000BDF80000C4
:102E700098BF032808D8BDF800000130ADF8000065
:102E8000BDF800000428DAD30020ADF80000BDF83A
:102E90000010032924D8BDF800100131ADF800104E
:102EA000BDF8001004291BD2BDF800100131ADF8A7
:102EB0000010BDF8001003299FBFBDF800100131BC
:102EC000ADF80010BDF8001098BF032908D8BDF870
:102ED00000100131ADF80010BDF800100429DAD35C
:102EE000ADF80000BDF80000032824D8BDF80000AC
:102EF0000130ADF80000BDF8000004281BD2BDF879
:102F000000000130ADF80000BDF8000003289FBFAD
:102F1000BDF800000130ADF80000BDF8000098BF1A
:102F2000032808D8BDF800000130ADF80000BDF856
:102F300000000428DAD30020ADF80000BDF800102E
:102F4000032924D8BDF800100131ADF80010BDF8F8
:102F5000001004291BD2BDF800100131ADF800109B
:102F6000BDF8001003299FBFBDF800100131ADF876
:102F70000010BDF8001098BF032908D8BDF8001054
:102F80000131ADF80010BDF800100429DAD3ADF816
:102F90000000BDF80000032824D8BDF8000001306F
:102FA000ADF80000BDF8000004281BD2BDF80000F9
:102FB0000130ADF80000BDF8000003289FBFBDF848
:102FC00000000130ADF80000BDF8000098BF0328F4
:102FD00008D8BDF800000130ADF80000BDF80000D1
:102FE0000428DAD30020ADF80000BDF80010032952
:102FF00024D8BDF800100131ADF80010BDF8001064
:1030000004291BD2BDF800100131ADF80010BDF845
:10301000001003299FBFBDF800100131ADF800106A
:10302000BDF8001098BF032908D8BDF80010013181
:10303000ADF80010BDF800100429DAD3ADF8000097
:10304000BDF80000032824D8BDF800000130ADF819
:103050000000BDF8000004281BD2BDF800000130BC
:10306000ADF80000BDF8000003289FBFBDF80000C8
:103070000130ADF80000BDF8000098BF032808D863
:10308000BDF800000130ADF80000BDF800000428D4
:10309000DAD30020ADF80000BDF80010032924D8D1
:1030A000BDF800100131ADF80010BDF80010042982
:1030B0001BD2BDF800100131ADF80010BDF80010B2
:1030C00003299FBFBDF800100131ADF80010BDF815
:1030D000001098BF032908D8BDF800100131ADF8E1
:1030E0000010BDF800100429DAD3ADF80000BDF8D7
:1030F0000000032824D8BDF800000130ADF800001E
:10310000BDF8000004281BD2BDF800000130ADF866
:103110000000BDF8000003289FBFBDF8000001308B
:10312000ADF80000BDF8000098BF032808D8BDF82E
:1031300000000130ADF80000BDF800000428DAD32B
:103140000020ADF80000BDF80010032924D8BDF818
:1031500000100131ADF80010BDF8001004291BD299
:10316000BDF800100131ADF80010BDF800100329C2
:103170009FBFBDF800100131ADF80010BDF8001080
:1031800098BF032908D8BDF800100131ADF8001030
:10319000BDF800100429DAD3ADF80000BDF8000036
:1031A000032824D8BDF800000130ADF80000BDF8B8
:1031B000000004281BD2BDF800000130ADF800006B
:1031C000BDF8000003289FBFBDF800000130ADF836
:1031D0000000BDF8000098BF032808D8BDF8000023
:1031E0000130ADF80000BDF800000428DAD300205B
:1031F000ADF80000BDF80010032924D8BDF8001078
:103200000131ADF80010BDF8001004291BD2BDF843
:1032100000100131ADF80010BDF8001003299FBF68
:10322000BDF800100131ADF80010BDF8001098BFD6
:10323000032908D8BDF800100131ADF80010BDF821
:1032400000100429DAD3ADF80000BDF8000003280F
:1032500024D8BDF800000130ADF80000BDF8000032
:1032600004281BD2BDF800000130ADF80000BDF805
:10327000000003289FBFBDF800000130ADF800003A
:10328000BDF8000098BF032808D8BDF80000013041
:10329000ADF80000BDF800000428DAD30020ADF836
:1032A0000000BDF80010032924D8BDF8001001313A
:1032B000ADF80010BDF8001004291BD2BDF80010B5
:1032C0000131ADF80010BDF8001003299FBFBDF813
:1032D00000100131ADF80010BDF8001098BF0329AF
:1032E00008D8BDF800100131ADF80010BDF800108D
:1032F0000429DAD3ADF80000BDF80000032824D873
:10330000BDF800000130ADF80000BDF80000042851
:103310001BD2BDF800000130ADF80000BDF8000080
:1033200003289FBFBDF800000130ADF80000BDF8D4
:10333000000098BF032808D8BDF800000130ADF8A0
:103340000000BDF800000428DAD340210022204606
:103350000025FDF79DFBADF80650BDF806000328DB
:1033600024D8BDF806000130ADF80600BDF806000F
:1033700004281BD2BDF806000130ADF80600BDF8E8
:10338000060003289FBFBDF806000130ADF8060017
:10339000BDF8060098BF032808D8BDF80600013024
:1033A000ADF80600BDF806000428DAD3ADF80650E3
:1033B000BDF80600032824D8BDF806000130ADF89A
:1033C0000600BDF8060004281BD2BDF80600013037
:1033D000ADF80600BDF8060003289FBFBDF8060043
:1033E0000130ADF80600BDF8060098BF032808D8E4
:1033F000BDF806000130ADF80600BDF8060004284F
:10340000DAD30020ADF80600BDF80610032924D851
:10341000BDF806100131ADF80610BDF806100429FC
:103420001BD2BDF806100131ADF80610BDF806102C
:1034300003299FBFBDF806100131ADF80610BDF895
:10344000061098BF032908D8BDF806100131ADF861
:103450000610BDF806100429DAD3ADF80600BDF851
:103460000600032824D8BDF806000130ADF8060098
:10347000BDF8060004281BD2BDF806000130ADF8E7
:103480000600BDF8060003289FBFBDF80600013006
:10349000ADF80600BDF8060098BF032808D8BDF8AF
:1034A00006000130ADF80600BDF806000428DAD3A6
:1034B0000020ADF80600BDF80610032924D8BDF899
:1034C00006100131ADF80610BDF8061004291BD214
:1034D000BDF806100131ADF80610BDF8061003293D
:1034E0009FBFBDF806100131ADF80610BDF80610FB
:1034F00098BF032908D8BDF806100131ADF80610B1
:10350000BDF806100429DAD3ADF80600BDF80600B0
:10351000032824D8BDF806000130ADF80600BDF838
:10352000060004281BD2BDF806000130ADF80600E5
:10353000BDF8060003289FBFBDF806000130ADF8B6
:103540000600BDF8060098BF032808D8BDF806009D
:103550000130ADF80600BDF806000428DAD30020DB
:10356000ADF80600BDF80610032924D8BDF80610F2
:103570000131ADF80610BDF8061004291BD2BDF8C4
:1035800006100131ADF80610BDF8061003299FBFE3
:10359000BDF806100131ADF80610BDF8061098BF51
:1035A000032908D8BDF806100131ADF80610BDF8A2
:1035B00006100429DAD3ADF80600BDF8060003288A
:1035C00024D8BDF806000130ADF80600BDF80600AD
:1035D00004281BD2BDF806000130ADF80600BDF886
:1035E000060003289FBFBDF806000130ADF80600B5
:1035F000BDF8060098BF032808D8BDF806000130C2
:10360000ADF80600BDF806000428DAD30020ADF8B6
:103610000600BDF80610032924D8BDF806100131B4
:10362000ADF80610BDF8061004291BD2BDF806102F
:103630000131ADF80610BDF8061003299FBFBDF893
:1036400006100131ADF80610BDF8061098BF032929
:1036500008D8BDF806100131ADF80610BDF8061007
:103660000429DAD3ADF80600BDF80600032824D8F3
:10367000BDF806000130ADF80600BDF806000428CC
:103680001BD2BDF806000130ADF80600BDF80600FB
:1036900003289FBFBDF806000130ADF80600BDF855
:1036A000060098BF032808D8BDF806000130ADF821
:1036B0000600BDF806000428DAD30020ADF80600A5
:1036C000BDF80610032924D8BDF806100131ADF865
:1036D0000610BDF8061004291BD2BDF806100131F2
:1036E000ADF80610BDF8061003299FBFBDF80610FF
:1036F0000131ADF80610BDF8061098BF032908D8AF
:10370000BDF806100131ADF80610BDF80610042909
:10371000DAD3ADF80600BDF80600032824D8BDF8BA
:1037200006000130ADF80600BDF8060004281BD2E3
:10373000BDF806000130ADF80600BDF8060003280C
:103740009FBFBDF806000130ADF80600BDF80600C9
:1037500098BF032808D8BDF806000130ADF8060070
:10376000BDF806000428DAD30020ADF80600BDF845
:103770000610032924D8BDF806100131ADF8061053
:10378000BDF8061004291BD2BDF806100131ADF8B2
:103790000610BDF8061003299FBFBDF806100131C1
:1037A000ADF80610BDF8061098BF032908D8BDF87B
:1037B00006100131ADF80610BDF806100429DAD361
:1037C000ADF80600BDF80600032824D8BDF80600B1
:1037D0000130ADF80600BDF8060004281BD2BDF884
:1037E00006000130ADF80600BDF8060003289FBFB3
:1037F000BDF806000130ADF80600BDF8060098BF20
:10380000032808D8BDF806000130ADF80600BDF861
:1038100006000428DAD30020ADF80600BDF8061033
:10382000032924D8BDF806100131ADF80610BDF803
:10383000061004291BD2BDF806100131ADF80610A0
:10384000BDF8061003299FBFBDF806100131ADF881
:103850000610BDF8061098BF032908D8BDF8061059
:103860000131ADF80610BDF806100429DAD3ADF821
:103870000600BDF80600032824D8BDF80600013074
:10388000ADF80600BDF8060004281BD2BDF80600FE
:103890000130ADF80600BDF8060003289FBFBDF853
:1038A00006000130ADF80600BDF8060098BF0328F9
:1038B00008D8BDF806000130ADF80600BDF80600D6
:1038C0000428DAD30020ADF80600BDF8061003295D
:1038D00024D8BDF806100131ADF80610BDF8061069
:1038E00004291BD2BDF806100131ADF80610BDF851
:1038F000061003299FBFBDF806100131ADF8061070
:10390000BDF8061098BF032908D8BDF8061001318C
:10391000ADF80610BDF806100429DAD3ADF806009C
:10392000BDF80600032824D8BDF806000130ADF824
:103930000600BDF8060004281BD2BDF806000130C1
:10394000ADF80600BDF8060003289FBFBDF80600CD
:103950000130ADF80600BDF8060098BF032808D86E
:10396000BDF806000130ADF80600BDF806000428D9
:10397000DAD30020ADF80600BDF80610032924D8DC
:10398000BDF806100131ADF80610BDF80610042987
:103990001BD2BDF806100131ADF80610BDF80610B7
:1039A00003299FBFBDF806100131ADF80610BDF820
:1039B000061098BF032908D8BDF806100131ADF8EC
:1039C0000610BDF806100429DAD3ADF80600BDF8DC
:1039D0000600032824D8BDF806000130ADF8060023
:1039E000BDF8060004281BD2BDF806000130ADF872
:1039F0000600BDF8060003289FBFBDF80600013091
:103A0000ADF80600BDF8060098BF032808D8BDF839
:103A100006000130ADF80600BDF806000428DAD330
:103A2000202101222046FDF733F80020ADF80400E4
:103A3000BDF80410032924D8BDF804100131ADF8F5
:103A40000410BDF8041004291BD2BDF80410013184
:103A5000ADF80410BDF8041003299FBFBDF8041091
:103A60000131ADF80410BDF8041098BF032908D83F
:103A7000BDF804100131ADF80410BDF8041004299C
:103A8000DAD3ADF80400BDF80400032824D8BDF84B
:103A900004000130ADF80400BDF8040004281BD276
:103AA000BDF804000130ADF80400BDF8040003289F
:103AB0009FBFBDF804000130ADF80400BDF804005C
:103AC00098BF032808D8BDF804000130ADF8040001
:103AD000BDF804000428DAD30020ADF80400BDF8D6
:103AE0000410032924D8BDF804100131ADF80410E6
:103AF000BDF8041004291BD2BDF804100131ADF843
:103B00000410BDF8041003299FBFBDF80410013153
:103B1000ADF80410BDF8041098BF032908D8BDF80B
:103B200004100131ADF80410BDF804100429DAD3F3
:103B3000ADF80400BDF80400032824D8BDF8040043
:103B40000130ADF80400BDF8040004281BD2BDF814
:103B500004000130ADF80400BDF8040003289FBF45
:103B6000BDF804000130ADF80400BDF8040098BFB2
:103B7000032808D8BDF804000130ADF80400BDF8F2
:103B800004000428DAD30020ADF80400BDF80410C6
:103B9000032924D8BDF804100131ADF80410BDF894
:103BA000041004291BD2BDF804100131ADF8041033
:103BB000BDF8041003299FBFBDF804100131ADF812
:103BC0000410BDF8041098BF032908D8BDF80410EC
:103BD0000131ADF80410BDF804100429DAD3ADF8B2
:103BE0000400BDF80400032824D8BDF80400013007
:103BF000ADF80400BDF8040004281BD2BDF8040091
:103C00000130ADF80400BDF8040003289FBFBDF8E3
:103C100004000130ADF80400BDF8040098BF03288B
:103C200008D8BDF804000130ADF80400BDF8040068
:103C30000428DAD30020ADF80400BDF804100329ED
:103C400024D8BDF804100131ADF80410BDF80410FB
:103C500004291BD2BDF804100131ADF80410BDF8E1
:103C6000041003299FBFBDF804100131ADF8041002
:103C7000BDF8041098BF032908D8BDF8041001311D
:103C8000ADF80410BDF804100429DAD3ADF804002F
:103C9000BDF80400032824D8BDF804000130ADF8B5
:103CA0000400BDF8040004281BD2BDF80400013054
:103CB000ADF80400BDF8040003289FBFBDF8040060
:103CC0000130ADF80400BDF8040098BF032808D8FF
:103CD000BDF804000130ADF80400BDF8040004286C
:103CE000DAD30020ADF80400BDF80410032924D86D
:103CF000BDF804100131ADF80410BDF8041004291A
:103D00001BD2BDF804100131ADF80410BDF8041049
:103D100003299FBFBDF804100131ADF80410BDF8B0
:103D2000041098BF032908D8BDF804100131ADF87C
:103D30000410BDF804100429DAD3ADF80400BDF86E
:103D40000400032824D8BDF804000130ADF80400B5
:103D5000BDF8040004281BD2BDF804000130ADF802
:103D60000400BDF8040003289FBFBDF80400013023
:103D7000ADF80400BDF8040098BF032808D8BDF8CA
:103D800004000130ADF80400BDF804000428DAD3C3
:103D90000020ADF80400BDF80410032924D8BDF8B4
:103DA00004100131ADF80410BDF8041004291BD231
:103DB000BDF804100131ADF80410BDF8041003295A
:103DC0009FBFBDF804100131ADF80410BDF8041018
:103DD00098BF032908D8BDF804100131ADF80410CC
:103DE000BDF804100429DAD3ADF80400BDF80400CE
:103DF000032824D8BDF804000130ADF80400BDF854
:103E0000040004281BD2BDF804000130ADF8040002
:103E1000BDF8040003289FBFBDF804000130ADF8D1
:103E20000400BDF8040098BF032808D8BDF80400BA
:103E30000130ADF80400BDF804000428DAD30020F6
:103E4000ADF80400BDF80410032924D8BDF804100F
:103E50000131ADF80410BDF8041004291BD2BDF8DF
:103E600004100131ADF80410BDF8041003299FBF00
:103E7000BDF804100131ADF80410BDF8041098BF6E
:103E8000032908D8BDF804100131ADF80410BDF8BD
:103E900004100429DAD3ADF80400BDF804000328A7
:103EA00024D8BDF804000130ADF80400BDF80400CA
:103EB00004281BD2BDF804000130ADF80400BDF8A1
:103EC000040003289FBFBDF804000130ADF80400D2
:103ED000BDF8040098BF032808D8BDF804000130DD
:103EE000ADF80400BDF804000428DAD30020ADF8D2
:103EF0000400BDF80410032924D8BDF804100131D2
:103F0000ADF80410BDF8041004291BD2BDF804104C
:103F10000131ADF80410BDF8041003299FBFBDF8AE
:103F200004100131ADF80410BDF8041098BF032946
:103F300008D8BDF804100131ADF80410BDF8041024
:103F40000429DAD3ADF80400BDF80400032824D80E
:103F5000BDF804000130ADF80400BDF804000428E9
:103F60001BD2BDF804000130ADF80400BDF8040018
:103F700003289FBFBDF804000130ADF80400BDF870
:103F8000040098BF032808D8BDF804000130ADF83C
:103F90000400BDF804000428DAD30020ADF80400C2
:103FA000BDF80410032924D8BDF804100131ADF880
:103FB0000410BDF8041004291BD2BDF8041001310F
:103FC000ADF80410BDF8041003299FBFBDF804101C
:103FD0000131ADF80410BDF8041098BF032908D8CA
:103FE000BDF804100131ADF80410BDF80410042927
:103FF000DAD3ADF80400BDF80400032824D8BDF8D6
:1040000004000130ADF80400BDF8040004281BD200
:10401000BDF804000130ADF80400BDF80400032829
:104020009FBFBDF804000130ADF80400BDF80400E6
:1040300098BF032808D8BDF804000130ADF804008B
:10404000BDF804000428DAD30020ADF80400BDF860
:104050000410032924D8BDF804100131ADF8041070
:10406000BDF8041004291BD2BDF804100131ADF8CD
:104070000410BDF8041003299FBFBDF804100131DE
:10408000ADF80410BDF8041098BF032908D8BDF896
:1040900004100131ADF80410BDF804100429DAD37E
:1040A000ADF80400BDF80400032824D8BDF80400CE
:1040B0000130ADF80400BDF8040004281BD2BDF89F
:1040C00004000130ADF80400BDF8040003289FBFD0
:1040D000BDF804000130ADF80400BDF8040098BF3D
:1040E000032808D8BDF804000130ADF80400BDF87D
:1040F00004000428DAD32021002220460025FCF702
:10410000C7FC402101222046FCF7C2FCADF802505A
:10411000BDF80200032824D8BDF802000130ADF834
:104120000200BDF8020004281BD2BDF802000130D5
:10413000ADF80200BDF8020003289FBFBDF80200E1
:104140000130ADF80200BDF8020098BF032808D87E
:10415000BDF802000130ADF80200BDF802000428ED
:10416000DAD3ADF80250BDF80200032824D8BDF818
:1041700002000130ADF80200BDF8020004281BD295
:10418000BDF802000130ADF80200BDF802000328BE
:104190009FBFBDF802000130ADF80200BDF802007B
:1041A00098BF032808D8BDF802000130ADF802001E
:1041B000BDF802000428DAD30020ADF80200BDF8F3
:1041C0000210032924D8BDF802100131ADF8021005
:1041D000BDF8021004291BD2BDF802100131ADF860
:1041E0000210BDF8021003299FBFBDF80210013173
:1041F000ADF80210BDF8021098BF032908D8BDF829
:1042000002100131ADF80210BDF802100429DAD312
:10421000ADF80200BDF80200032824D8BDF8020062
:104220000130ADF80200BDF8020004281BD2BDF831
:1042300002000130ADF80200BDF8020003289FBF64
:10424000BDF802000130ADF80200BDF8020098BFD1
:10425000032808D8BDF802000130ADF80200BDF80F
:1042600002000428DAD30020ADF80200BDF80210E5
:10427000032924D8BDF802100131ADF80210BDF8B1
:10428000021004291BD2BDF802100131ADF8021052
:10429000BDF8021003299FBFBDF802100131ADF82F
:1042A0000210BDF8021098BF032908D8BDF802100B
:1042B0000131ADF80210BDF802100429DAD3ADF8CF
:1042C0000200BDF80200032824D8BDF80200013026
:1042D000ADF80200BDF8020004281BD2BDF80200B0
:1042E0000130ADF80200BDF8020003289FBFBDF801
:1042F00002000130ADF80200BDF8020098BF0328AB
:1043000008D8BDF802000130ADF80200BDF8020087
:104310000428DAD30020ADF80200BDF8021003290A
:1043200024D8BDF802100131ADF80210BDF802101A
:1043300004291BD2BDF802100131ADF80210BDF8FE
:10434000021003299FBFBDF802100131ADF8021021
:10435000BDF8021098BF032908D8BDF8021001313A
:10436000ADF80210BDF802100429DAD3ADF802004E
:10437000BDF80200032824D8BDF802000130ADF8D2
:104380000200BDF8020004281BD2BDF80200013073
:10439000ADF80200BDF8020003289FBFBDF802007F
:1043A0000130ADF80200BDF8020098BF032808D81C
:1043B000BDF802000130ADF80200BDF8020004288B
:1043C000DAD30020ADF80200BDF80210032924D88A
:1043D000BDF802100131ADF80210BDF80210042939
:1043E0001BD2BDF802100131ADF80210BDF8021069
:1043F00003299FBFBDF802100131ADF80210BDF8CE
:10440000021098BF032908D8BDF802100131ADF899
:104410000210BDF802100429DAD3ADF80200BDF88D
:104420000200032824D8BDF802000130ADF80200D4
:10443000BDF8020004281BD2BDF802000130ADF81F
:104440000200BDF8020003289FBFBDF80200013042
:10445000ADF80200BDF8020098BF032808D8BDF8E7
:1044600002000130ADF80200BDF802000428DAD3E2
:104470000020ADF80200BDF80210032924D8BDF8D1
:1044800002100131ADF80210BDF8021004291BD250
:10449000BDF802100131ADF80210BDF80210032979
:1044A0009FBFBDF802100131ADF80210BDF8021037
:1044B00098BF032908D8BDF802100131ADF80210E9
:1044C000BDF802100429DAD3ADF80200BDF80200ED
:1044D000032824D8BDF802000130ADF80200BDF871
:1044E000020004281BD2BDF802000130ADF8020022
:1044F000BDF8020003289FBFBDF802000130ADF8EF
:104500000200BDF8020098BF032808D8BDF80200D9
:104510000130ADF80200BDF802000428DAD3002013
:10452000ADF80200BDF80210032924D8BDF802102E
:104530000131ADF80210BDF8021004291BD2BDF8FC
:1045400002100131ADF80210BDF8021003299FBF1F
:10455000BDF802100131ADF80210BDF8021098BF8D
:10456000032908D8BDF802100131ADF80210BDF8DA
:1045700002100429DAD3ADF80200BDF802000328C6
:1045800024D8BDF802000130ADF80200BDF80200E9
:1045900004281BD2BDF802000130ADF80200BDF8BE
:1045A000020003289FBFBDF802000130ADF80200F1
:1045B000BDF8020098BF032808D8BDF802000130FA
:1045C000ADF80200BDF802000428DAD30020ADF8EF
:1045D0000200BDF80210032924D8BDF802100131F1
:1045E000ADF80210BDF8021004291BD2BDF802106C
:1045F0000131ADF80210BDF8021003299FBFBDF8CC
:1046000002100131ADF80210BDF8021098BF032965
:1046100008D8BDF802100131ADF80210BDF8021043
:104620000429DAD3ADF80200BDF80200032824D82B
:10463000BDF802000130ADF80200BDF80200042808
:104640001BD2BDF802000130ADF80200BDF8020037
:1046500003289FBFBDF802000130ADF80200BDF88D
:10466000020098BF032808D8BDF802000130ADF859
:104670000200BDF802000428DAD30020ADF80200E1
:10468000BDF80210032924D8BDF802100131ADF89D
:104690000210BDF8021004291BD2BDF8021001312E
:1046A000ADF80210BDF8021003299FBFBDF802103B
:1046B0000131ADF80210BDF8021098BF032908D8E7
:1046C000BDF802100131ADF80210BDF80210042946
:1046D000DAD3ADF80200BDF80200032824D8BDF8F3
:1046E00002000130ADF80200BDF8020004281BD220
:1046F000BDF802000130ADF80200BDF80200032849
:104700009FBFBDF802000130ADF80200BDF8020005
:1047100098BF032808D8BDF802000130ADF80200A8
:10472000BDF802000428DAD30020ADF80200BDF87D
:104730000210032924D8BDF802100131ADF802108F
:10474000BDF8021004291BD2BDF802100131ADF8EA
:104750000210BDF8021003299FBFBDF802100131FD
:10476000ADF80210BDF8021098BF032908D8BDF8B3
:1047700002100131ADF80210BDF802100429DAD39D
:10478000ADF80200BDF80200032824D8BDF80200ED
:104790000130ADF80200BDF8020004281BD2BDF8BC
:1047A00002000130ADF80200BDF8020003289FBFEF
:1047B000BDF802000130ADF80200BDF8020098BF5C
:1047C000032808D8BDF802000130ADF80200BDF89A
:1047D00002000428DAD302B0B0BD000000000000DF
:1047E00081B078B3002101E001382BD0ADF8021080
:1047F000BDF80220032AF7D8BDF802200132ADF837
:104800000220BDF80220042AEED2BDF802200132B7
:10481000ADF80220BDF80220032A9FBFBDF8022098
:104820000132ADF80220BDF8022098BF032ADBD880
:10483000BDF802200132ADF80220BDF80220042AA2
:10484000DAD3D1E701B07047B0B586B044F2405139
:104850000020C5F60201059041F2000401AD0A688E
:10486000C5F6020442F010020A600A6802F0100263
:104870000092009A0A6842F010020A600A6802F088
:1048800010020092009A0A6842F010020A600A6858
:1048900002F010020092009A0A6842F010020A60C8
:1048A000096801F010010091009920210191112166
:1048B000CDE90210049020462946FBF7E5FF402091
:1048C000019020462946FBF7DFFF01202946CDE96C
:1048D0000200102001902046FBF7D6FF082001902F
:1048E00020462946FBF7D0FF202101222046FCF775
:1048F000CFF8402101222046FCF7CAF810210022FF
:104900002046FCF7C5F8082101222046FCF7C0F834
:1049100006B0B0BD00000000B0B582B041F20004A6
:104920002021C5F60204002220460025FCF7B0F83D
:10493000ADF80050BDF80000032824D8BDF80000F1
:104940000130ADF80000BDF8000004281BD2BDF80E
:1049500000000130ADF80000BDF8000003289FBF43
:10496000BDF800000130ADF80000BDF8000098BFB0
:10497000032808D8BDF800000130ADF80000BDF8EC
:1049800000000428DAD3ADF80050BDF80000032879
:1049900024D8BDF800000130ADF80000BDF80000DB
:1049A00004281BD2BDF800000130ADF80000BDF8AE
:1049B000000003289FBFBDF800000130ADF80000E3
:1049C000BDF8000098BF032808D8BDF800000130EA
:1049D000ADF80000BDF800000428DAD30020ADF8DF
:1049E0000000BDF80010032924D8BDF800100131E3
:1049F000ADF80010BDF8001004291BD2BDF800105E
:104A00000131ADF80010BDF8001003299FBFBDF8BB
:104A100000100131ADF80010BDF8001098BF032957
:104A200008D8BDF800100131ADF80010BDF8001035
:104A30000429DAD3ADF80000BDF80000032824D81B
:104A4000BDF800000130ADF80000BDF800000428FA
:104A50001BD2BDF800000130ADF80000BDF8000029
:104A600003289FBFBDF800000130ADF80000BDF87D
:104A7000000098BF032808D8BDF800000130ADF849
:104A80000000BDF800000428DAD30020ADF80000D3
:104A9000BDF80010032924D8BDF800100131ADF88D
:104AA0000010BDF8001004291BD2BDF80010013120
:104AB000ADF80010BDF8001003299FBFBDF800102D
:104AC0000131ADF80010BDF8001098BF032908D8D7
:104AD000BDF800100131ADF80010BDF80010042938
:104AE000DAD3ADF80000BDF80000032824D8BDF8E3
:104AF00000000130ADF80000BDF8000004281BD212
:104B0000BDF800000130ADF80000BDF8000003283A
:104B10009FBFBDF800000130ADF80000BDF80000F7
:104B200098BF032808D8BDF800000130ADF8000098
:104B3000BDF800000428DAD30020ADF80000BDF86D
:104B40000010032924D8BDF800100131ADF8001081
:104B5000BDF8001004291BD2BDF800100131ADF8DA
:104B60000010BDF8001003299FBFBDF800100131EF
:104B7000ADF80010BDF8001098BF032908D8BDF8A3
:104B800000100131ADF80010BDF800100429DAD38F
:104B9000ADF80000BDF80000032824D8BDF80000DF
:104BA0000130ADF80000BDF8000004281BD2BDF8AC
:104BB00000000130ADF80000BDF8000003289FBFE1
:104BC000BDF800000130ADF80000BDF8000098BF4E
:104BD000032808D8BDF800000130ADF80000BDF88A
:104BE00000000428DAD30020ADF80000BDF8001062
:104BF000032924D8BDF800100131ADF80010BDF82C
:104C0000001004291BD2BDF800100131ADF80010CE
:104C1000BDF8001003299FBFBDF800100131ADF8A9
:104C20000010BDF8001098BF032908D8BDF8001087
:104C30000131ADF80010BDF800100429DAD3ADF849
:104C40000000BDF80000032824D8BDF800000130A2
:104C5000ADF80000BDF8000004281BD2BDF800002C
:104C60000130ADF80000BDF8000003289FBFBDF87B
:104C700000000130ADF80000BDF8000098BF032827
:104C800008D8BDF800000130ADF80000BDF8000004
:104C90000428DAD30020ADF80000BDF80010032985
:104CA00024D8BDF800100131ADF80010BDF8001097
:104CB00004291BD2BDF800100131ADF80010BDF879
:104CC000001003299FBFBDF800100131ADF800109E
:104CD000BDF8001098BF032908D8BDF800100131B5
:104CE000ADF80010BDF800100429DAD3ADF80000CB
:104CF000BDF80000032824D8BDF800000130ADF84D
:104D00000000BDF8000004281BD2BDF800000130EF
:104D1000ADF80000BDF8000003289FBFBDF80000FB
:104D20000130ADF80000BDF8000098BF032808D896
:104D3000BDF800000130ADF80000BDF80000042807
:104D4000DAD30020ADF80000BDF80010032924D804
:104D5000BDF800100131ADF80010BDF800100429B5
:104D60001BD2BDF800100131ADF80010BDF80010E5
:104D700003299FBFBDF800100131ADF80010BDF848
:104D8000001098BF032908D8BDF800100131ADF814
:104D90000010BDF800100429DAD3ADF80000BDF80A
:104DA0000000032824D8BDF800000130ADF8000051
:104DB000BDF8000004281BD2BDF800000130ADF89A
:104DC0000000BDF8000003289FBFBDF800000130BF
:104DD000ADF80000BDF8000098BF032808D8BDF862
:104DE00000000130ADF80000BDF800000428DAD35F
:104DF0000020ADF80000BDF80010032924D8BDF84C
:104E000000100131ADF80010BDF8001004291BD2CC
:104E1000BDF800100131ADF80010BDF800100329F5
:104E20009FBFBDF800100131ADF80010BDF80010B3
:104E300098BF032908D8BDF800100131ADF8001063
:104E4000BDF800100429DAD3ADF80000BDF8000069
:104E5000032824D8BDF800000130ADF80000BDF8EB
:104E6000000004281BD2BDF800000130ADF800009E
:104E7000BDF8000003289FBFBDF800000130ADF869
:104E80000000BDF8000098BF032808D8BDF8000056
:104E90000130ADF80000BDF800000428DAD300208E
:104EA000ADF80000BDF80010032924D8BDF80010AB
:104EB0000131ADF80010BDF8001004291BD2BDF877
:104EC00000100131ADF80010BDF8001003299FBF9C
:104ED000BDF800100131ADF80010BDF8001098BF0A
:104EE000032908D8BDF800100131ADF80010BDF855
:104EF00000100429DAD3ADF80000BDF80000032843
:104F000024D8BDF800000130ADF80000BDF8000065
:104F100004281BD2BDF800000130ADF80000BDF838
:104F2000000003289FBFBDF800000130ADF800006D
:104F3000BDF8000098BF032808D8BDF80000013074
:104F4000ADF80000BDF800000428DAD30020ADF869
:104F50000000BDF80010032924D8BDF8001001316D
:104F6000ADF80010BDF8001004291BD2BDF80010E8
:104F70000131ADF80010BDF8001003299FBFBDF846
:104F800000100131ADF80010BDF8001098BF0329E2
:104F900008D8BDF800100131ADF80010BDF80010C0
:104FA0000429DAD3ADF80000BDF80000032824D8A6
:104FB000BDF800000130ADF80000BDF80000042885
:104FC0001BD2BDF800000130ADF80000BDF80000B4
:104FD00003289FBFBDF800000130ADF80000BDF808
:104FE000000098BF032808D8BDF800000130ADF8D4
:104FF0000000BDF800000428DAD340210122204639
:10500000FBF746FD0020ADF80600BDF806100329A9
:1050100024D8BDF806100131ADF80610BDF8061011
:1050200004291BD2BDF806100131ADF80610BDF8F9
:10503000061003299FBFBDF806100131ADF8061018
:10504000BDF8061098BF032908D8BDF80610013135
:10505000ADF80610BDF806100429DAD3ADF8060045
:10506000BDF80600032824D8BDF806000130ADF8CD
:105070000600BDF8060004281BD2BDF8060001306A
:10508000ADF80600BDF8060003289FBFBDF8060076
:105090000130ADF80600BDF8060098BF032808D817
:1050A000BDF806000130ADF80600BDF80600042882
:1050B000DAD30020ADF80600BDF80610032924D885
:1050C000BDF806100131ADF80610BDF80610042930
:1050D0001BD2BDF806100131ADF80610BDF8061060
:1050E00003299FBFBDF806100131ADF80610BDF8C9
:1050F000061098BF032908D8BDF806100131ADF895
:105100000610BDF806100429DAD3ADF80600BDF884
:105110000600032824D8BDF806000130ADF80600CB
:10512000BDF8060004281BD2BDF806000130ADF81A
:105130000600BDF8060003289FBFBDF80600013039
:10514000ADF80600BDF8060098BF032808D8BDF8E2
:1051500006000130ADF80600BDF806000428DAD3D9
:105160000020ADF80600BDF80610032924D8BDF8CC
:1051700006100131ADF80610BDF8061004291BD247
:10518000BDF806100131ADF80610BDF80610032970
:105190009FBFBDF806100131ADF80610BDF806102E
:1051A00098BF032908D8BDF806100131ADF80610E4
:1051B000BDF806100429DAD3ADF80600BDF80600E4
:1051C000032824D8BDF806000130ADF80600BDF86C
:1051D000060004281BD2BDF806000130ADF8060019
:1051E000BDF8060003289FBFBDF806000130ADF8EA
:1051F0000600BDF8060098BF032808D8BDF80600D1
:105200000130ADF80600BDF806000428DAD300200E
:10521000ADF80600BDF80610032924D8BDF8061025
:105220000131ADF80610BDF8061004291BD2BDF8F7
:1052300006100131ADF80610BDF8061003299FBF16
:10524000BDF806100131ADF80610BDF8061098BF84
:10525000032908D8BDF806100131ADF80610BDF8D5
:1052600006100429DAD3ADF80600BDF806000328BD
:1052700024D8BDF806000130ADF80600BDF80600E0
:1052800004281BD2BDF806000130ADF80600BDF8B9
:10529000060003289FBFBDF806000130ADF80600E8
:1052A000BDF8060098BF032808D8BDF806000130F5
:1052B000ADF80600BDF806000428DAD30020ADF8EA
:1052C0000600BDF80610032924D8BDF806100131E8
:1052D000ADF80610BDF8061004291BD2BDF8061063
:1052E0000131ADF80610BDF8061003299FBFBDF8C7
:1052F00006100131ADF80610BDF8061098BF03295D
:1053000008D8BDF806100131ADF80610BDF806103A
:105310000429DAD3ADF80600BDF80600032824D826
:10532000BDF806000130ADF80600BDF806000428FF
:105330001BD2BDF806000130ADF80600BDF806002E
:1053400003289FBFBDF806000130ADF80600BDF888
:10535000060098BF032808D8BDF806000130ADF854
:105360000600BDF806000428DAD30020ADF80600D8
:10537000BDF80610032924D8BDF806100131ADF898
:105380000610BDF8061004291BD2BDF80610013125
:10539000ADF80610BDF8061003299FBFBDF8061032
:1053A0000131ADF80610BDF8061098BF032908D8E2
:1053B000BDF806100131ADF80610BDF8061004293D
:1053C000DAD3ADF80600BDF80600032824D8BDF8EE
:1053D00006000130ADF80600BDF8060004281BD217
:1053E000BDF806000130ADF80600BDF80600032840
:1053F0009FBFBDF806000130ADF80600BDF80600FD
:1054000098BF032808D8BDF806000130ADF80600A3
:10541000BDF806000428DAD30020ADF80600BDF878
:105420000610032924D8BDF806100131ADF8061086
:10543000BDF8061004291BD2BDF806100131ADF8E5
:105440000610BDF8061003299FBFBDF806100131F4
:10545000ADF80610BDF8061098BF032908D8BDF8AE
:1054600006100131ADF80610BDF806100429DAD394
:10547000ADF80600BDF80600032824D8BDF80600E4
:105480000130ADF80600BDF8060004281BD2BDF8B7
:1054900006000130ADF80600BDF8060003289FBFE6
:1054A000BDF806000130ADF80600BDF8060098BF53
:1054B000032808D8BDF806000130ADF80600BDF895
:1054C00006000428DAD30020ADF80600BDF8061067
:1054D000032924D8BDF806100131ADF80610BDF837
:1054E000061004291BD2BDF806100131ADF80610D4
:1054F000BDF8061003299FBFBDF806100131ADF8B5
:105500000610BDF8061098BF032908D8BDF806108C
:105510000131ADF80610BDF806100429DAD3ADF854
:105520000600BDF80600032824D8BDF806000130A7
:10553000ADF80600BDF8060004281BD2BDF8060031
:105540000130ADF80600BDF8060003289FBFBDF886
:1055500006000130ADF80600BDF8060098BF03282C
:1055600008D8BDF806000130ADF80600BDF8060009
:105570000428DAD30020ADF80600BDF80610032990
:1055800024D8BDF806100131ADF80610BDF806109C
:1055900004291BD2BDF806100131ADF80610BDF884
:1055A000061003299FBFBDF806100131ADF80610A3
:1055B000BDF8061098BF032908D8BDF806100131C0
:1055C000ADF80610BDF806100429DAD3ADF80600D0
:1055D000BDF80600032824D8BDF806000130ADF858
:1055E0000600BDF8060004281BD2BDF806000130F5
:1055F000ADF80600BDF8060003289FBFBDF8060001
:105600000130ADF80600BDF8060098BF032808D8A1
:10561000BDF806000130ADF80600BDF8060004280C
:10562000DAD30020ADF80600BDF80610032924D80F
:10563000BDF806100131ADF80610BDF806100429BA
:105640001BD2BDF806100131ADF80610BDF80610EA
:1056500003299FBFBDF806100131ADF80610BDF853
:10566000061098BF032908D8BDF806100131ADF81F
:105670000610BDF806100429DAD3ADF80600BDF80F
:105680000600032824D8BDF806000130ADF8060056
:10569000BDF8060004281BD2BDF806000130ADF8A5
:1056A0000600BDF8060003289FBFBDF806000130C4
:1056B000ADF80600BDF8060098BF032808D8BDF86D
:1056C00006000130ADF80600BDF806000428DAD364
:1056D000202101222046FBF7DBF90020ADF8040071
:1056E000BDF80410032924D8BDF804100131ADF829
:1056F0000410BDF8041004291BD2BDF804100131B8
:10570000ADF80410BDF8041003299FBFBDF80410C4
:105710000131ADF80410BDF8041098BF032908D872
:10572000BDF804100131ADF80410BDF804100429CF
:10573000DAD3ADF80400BDF80400032824D8BDF87E
:1057400004000130ADF80400BDF8040004281BD2A9
:10575000BDF804000130ADF80400BDF804000328D2
:105760009FBFBDF804000130ADF80400BDF804008F
:1057700098BF032808D8BDF804000130ADF8040034
:10578000BDF804000428DAD30020ADF80400BDF809
:105790000410032924D8BDF804100131ADF8041019
:1057A000BDF8041004291BD2BDF804100131ADF876
:1057B0000410BDF8041003299FBFBDF80410013187
:1057C000ADF80410BDF8041098BF032908D8BDF83F
:1057D00004100131ADF80410BDF804100429DAD327
:1057E000ADF80400BDF80400032824D8BDF8040077
:1057F0000130ADF80400BDF8040004281BD2BDF848
:1058000004000130ADF80400BDF8040003289FBF78
:10581000BDF804000130ADF80400BDF8040098BFE5
:10582000032808D8BDF804000130ADF80400BDF825
:1058300004000428DAD30020ADF80400BDF80410F9
:10584000032924D8BDF804100131ADF80410BDF8C7
:10585000041004291BD2BDF804100131ADF8041066
:10586000BDF8041003299FBFBDF804100131ADF845
:105870000410BDF8041098BF032908D8BDF804101F
:105880000131ADF80410BDF804100429DAD3ADF8E5
:105890000400BDF80400032824D8BDF8040001303A
:1058A000ADF80400BDF8040004281BD2BDF80400C4
:1058B0000130ADF80400BDF8040003289FBFBDF817
:1058C00004000130ADF80400BDF8040098BF0328BF
:1058D00008D8BDF804000130ADF80400BDF804009C
:1058E0000428DAD30020ADF80400BDF80410032921
:1058F00024D8BDF804100131ADF80410BDF804102F
:1059000004291BD2BDF804100131ADF80410BDF814
:10591000041003299FBFBDF804100131ADF8041035
:10592000BDF8041098BF032908D8BDF80410013150
:10593000ADF80410BDF804100429DAD3ADF8040062
:10594000BDF80400032824D8BDF804000130ADF8E8
:105950000400BDF8040004281BD2BDF80400013087
:10596000ADF80400BDF8040003289FBFBDF8040093
:105970000130ADF80400BDF8040098BF032808D832
:10598000BDF804000130ADF80400BDF8040004289F
:10599000DAD30020ADF80400BDF80410032924D8A0
:1059A000BDF804100131ADF80410BDF8041004294D
:1059B0001BD2BDF804100131ADF80410BDF804107D
:1059C00003299FBFBDF804100131ADF80410BDF8E4
:1059D000041098BF032908D8BDF804100131ADF8B0
:1059E0000410BDF804100429DAD3ADF80400BDF8A2
:1059F0000400032824D8BDF804000130ADF80400E9
:105A0000BDF8040004281BD2BDF804000130ADF835
:105A10000400BDF8040003289FBFBDF80400013056
:105A2000ADF80400BDF8040098BF032808D8BDF8FD
:105A300004000130ADF80400BDF804000428DAD3F6
:105A40000020ADF80400BDF80410032924D8BDF8E7
:105A500004100131ADF80410BDF8041004291BD264
:105A6000BDF804100131ADF80410BDF8041003298D
:105A70009FBFBDF804100131ADF80410BDF804104B
:105A800098BF032908D8BDF804100131ADF80410FF
:105A9000BDF804100429DAD3ADF80400BDF8040001
:105AA000032824D8BDF804000130ADF80400BDF887
:105AB000040004281BD2BDF804000130ADF8040036
:105AC000BDF8040003289FBFBDF804000130ADF805
:105AD0000400BDF8040098BF032808D8BDF80400EE
