:020000040800F2
:10000000D82700204D02000853240008C12300080F
:1000100051240008331900082529000800000000B9
:10002000000000000000000000000000552400084F
:100030003519000800000000A3020008ED240008A4
:1000400067020008670200086702000867020008EC
:1000500067020008670200086702000867020008DC
:1000600067020008670200086702000867020008CC
:1000700067020008670200086702000867020008BC
:1000800067020008670200086702000867020008AC
:10009000670200086702000867020008670200089C
:1000A000670200086702000867020008670200088C
:1000B000670200086702000867020008670200087C
:1000C000670200086702000867020008670200086C
:1000D0006702000819290008670200086702000883
:1000E000670200086702000867020008670200084C
:1000F000670200086702000867020008670200083C
:10010000670200086702000867020008670200082B
:10011000670200086702000867020008670200081B
:10012000670200086702000867020008670200080B
:1001300067020008670200086702000867020008FB
:1001400067020008670200086702000867020008EB
:1001500067020008670200086702000867020008DB
:1001600067020008670200086702000867020008CB
:10017000670200086702000867020008000000002C
:10018000670200086702000800F002F800F04FF86C
:100190000AA090E8000C82448344AAF10107DA45E2
:1001A00001D100F044F8AFF2090EBAE80F0013F0E5
:1001B000010F18BFFB1A43F001031847C850000095
:1001C000E8500000103A24BF78C878C1FAD8520726
:1001D00024BF30C830C144BF04680C6070470000C1
:1001E0000023002400250026103A28BF78C1FBD840
:1001F000520728BF30C148BF0B607047662904F022
:10020000D885642900F04681732900F0A18500207B
:1002100070471FB504F0C8FD00F0B0FD04000020D9
:10022000002104F05FF9E0601FBD10B510BD00F0C3
:10023000C1FE1146FFF7EDFF02F098FC00F0DFFE73
:1002400003B4FFF7F2FF03BC02F09CFB09488047B0
:1002500009480047FEE7FEE7FEE7FEE7FEE7FEE7A8
:10026000FEE7FEE7FEE7FEE704480549054A064BC0
:1002700070470000F124000889010008D8210020FF
:10028000D8270020D8230020D823002072B670473A
:1002900062B6704772B64FF0000484F3098862B604
:1002A000704772B6EFF3098048B1403880EC108A8D
:1002B000A0F1200080E8F00F0A49096808600948A9
:1002C00009490A680260106890E8F00F00F1200008
:1002D00090EC108A403080F309884EF0040E62B62C
:1002E000704700001C00002020000020704753EAE7
:1002F000020C00F069802DE9F04B4FF00006002B56
:100300001FBFB3FA83F503FA05F424FA05F65E403D
:1003100012BF1643B2FA82F502FA05F4C5F12005C0
:100320001EBF22FA05FC44EA0C04203556EA044CB0
:100330004FEA144418BF641C4FF000084FF0000946
:10034000904271EB030C39D3002919BFB1FA81F740
:1003500001FA07F6B0FA80F700FA07F6C7F12007AE
:100360001EBF20FA07FC46EA0C062037B6FBF4FC59
:10037000A7EB0507103F07F01F0BCBF120060CFA87
:100380000BFB2CFA06F644BFB3460026202FA4BF71
:100390005E464FF0000B5BEA060C08BF4FF0010B06
:1003A00019EB0B09ABFB027C48EB0608C01B06FBF4
:1003B00002CC0BFB03CC71EB0C01C1E70B460246F0
:1003C00041464846BDE8F08B13B54FF000004FF0B2
:1003D0000001AFF30080BDE81C4070470FB4044932
:1003E00010B503AA029800F0B7FC10BC5DF814FB2E
:1003F0001000002070B5044685690068C10601D56B
:10040000302600E02026C00707D070BDD4E90121C6
:1004100030469047206A401C20626D1EF6D570BDA4
:1004200070B5044685690078C00707D170BDD4E96E
:10043000012120209047206A401C20626D1EF6D5C5
:1004400070BD70B50C460546012A05D02878800697
:1004500000D5EA69002302E0012305E05B1C93421A
:1004600002D2E05C0028F9D1A869E618C01AA86198
:10047000286A184428622846FFF7BCFF04E0D5E943
:10048000012114F8010B9047B442F8D32846FFF736
:10049000C7FF70BD2DE9F04106460024106875299C
:1004A000314616A510D0AFF30080002802DA404292
:1004B00013A507E031688A0701D512A502E04907B4
:1004C00004D511A5012401E0AFF3008000210A2228
:1004D00006F1240709E0B0FBF2FCB0FBF2F302FBEB
:1004E0001C00303078541846491C0028F3D12346AC
:1004F0002A463046BDE8F04100F0B0B900000000E7
:100500002D0000002B000000200000002DE9F05F0E
:10051000894604464FF0000ADFF824B1FB44C0F8D6
:1005200020A02046E168884700287DD0252806D0F5
:10053000D4E901219047206A401C2062F1E70025A0
:100540005F462046E16888472028064607DB312EB3
:1005500005D2B81910F8200C08B10543F1E7A80737
:1005600001D525F00405C4F81CA00027C4F818A084
:100570002A2E09D0304602F0FEF938B304EB870882
:10058000303EC8F8186019E059F8041B204604EB07
:1005900087029161E1688847012F064618D1E0691A
:1005A000002820DA25F020051DE0D8F8180000EB1F
:1005B000800006EB40003038C8F818002046E1689B
:1005C0008847064602F0D7F90028EED1012F0AD05D
:1005D0002E2E08D12046E16888477F1C0646022F50
:1005E00045F02005C4DBA069002803DA404245F04D
:1005F0000105A061E80701D025F01005A6B1A6F11C
:100600004100192802D8203645F400654A46314693
:10061000204625604D46FFF7F1FD60B1012807D067
:10062000ED1D25F0070000E007E000F1080978E77C
:1006300005F1040975E730467AE7206ABDE8F09FC6
:100640008B49000030B505460B462A4613F8014B8E
:1006500012F8010B08B1A042F8D01CB1002802D05A
:100660006D1CF1E7284630BD40EA0103024630B573
:100670009B0710D14FF0013400E008C208C91D1BD0
:100680009D4315EAC41FF8D013F0FF0102F8011BC7
:100690000DD01B0AF8E711F8013B002B02F8013BD3
:1006A00005D011F8013B002B02F8013BF3D130BD1E
:1006B00010B5431C02E010F8011B71B18107FAD19B
:1006C0004FF0013202C88C1A8C4314EAC211F9D0DF
:1006D000C01A0A0603D0C01E10BDC01A10BD0A04FD
:1006E00001D0801E10BD0902FCD0401E10BD40EAA2
:1006F000010370B59B072ED14FF00136042A2AD38F
:1007000008C810C99D1B9D43121F15EAC61517D0B6
:10071000D8B2E1B2401A50EA056110D198B2A1B244
:10072000401A50EA05410AD123F07F4024F07F416E
:10073000401A50EA052102D1180EA0EB146070BDDA
:10074000A342DBD018BA21BA884201D9012070BD7A
:100750004FF0FF3070BD0AB9002070BD10F8013BAA
:1007600011F8014B63B1A3420AD1521E08D010F810
:10077000013B11F8014B1BB1A34201D1521EEDD137
:10078000181B70BD4FF0000200B513469446964604
:10079000203922BFA0E80C50A0E80C50B1F1200194
:1007A000BFF4F7AF090728BFA0E80C5048BF0CC042
:1007B0005DF804EB890028BF40F8042B08BF7047A0
:1007C00048BF20F8022B11F0804F18BF00F8012B12
:1007D000704700004FF0013C50F8042B51F8043BE7
:1007E0009A4221D1A2EB0C03934313EACC1317D105
:1007F00050F8042B51F8043B9A4215D1A2EB0C039C
:10080000934313EACC130BD150F8042B51F8043B5B
:100810009A4209D1A2EB0C03934313EACC13DBD029
:100820004FF00000704700BFD01A01BAB1FA81F151
:1008300001F0180122FA01F0CB40C1F12001DBB236
:10084000C0B2C01A2CFA01F3D11A914311EAC311B4
:10085000E6D1704770477047704770472DE9F04701
:100860000D4699469246044600F124080168880620
:1008700004D5E06921F01001216000E00120A842C8
:1008800001DD471B00E00027A1697A1902EB09008E
:10089000081AA0612078C00602D42046FFF7AAFDFE
:1008A000002608E0D4E901211AF806009047206AE2
:1008B000401C761C20624E45F4DB2078C0060AD529
:1008C0002046FFF797FD06E0D4E90121302090474C
:1008D000206A401C2062381EA7F10107F4DC07E003
:1008E000D4E9012118F805009047206A401C2062D5
:1008F000281EA5F10105F3DC2046FFF791FD2078C5
:10090000000602D50220BDE8F0870120FBE7704712
:100910002DE9FF4F0C461E464FF0FF378BB0D2E952
:100920000001DDF860800A908A46C1F30A5505B9D6
:100930003D46002108464FF00000BAF1000F00F4D8
:10094000400005DA00EB80004FF4400101EA50005E
:100950004FEA9059B9F1010F00DDB9460A9850EA03
:100960004A000ED044F61050A5F2FF3545432F142F
:10097000B8F1000F1ED07542291E1EDDC9F100021C
:100980001CE0B8F1010F4FF0000001D0302103E06E
:10099000F24305E02154401CB042FBDB304600220C
:1009A000002121540B99C1F80880C1E900200FB043
:1009B000BDE8F08FBD1B6D1CDEE74A4600DA6942D8
:1009C00006A800F07DFA06AB93E8070003AB83E8C6
:1009D000070050460A9900F01BFB8DE80700A0F5C0
:1009E00000501F3800900398002D0ADD42F21F01CD
:1009F0004A460844002303A90390684600F084FD9A
:100A000009E0A0F500504A461F38002303A90390CF
:100A1000684600F08EFD8DE807000004000C03D04E
:100A20004FF0FF30410800E01046B8F1000F03D04E
:100A30000022009215461EE0751E05D400F0A2F9B2
:100A4000303262556D1EF9D5B3460122084302D0FB
:100A500000227F1C04E02078302801D100227F1E74
:100A6000002A099784D01DE0112D07DA00F08AF9D9
:100A7000303262556D1C50EA0102F5D1084302D0B4
:100A80000098C8B10EE00021681E05E0235C625C9E
:100A900063542254401E491C8142F7DBAB46A81B1D
:100AA000401E0990002004F80B000B98099AC0F82A
:100AB0000880C0E9002B7AE711264FF0000857E7BD
:100AC0002DE9F04F88460446D21D22F0070191B06F
:100AD000D1E90001CDE90A0101F025FF02460B989A
:100AE000C00F01D02D2007E02068810701D52B2001
:100AF00002E0202101EAC000032A099001D0072A60
:100B000005DB03464146204600F09AF90BE12078C8
:100B1000800601D5E06900E00620B8F1650F814646
:100B200006D0B8F1660F18D0B8F1670F70D131E078
:100B30000020B9F1110F009001DB112301E009F150
:100B400001030AAA01A90CA8FFF7E2FEDDE90C7077
:100B5000002609F10105834647E001204B4600903D
:100B60004FF000470AAA01A90CA8FFF7D1FEDDE962
:100B70000DB00C995D46002610B909F101000D1861
:100B8000B9EB050003D4C0F1FF3609F10105A5EB6F
:100B900009002BE0B9F1010F01DA4FF00109002043
:100BA000B9F1110F0090484601DD112300E0034622
:100BB0000AAA01A90CA8FFF7ABFEDDE90C704D46AF
:100BC00000268346207800070AD4AB4500DA5D464C
:100BD00001A8012D04DD411911F8011C302907D0AD
:100BE0004F4502DA17F1040F04DA012082460FE0C4
:100BF0006D1EEEE7002F02DCED1B3E4403E0781C87
:100C0000A84200DD7D1CB81B00F1010A4FF000472F
:100C10002078000703D4AA4501DB4FF0FF3A0021FA
:100C2000B7F1004F0DF143088DF8431024D0022096
:100C30002B23002F01DA7F422D230A21021EA0F16F
:100C4000010000DC5FB197FBF1FC97FBF1F201FBC7
:100C50001C7C17460CF1300C08F801CDEEE7A8F12A
:100C6000010003702188090501D5452100E06521B7
:100C7000A0F1010800F8011C09980FA9A1EB0807D1
:100C8000FF1D00B10120411901EBEA70A169384450
:100C9000081A401EA0612078C00602D42046FFF743
:100CA000A9FB099828B1D4E901219047206A401C8A
:100CB00020622078C00622D52046FFF79BFB1EE06D
:100CC000002E04DBB34502DD01A8805D00E030208A
:100CD000D4E901219047206A401C2062761CAAF1C9
:100CE00001005FEA000A0AD100F048F8C068016814
:100CF000405CD4E901219047206A401C2062281EF4
:100D0000A5F10105DCDC07E0D4E9012118F8010BAD
:100D10009047206A401C2062381EA7F10107F3DCCF
:100D20002046FFF77DFB032011B041E610B5436973
:100D300013B1AFF3008001E0FFF783FB012010BD8A
:100D4000127800F124010A7000224A700122EDE7B6
:100D500011684FF0FF32E9E7074B70B50D467B4451
:100D600000F05BF80446284600F01CF910B14FF083
:100D7000FF3070BD204670BDF31D00000048704775
:100D80009821002030B5B0F10A024FEA900E71F1BF
:100D900000034EEA817EB0EB0E0061EB91014FEA59
:100DA000101E4EEA017E10EB0E0041EB11114FEACE
:100DB000102E4EEA016E10EB0E0041EB11214FEAAE
:100DC000104E4EEA014E10EB0E0041EB114140185F
:100DD00041F100014FEAD00040EA41704FEAD101F1
:100DE00010EB80054FEA810444EA907444EB01045F
:100DF0006D1944EB0404521BA3414FF0000348BF9C
:100E00000A3200D530BD401C41F1000130BD000068
:100E100001694A1C02610878704700B58FB0CDE9BE
:100E200001310021059105497944CDE903101146AE
:100E30006846FFF76BFB0FB000BD0000E5FFFFFF4A
:100E40002DE9F0411F46044603260168072A01F4F4
:100E5000006004DB08B116A505E016A503E008B1A3
:100E600015A500E015A521F010002060A069C01EA6
:100E7000A0610FB1401EA0612046FFF7BBFA4FB141
:100E8000D4E9012138469047206A401C2062C01CEA
:100E9000206206E0206AFAE7D4E9012115F8010B87
:100EA0009047761EF8D22046FFF7BAFABDE8F081E7
:100EB0004E414E006E616E00494E4600696E6600FE
:100EC0002DE9F047814616468AB0354878440DC86A
:100ED0008DE80D0032487844801C03AC0DC884E8CE
:100EE0000D0041F69B300844372190FBF1F290FB56
:100EF000F1F5A5F1800501FB12041B3C02D564420B
:100F0000012000E00020DFF898A080460027FA4486
:100F1000AAF1BE0A0EE0E0070AD03246684607EBA7
:100F2000470101230AEB810100F003FB8DE8070074
:100F300064107F1C002CEED1194F7F44AE3F19E0A6
:100F4000E80715D007EB04100DF1180A90E80E0021
:100F50008AE80E00C068F04201D198190890324624
:100F6000012306A903A800F0E4FA03AB83E8070015
:100F70006D10641C002DE3D14FF001033246694629
:100F8000B8F1000F03A802D000F0BEFA01E000F0B3
:100F9000D0FAC9E90001C9F808200AB0BDE8F08715
:100FA00068400000007B00F08000704700487047F8
:100FB000782100207546FFF7F9FFAE460500694627
:100FC000534620F00700854618B020B5FFF74CF9CE
:100FD000BDE820404FF000064FF000074FF000083A
:100FE0004FF0000B21F00701AC46ACE8C009ACE8BB
:100FF000C009ACE8C009ACE8C0098D46704710B51F
:101000000446AFF300802046BDE81040FFF718B952
:101010005FEA400C08BF91F0000F4FEA8C234FEAC3
:10102000C12243EA51514FEA1C5018BF00F5F0406D
:101030004FEA300018BF41F000415FEA6C5C00F0FD
:101040002980BCF1FF3F08BF40F080407047130C7F
:1010500006BF12044FF0100C4FF0000C130E04BF2B
:1010600012020CF1080C130F04BF12010CF1040C56
:10107000930F04BF92000CF1020CD30F04BF520077
:101080000CF1010C11464FF00002A0F11F00A0EB83
:101090000C00704711F0004F08BF704731F000415D
:1010A0003FF4D5AF0B0C06BF09044FF0100C4FF006
:1010B000000C0B0E04BF09020CF1080C0B0F04BF4F
:1010C00009010CF1040C8B0F04BF89000CF1020C18
:1010D000CB0F04BF49000CF1010CCCF12003A0EBB5
:1010E0000C0022FA03F302FA0CF241EA030100F1C8
:1010F0000100704720F07F4C80EA030023F07F4717
:10110000ACEB070303F57C5300F0004003F1FF0351
:101110002DE980494FEA154B09B44FEA144325EAFB
:101120000B4E24EA03480FF2042606EB1327490866
:101130003E785FEA320203FB0667C7F5000707FB4C
:1011400006F64FEA54374FEAD64606F1020607FB89
:10115000066CCCF1005C4FEA1C472CEA074C07FBFD
:1011600006F40CFB06F504EB15464FEA961634BF61
:1011700000204FF000404FEAD13706FB07FC4FEA52
:101180001C4C0CFB0BF7D21B03FB0CF761EB0701AC
:101190000CFB0EF7B0EB074072EB17420CFB08F7A5
:1011A00034BFA2EB0742B2EB074261EB17414FEAB3
:1011B0000C444FEA910706FB07FC4FEA1C4C0CFB62
:1011C0000BF7B0EBC74072EB573203FB0CF734BFA1
:1011D000A2EBC742B2EBC74261EB57310CFB0EF7F3
:1011E000B0EBC70072EB57720CFB08F734BFA2EBF1
:1011F000C702B2EBC70261EB5771039F4FEA8161EF
:1012000041EA921104EBCC044FEAD1374FEA8262F3
:1012100006FB07FC42EA90124FEA80604FEA1C4C42
:101220000CFB0BF7D21B03FB0CF761EB07010CFB6C
:101230000EF7B0EB074072EB17420CFB08F734BF18
:10124000A2EB0742B2EB074261EB17414FEA8C5524
:101250004FEA910704EB9C2406FB07FC4FEA1C4C69
:101260000CFB0BF7B0EBC74072EB573203FB0CF7EC
:1012700034BFA2EBC742B2EBC74261EB57310CFB64
:101280000EF7B0EBC70072EB57720CFB08F734BFD8
:10129000A2EBC702B2EBC70261EB577115EB4C250D
:1012A0004FEA816141EA92114FEA82624FEAD137F7
:1012B00042EA901206FB07FC44F100044FEA80600A
:1012C0004FEA1C4C0CFB0BF7D21B03FB0CF761EB3A
:1012D00007010CFB0EF7B0EB074072EB17420CFB5B
:1012E00008F734BFA2EB0742B2EB074261EB1741AC
:1012F00015EB1C154FEA813141EA92414FEA8232E7
:1013000042EA90424FEA80304FEA0C7644F1000402
:1013100048EA03434EEA0B484FF0000EB2EB080CCC
:1013200071EB030724BF624639464EEB0E0E4FF0B9
:10133000000B0018524149414BEB0B0BB2EB080C70
:1013400071EB03077BF1000B24BF624639464EEB7D
:101350000E0E4FF0000B0018524149414BEB0B0BA6
:10136000B2EB080C71EB03077BF1000B24BF624664
:1013700039464EEB0E0E51EA020718BF46F0010641
:1013800016EB0E7655F1000254F1000103D5BDE8CD
:101390008901BDE80088BDE88901BDE80048B619AB
:1013A000524141EB0101A3F10103704780807F7E30
:1013B0007D7C7B7A797877767675747372717170CB
:1013C0006F6E6E6D6C6C6B6A6A696868676666657D
:1013D0006464636362616160605F5F5E5E5D5D5C0B
:1013E0005C5B5B5A5A59595858575756565555557C
:1013F0005454535352525251515050504F4F4F4EDC
:101400004E4D4D4D4C4C4C4B4B4B4A4A4A49494929
:10141000484848474747474646464545454444446B
:10142000444343434342424242414141002B9C4694
:1014300030D477002BD01CB54FEA370703B44FF0F8
:1014400010004FF01001BAF1000F06D0BCF1000FF0
:10145000DCBF40F0080040F008014FF000000FBC76
:10146000BDE810400BF1010BBBF1010F08BF5FEAB3
:10147000170722BF12F1010211F101014FF00041E3
:1014800043F1000300F0004043EA00007047F9D345
:101490005708D0E746EA064613F1400F4FEA1646D2
:1014A0001FDD13F1200FDFBF16430A460021203352
:1014B0005B42BED0C3F1200746EA064602FA07F7B0
:1014C0004FEA164646EA0706C3F1200722FA03F25E
:1014D00001FA07F721FA03F14FF0000342EA07028D
:1014E000A7E746EA020646EA06464FEA164646EAF5
:1014F0000106BCBF46EA0646360C4FF000034FF02B
:1015000000024FF0000194E72DE9804C9A46934683
:1015100070B491E8380007C831EA400C48BF34EA9B
:10152000430C03D5FFF7E6FDFFF780FFF0BCBDE8F5
:10153000008C2DE9804C9A46934670B491E83800AF
:1015400007C810F0804F08BF13F0804F03D100F0A0
:1015500005F8FFF76BFFF0BCBDE8008C20F07F477B
:1015600080EA030023F07F4C07EB0C03A3F57C53C8
:1015700000F00040A3F1FE0392F0000F00F0B380F2
:1015800095F0000F00F077802DE901494FEA1140F6
:101590004FEA144621EA004800FB06FC24EA06470D
:1015A00008FB06F607FB08F800FB07F718EB0648F0
:1015B0004CEB164C4FEA124B18EB07484FEA154616
:1015C0004CEB174022EA0B4E0BFB06FC25EA0647C4
:1015D0000EFB06F607FB0EFE0BFB07F71EEB064E97
:1015E0004CEB164C4FF000061EEB074E4CEB174B26
:1015F00018EB0B0840F1000018EB0E0B58EB00083D
:1016000040F100008F1A4FF000013CBFC943661B38
:1016100014BFB5EB040C00213CBFC943F61B4FEAD5
:1016200017444EEA8E0E27EA04454FEA1C4704FB96
:1016300007622CEA074C05FB07F70CFB05F604FBD9
:101640000CFC16EB074642EB174216EB0C4642EB3E
:101650001C421BEB060658EB0202414146EA9E067D
:1016600001D5BDE80189B619524141EB0101A3F151
:101670000103BDE801894FEA14454FEA114724EA06
:10168000054621EA074C05FB07F406FB07F70CFBB0
:1016900006F105FB0CFC11EB074144EB17444FEA44
:1016A000124711EB0C4144EB1C4422EA074C05FBAA
:1016B00007F206FB07F70CFB06F605FB0CFC16EB26
:1016C000074642EB174216EB0C4642EB1C456A18E4
:1016D00054F1000148BF7047B619524141EB010176
:1016E000A3F10103704795F0000F37D04FEA114284
:1016F0004FEA144721EA024624EA074C02FB07F1AD
:1017000006FB07F70CFB06F402FB0CFC14EB07448A
:1017100041EB17414FEA154714EB0C4441EB1C41D8
:1017200025EA074C02FB07F506FB07F70CFB06F65C
:1017300002FB0CFC16EB074645EB174516EB0C4677
:1017400045EB1C42121951F1000148BF7047B61910
:10175000524141EB0101A3F1010370474FEA1445E7
:101760004FEA114724EA054621EA074C05FB07F139
:1017700006FB07F70CFB06F24FF0000605FB0CFC1E
:1017800012EB074241EB174112EB0C4251EB1C41AB
:1017900048BF7047921841EB0101A3F10103704764
:1017A00010B5FEF773FD034881060160BDE81040E7
:1017B000FEF76EBD04ED00E00148FF2101707047A7
:1017C00022ED00E02DE9F041404E0024C4EB04106E
:1017D00006EB800090F8201059B90169012903D95E
:1017E000A1F10101016104E003D190F8210001F0B1
:1017F0004DF9641CE4B2062CE8D3DFF8D480D8F8A5
:101800000000401CC8F8000002F010FC002508F59C
:10181000C46707EB05142068012801D9401E206029
:10182000012804D1A06800B18047606820606D1C69
:1018300015F0FF05EDD0D8F80800401EC8F80800E4
:1018400042D1D8F80400234F0125C8F80800C5EBA1
:10185000051006EB800494F8200088BB7868844269
:1018600002D1E069606108E06069012807D9A0F150
:1018700001006061A169814222D9A06120E01FD1ED
:1018800098F81600FF280ED101F050FD98F81D00C1
:1018900038B9C5EB051006EB80010FA02231FEF729
:1018A0009DFD02F009FCC5EB051006EB8000062D3E
:1018B000C0696061BC6007D2BDE8F04101F012BEB2
:1018C0006D1CEDB2062DC2D3BDE8F0819010002052
:1018D000F8110020180000200D0A656F733E3E25A8
:1018E000732072756E696E672074696D656F7574AB
:1018F0002E2E0D0A0000000009484FF47A720749A5
:101900000068B0FBF2F24FF0E020521E426100226C
:101910000A708261052101617047000023ED00E03B
:10192000000000204FF0E020016941F00201016158
:101930007047FEE7704790F83510022903D08021E8
:10194000416501207047052180F835100068016865
:1019500021F0010101600020704700002DE9F84FDF
:10196000DFF88C91002209F1040A0AF1040B4FF010
:101970000F080BF1040E01260B6896403340B3426A
:1019800071D14C68022C01D0122C11D1D40800EB7B
:1019900084073D6A5407E40E08FA04FC25EA0C05A6
:1019A000D1F810C00CFA04FC4CEA050CC7F820C0B2
:1019B00007685400032591F804C0A5400CF0030CFF
:1019C000AF430CFA04FC4CEA070CC0F800C04F68A7
:1019D000012F05D0022F03D0112F01D0122F11D1CA
:1019E0008768D1F80CC0AF430CFA04FC4CEA070C32
:1019F000C0F808C04768B7430E79C6F30016964092
:101A00003E434660C668AE438D68A5403543C56019
:101A10004C68E40065D5374C256845F48045256061
:101A2000246822F0030504F480440094324C2E19FB
:101A3000D6F808789407250F08FA05F4A7432F4C29
:101A4000A04201D1002424E02D4CA04201D1012468
:101A50001FE02C4CA04201D102241AE02A4CA042E3
:101A600002D1032415E03CE0284CA04201D104241B
:101A70000FE0274CA04201D105240AE0254CA042EA
:101A800001D1062405E0244CA04201D1072400E046
:101A90000824AC403C43C6F80848D9F800404D46FD
:101AA0004E689C43F60300D51C432C60DAF80040D6
:101AB00055464E689C43B60300D51C432C60DBF8AA
:101AC00000405D464E689C43F60200D51C432C60E6
:101AD000DEF8004075464E689C43B60200D51C43B4
:101AE0002C60521C102AFFF446AFBDE8F88F0000AE
:101AF000003C0140443802400030014000000240F8
:101B00000004024000080240000C024000100240A5
:101B10000014024000180240001C02400AB181611A
:101B200070470904FBE7000001480068000C70479B
:101B3000002004E001488068704700000400002095
:101B400002488168027811448160704704000020D7
:101B5000094810B5016841F400710160016841F461
:101B600080610160052000F057F80F2000F006F8B2
:101B700000F024F8002010BD003C024070B50D4D6F
:101B800004464FF47A712878B1FBF0F00A490968ED
:101B9000B1FBF0F000F0C4FA48B9102C07D20022D3
:101BA0002146501E00F018F800206C6070BD012026
:101BB00070BD0000040000200000002070470028D5
:101BC00009DB00F01F02012191404009800000F173
:101BD000E020C0F800117047F0B40E4B1B68C3F34F
:101BE0000223C3F10704042C00D904241D1D072D72
:101BF00001D2002300E0DB1E012606FA04F56D1E6B
:101C00000D409D409E40761E164045EA0601F0BC00
:101C100000F0A1BE0CED00E0064A00F007011068DC
:101C20004FF6FF03184040EA0120034908431060C3
:101C3000704700000CED00E00000FA052DE9F047C8
:101C40000D46040065D0DFF81491D9F80000EFB21A
:101C500000F00F00A84207D289F80070D9F8000000
:101C600000F00F00A84254D120683D4E810712D5E4
:101C7000400703D5306840F4E0503060207800071A
:101C800003D5306840F4604030603068A16820F0CF
:101C9000F000084330602078C0072DD030496068DC
:101CA0000839012812D0022813D0032811D009685E
:101CB000890700292DDA316821F0030101433160E1
:101CC000FFF738FF804641F2883A0EE00968890341
:101CD000EFE709688901ECE7FFF72CFFA0EB0801AB
:101CE000514502D90320BDE8F0873068616800F0F3
:101CF0000C00B0EB810FEFD1D9F80010484601F08D
:101D00000F01A94207D90770006800F00F00A84230
:101D100001D00120E7E72078400705D53068E16869
:101D200020F4E050084330602078000706D5306882
:101D3000216920F4604040EAC100306000F036F8CC
:101D40003168084AC1F30311515CC8400649086074
:101D50000F20FFF713FF0020C5E70000003C024002
:101D600008380240B64D000800000020044805492C
:101D700000680968044AC1F38221515CC840704779
:101D80000000002008380240C64D000804480549FC
:101D900000680968044AC1F34231515CC840704789
:101DA0000000002008380240C64D0008154810B554
:101DB000006810F00C01144813D0431004290FD010
:101DC00008290ED10F4C241F216801F03F02216821
:101DD000490207D52068C0F38810A0FB030106E084
:101DE000184610BD2168C1F38811A1FB0001002332
:101DF000FEF77DFA2168C1F30141491C4900B0FB9F
:101E0000F1F010BD083802400024F4002DE9F84F2D
:101E1000040073D02078BD4DC00748D0BB480830BF
:101E20000168C1F38101012908D00068C0F3810075
:101E300002280AD1281D0068400206D528688003C0
:101E400035D560680028E4D031E06068B0F5803FA7
:101E500010D0B0F5A02F286810D020F48030286072
:101E6000286820F4802028606068A0B1FFF762FE37
:101E700006460CE0286840F48030F4E740F4802007
:101E80002860F7E7FFF756FE801B642872D82868A1
:101E90008003F7D50BE0FFF74DFE064604E0FFF7A1
:101EA00049FE801B6428F1D828688003F7D4207885
:101EB000DFF85C9280074FF0000A3ED59348083067
:101EC000016811F00C0F09D00068C0F381000228EE
:101ED0000BD18E48001D0068400206D42868800798
:101EE00015D5E068012809D111E0E068B8B10120FA
:101EF000C9F80000FFF71EFE064605E003E1FFF704
:101F000019FE801B0228C1D828688007F7D52868E9
:101F1000216920F0F80040EAC10028600DE0C9F80E
:101F200000A0FFF707FE064604E0FFF703FE801B54
:101F300002281FD828688007F7D42078000722D508
:101F4000724F74496069743770B101200860FFF7FF
:101F5000F1FD064604E0FFF7EDFD801B022809D8DD
:101F600038688007F7D50EE0C1F800A0FFF7E2FD62
:101F7000064605E081E0FFF7DDFD801B02287CD8E6
:101F800038688007F7D42078400769D5DFF87CB13E
:101F90004FF000080BF1400BDBF80000C0000CD440
:101FA000DBF8001041F08051CBF80010DBF80000A6
:101FB0004FF0010800F080500090574F3868C0057E
:101FC0000FD4386840F480703860FFF7B3FD0646E0
:101FD00004E0FFF7AFFD801B02284ED83868C0052B
:101FE000F7D54A4FA068703701280FD00528386808
:101FF00010D020F001003860386820F0040038600C
:10200000A068B0B1FFF796FD06460EE0386840F0D4
:102010000100F4E740F004003860F7E7FFF78AFDBD
:10202000811B41F28830814265D838688007F5D538
:102030000DE0FFF77FFD064606E0FFF77BFD811B05
:1020400041F28830814256D838688007F5D4B8F11B
:10205000000F05D0DBF8001021F08051CBF8001004
:10206000A069C8B3294908310968C1F3810102296F
:1020700049D00228504607D000E03CE0C9F8600093
:10208000FFF758FD044639E04F46C9F86000FFF7F6
:1020900051FD064604E0FFF74DFD801B02282AD8BB
:1020A00028688001F7D4D4E907010843A16A1B4AD4
:1020B000490802EB0141626A41EA8211084394F83F
:1020C0002C1040EA01611148001D016001203866B2
:1020D000FFF730FD044605E013E0FFF72BFD001B82
:1020E000022808D828688001F7D50AE0FFF722FD0A
:1020F000001B022802D90320BDE8F88F2868800160
:10210000F4D40020F8E70120F6E700000038024090
:1021100000004742800E4742007000400000FFFF71
:1021200010B5401EB0F1807F01D3012010BD4FF0EB
:10213000E02460610F21601700F00DFC0020A06119
:1021400007202061002010BD7047000070B50268B4
:1021500004461068D168536910F00F0F50D003F097
:10216000010501F4907635435DD0C20705D0CA055C
:1021700003D5E26B42F00102E263420705D5DA07BC
:1021800003D0E26B42F00202E263820705D5DA0770
:1021900003D0E26B42F00402E263020705D5DA07DE
:1021A00003D0E26B42F00802E263E26B002A33D014
:1021B000800604D5880602D5204600F0D9F92068AB
:1021C0004069E16BC0F38010090700D428B32046B2
:1021D00000F0C0F92068416949061AD5416921F02B
:1021E00040014161606BA0B11B490165606BFFF765
:1021F000A2FB002810D0606B016DBDE8704008475D
:10220000830610D58B060ED52046BDE8704000F041
:10221000AFB92046FFF798FF70BD2046FFF794FF47
:102220000020E06370BD030606D50B0604D52046EA
:10223000BDE8704000F03EBB4006F3D54806F1D53E
:10224000D168204621F04001D160202184F8391066
:1022500000F0B4F870BD00004525000870B504001A
:1022600004D094F83900002510B106E0012070BDBB
:1022700084F83850204600F023F8242084F83900F0
:102280002068C16821F40051C160204600F0BCF90B
:102290002068016921F4904101612068416921F0C1
:1022A0002A0141612068C16841F40051C160E563C1
:1022B000202084F8390084F83A00002070BD000026
:1022C00010B500681A4986B088422FD119480168B4
:1022D00041F001010160006800F00100059015481F
:1022E0001430016841F0100101600068012100F024
:1022F000100005904FF4007000900220CDE901011C
:10230000039007200C4C049069462046FFF726FBFB
:102310002115009169462046FFF720FB2520FFF795
:102320004EFC032211462520FFF756FC06B010BDD7
:1023300000100140303802400000024090F83A306E
:10234000202B22D1F9B1F2B190F83830012B1CD0FA
:1023500081628285C2850021C163222280F83A20F1
:1023600080F838100168CA6842F48072CA60016857
:102370004A6942F001024A610068C16841F02001E7
:10238000C1600020704701207047022070470000A4
:1023900010B504460068074988420AD1064800780B
:1023A00001F03CFC2046BDE8104001220249FFF745
:1023B000C5BF10BD00100140140000207047000090
:1023C00006490020487700F0B1FF05A0FEF706F8A7
:1023D00001F072FE00F064FEFEE70000F81100203C
:1023E0000D0A2D2D2D2D2D24242048617264466167
:1023F000756C742024242D2D2D2D2D0D0A00000028
:10240000114810B5016886B041F0200101600068F4
:102410000E4C00F0200005904FF4C06000900120A9
:10242000019002900320039069462046FFF796FA38
:10243000012251022046FFF771FB01229102204642
:10244000FFF76CFB06B010BD3038024000140240AC
:10245000FEE770477047000070B5214C92B0002530
:10246000266846F080562660246804F08054119453
:102470001C4C266846F48046266024680DF1240C26
:1024800004F480441194012400942404019402244F
:1024900006948CE80D006605CDE907616846FFF7F4
:1024A000B5FC00B1FEE70CA90F2081E831004FF424
:1024B000A0500F904FF48050109005210CA8FFF70A
:1024C000BDFB00B1FEE7FFF72FFB41F2010188429F
:1024D00004D10548016841F48071016012B070BDFB
:1024E0004038024000700040003C0240FFF76AB9EB
:1024F0001048016841F4700101600F48016841F023
:10250000010101600C4A00210832116002680B4B86
:102510001A400260031D0A4A1A60026822F48022EF
:10252000026005480C300160024958068039086095
:102530007047000088ED00E000380240FFFFF6FE23
:102540001030002410B5806B0021C185C184FFF7D5
:10255000FBFD10BD0168CA6822F49072CA60016870
:102560004A6922F001024A61202180F83A1070473E
:1025700010B590F83A10222901D0022010BD8168D0
:10258000B1F5805F11D00169002901681FD0496849
:1025900001F07F03816A4A1C82620B70C18D491E63
:1025A0000904090CC18518D02BE00269816A002A50
:1025B0000268526805D0D2B20A80816A491C8162E1
:1025C000ECE7C2F308020A80816A891CF7E74A68CF
:1025D000816A4B1C83620A70E0E70168CA6822F0D6
:1025E0002002CA600168CA6822F48072CA60016869
:1025F0004A6922F001024A61202180F83A10FFF76F
:10260000C7FE002010BD00002DE9F041044600681F
:102610000169E26821F4405111430161A168206918
:10262000E26901436069104301432068C26849F2CE
:102630000C639A430A43C26020684169A26921F48D
:10264000407111434161E0696425B0F5004F974A3C
:10265000974920684FF032083FD0884201D090421D
:102660007CD1FFF793FB00EBC00101EB0010616828
:102670008900B0FBF1F6FFF789FB00EBC00101EB2D
:10268000001061688900B0FBF1F0B0FBF5F06FF06D
:102690001801484306EB800108EB0110B0FBF5F090
:1026A00000F0F006FFF772FB00EBC00101EB001039
:1026B00061688900B0FBF1F0B0FBF5F006EB0016A5
:1026C000FFF764FB00EBC00101EB001061688900BB
:1026D000B0FBF1F7FFF75AFBD2E0884201D09042FD
:1026E0003DD1FFF753FB00EBC00101EB0010616827
:1026F0004900B0FBF1F0B0FBF5F00601FFF746FB37
:1027000000EBC00101EB001061684900B0FBF1F77C
:10271000FFF73CFB00EBC00101EB001061684900D2
:10272000B0FBF1F0B0FBF5F06FF01801484307EB98
:10273000800108EBC100B0FBF5F000F0F80006EBFB
:102740004006FFF723FB00EBC00101EB00106168BE
:102750004900B0FBF1F7FFF719FB3CE055E0FFF74C
:1027600005FB00EBC00101EB001061684900B0FB04
:10277000F1F0B0FBF5F00601FFF7F8FA00EBC0014D
:1027800001EB001061684900B0FBF1F7FFF7EEFACA
:1027900000EBC00101EB001061684900B0FBF1F0F3
:1027A000B0FBF5F06FF01801484307EB800108EB30
:1027B000C100B0FBF5F000F0F80006EB4006FFF7B3
:1027C000D5FA00EBC00101EB001061684900B0FBD5
:1027D000F1F7FFF7CBFA00EBC00101EB00106168E5
:1027E0004900B0FBF1F0B0FBF5F06FF01801484381
:1027F00007EB800108EBC100B0FBF5F000F007002B
:10280000216830448860BDE8F081FFF7AFFA00EB43
:10281000C00101EB001061688900B0FBF1F6FFF721
:10282000A5FA00EBC00101EB001061688900B0FB64
:10283000F1F0B0FBF5F06FF01801484306EB8001B2
:1028400008EB0110B0FBF5F000F0F006FFF78EFA90
:1028500000EBC00101EB001061688900B0FBF1F0F2
:10286000B0FBF5F006EB0016FFF780FA00EBC001B5
:1028700001EB001061688900B0FBF1F7FFF776FA11
:1028800000EBC00101EB001061688900B0FBF1F0C2
:10289000B0FBF5F06FF01801484307EB800108EB3F
:1028A0000110B0FBF5F000F00F00A9E700140140A3
:1028B0000010014090F83910212901D00220704702
:1028C0008168B1F5805F016A0BD04A1C0262026820
:1028D00009785160C18C491E0904090CC1840ED0CD
:1028E00017E009880268C1F30801516001690029F5
:1028F000016A02D0491C0162ECE7891CFBE7016810
:10290000CA6822F08002CA600068C16841F04001D4
:10291000C1600020704700000148FFF717BC0000AD
:1029200050000020FEE703B401984100009850EAEF
:10293000C12018BF04204A0D18BF40F0010040F22A
:10294000FF72B2EB515F08BF40F00200012808BFE0
:10295000052002B070470907090E002804DB00F1CA
:10296000E02080F80014704700F00F0000F1E02034
:1029700080F8141D704730380A2801D201207047B2
:10298000002070477047000000240A4D4FF47A760B
:10299000A87DFF280AD100F0C9FC687F20B9214634
:1029A000641C05A0FDF71AFD01F086FB304600F01F
:1029B0003DFAEDE7F81100206170705F3031207250
:1029C000756E6E696E672025640D0A0000240A4D3D
:1029D0004FF4FA76A87DFF280AD100F0A7FC687FA3
:1029E00020B92146641C05A0FDF7F8FC01F064FB4A
:1029F000304600F01BFAEDE7F81100206170705FBF
:102A000030322072756E6E696E672025640D0A0083
:102A100000F014FB00F054F9FAE700004FF40074E2
:102A20000F4D66004FF4FA77002221462846FFF743
:102A300075F8012231462846FFF770F8384600F055
:102A4000F5F9012221462846FFF768F800223146B1
:102A50002846FFF763F8384600F0E8F9E4E700009D
:102A60000014024030B5084A81080123147F03FA9C
:102A700001F5AC43114414770A7E00F00300834053
:102A80009A430A7630BD0000F811002030B5084A9C
:102A900081080123147F03FA01F52C4311441477B4
:102AA0000A7E00F0030083401A430A7630BD00001E
:102AB000F811002000F03AFC124CA07DFF2808D14C
:102AC00000F034FC607F10B90FA0FDF787FC01F027
:102AD000F3FA1A4918481A4A08600120C0EB00139B
:102AE00002EB83035B6841F82030401CC0B206282B
:102AF000F4D301F0E1FA00F0A1FDAFF2470000F0DD
:102B0000F7F9F8E7F8110020656F733E3E746865C9
:102B10002068696768657374207072696F206170DE
:102B200070207573656420746F206170705F7368C6
:102B3000656C6C0D0A00000018120020EC1C0020CF
:102B40009010002000F07AFA00F0ECF9642000F018
:102B50006DF9F7E703490A685206FCD5C2B24A602C
:102B60007047000000100140FEF7EABF10B5FEF705
:102B7000EFFF0723022208214FF4A870FFF76CFC37
:102B800000F0DCFB002010BD2DE9F05F8046C0EBBB
:102B900008161D481F469346DDE90A5950F82620BD
:102BA000034603EB860432B194F82020032A02D0B6
:102BB0000020BDE8F09F824604F12200FDF754FD9D
:102BC000384600F049F900EB870160605846091F5C
:102BD00000F07CF94AF82600C4E902B784F82180A5
:102BE0000120206105B16D1CE56165615FEA0900A6
:102BF00084F82090404603D0FFF734FFFF20D8E749
:102C0000FFF744FFFAE700009010002010B512A172
:102C10001348FDF729FD134C40F2E930C4F80C01CC
:102C2000C4F804011048C4F8F80004F5627044F8D0
:102C3000F40F00F57F710C4800F048F944F8040CDB
:102C40004FF48070A0600420607701202077BDE8F9
:102C500010400420FFF71ABF636F72650000000088
:102C6000A211002090100020452B000810B510A1E3
:102C70001148FDF7F9FC104C40F2E930223CE061CC
:102C800060610E48A06004F5C47000F5FE716060DC
:102C90000A4800F01BF920608020E060002084F8E2
:102CA000210084F82000BDE81040FFF7EFBE0000CF
:102CB00069646C6500000000B2100020112A000851
:102CC00010B500F0EBF9BDE8104000F0E7BB0000E4
:102CD0000146074A0120C0EB001302EB83039B6807
:102CE0008B4204D0401CC0B20628F4D300207047A9
:102CF000901000200549064A087F105C0B181B7EC7
:102D0000D25C02EB8000087570470000F8110020CB
:102D1000240000202DE9F041804600F007FB4046EA
:102D2000FFF7D6FF050019D00E4FC5EB051607EBD0
:102D300086046FF0030254F8040FA16802EB8101CE
:102D40000144404600F0C2F847F8260065770120AC
:102D5000E060002020772846FFF784FEBDE8F041C0
:102D600001F0AAB99010002030B5094D0124C4EB40
:102D7000041005EB800090F82010022902D1806831
:102D8000FFF7C8FF641CE4B2062CF0D330BD00008E
:102D90009010002000B5024600F0C8FA1046FFF778
:102DA00097FF48B1064BC0EB001203EB82020021F3
:102DB00082F82010FFF76AFE5DF804EB01F07CB9A1
:102DC0009010002070B513A11448FDF74DFC144C71
:102DD00000251448C4F84851C4F84051C4F83401DF
:102DE0001148C4F8300100F57F710E4804F598745D
:102DF00000F06CF844F8040C4FF48070A0600520DB
:102E000060770120E0602577BDE870400520FFF77E
:102E10003DBE00007368656C6C000000DE11002090
:102E200090100020B52A0008781D002010B500B1D0
:102E3000401C07494968086106484268826091F869
:102E40002100FFF70FFEBDE8104000F027BB000097
:102E500018000020F8110020114910B50346114A4E
:102E6000086802EB80046007086802D0401C086014
:102E7000F7E7184408604FF48051B1EB800F0CD88D
:102E8000094A907DFF2808D100F050FA507F10B910
:102E900006A0FDF7A3FA01F00FF9204610BD0000CF
:102EA0001800002090000020F81100200D0A656F26
:102EB000733E3E6572726F723A6F735F73746163D3
:102EC0006B20736D616C6C0D0A000000A1F148026B
:102ED0004FF080731360121F1060A1F150006FF06B
:102EE000010202601438002202606038704700005E
:102EF00010B5024600F01AFA1046FFF7E9FE48B195
:102F0000074BC0EB001203EB8202012182F8201074
:102F1000FFF7A8FD01F0D0F8BDE8104000F0D4BAEA
:102F20009010002010B5FFF71FFF01F09FF8BDE8DB
:102F3000104000F0B3BA0246002001E0401C521CD1
:102F400013788B4201D0002BF8D170470349FF2042
:102F500081F8AD0402494877704700002818002026
:102F6000F811002010B500F0E1F903A0FDF736FAE2
:102F7000BDE8104001F0A0B80D0A656F73243A0D4A
:102F80000A0000000349002081F8AD040249487797
:102F90007047000028180020F811002010B500F03C
:102FA000C5F903A0FDF71AFABDE8104001F084B896
:102FB000656F73243A657869740D0A0030B5164858
:102FC0000368B3F57A7F26D9144C15490020C0EB6D
:102FD000001204EB820292F820205AB901EB800221
:102FE0004FF47A75926C6A43B2FBF3F201EB400541
:102FF000A5F86420401CC0B20628E8D3B1F86400EC
:10300000C0F57A7080B2A1F86000B1F86220824207
:1030100001D2A1F8620030BDF8110020901000200C
:10302000EC1C00200149002088757047F811002031
:103030000149FF2088757047F81100207047000093
:10304000FDF724F9012080F31388BFF34F8F054863
:103050000168054A01F4E06111430160BFF34F8F3D
:1030600000BFFDE70CED00E00400FA0510B500F02C
:103070005DF903A0FDF7B2F9BDE8104001F01CB8FE
:103080002D2D2D2D2D2424204861726452657365E9
:10309000742024242D2D2D2D2D0D0A0070470000A5
:1030A0002DE9F04F2DED068B8BB000F03FF9FFF7C7
:1030B00085FF00F095FF00F039F96748FDF78EF9BC
:1030C00000F0FAFF00F032F96448FDF787F900F0EC
:1030D000F3FF00F02BF962A264A167A0FDF77EF96F
:1030E00000F0EAFF00F022F9694C207B2389A27AE4
:1030F000E17A8DE80F00637BA27B66482168FDF7CB
:103100006DF900F0D9FF00F011F9A07CE37B227C7F
:10311000617C8DE80F00E37C01215F486268FDF768
:103120005DF900F0C9FF00F001F904F11406B6F8EA
:10313000620001F03DFC9FED599B53EC192B01F00F
:103140009BFA04460D46B6F8600001F031FC53ECE2
:10315000192B01F091FA41EC100B524853EC102B53
:10316000CDE90045FDF73AF900F0A6FF00F0DEF8E2
:103170004D48FDF733F900F09FFF00F0D7F84B48BA
:10318000FDF72CF900F098FF00F0D0F84848FDF763
:1031900025F900F091FF0027B246DFF818B19FED46
:1031A00046AB00F0C3F8C7EB07110BEB8104E068F6
:1031B00001F0FEFB0AEB870941EC180BD9F8180067
:1031C000804601F0F5FB53EC1A2B01F005FC53ECA3
:1031D000182B01F051FA05460AEB47000E46B0F8ED
:1031E000640001F0E5FB53EC192B01F045FA41ECCA
:1031F000100BD4E90630D4F814C094F82110C31A87
:1032000004F12202A0EB0C00CDE90603CDE908127F
:1032100054F8100F53EC102B217CCDE90410CDE9AC
:103220000256D9F830102648CDE90081FDF7D6F8CE
:1032300000F042FF7F1CFFB2062FB2D300F076F8F9
:103240000648FDF7CBF800F037FF0BB0BDEC068B5E
:10325000BDE8F04F00F030BF00500008D05000082B
:10326000323032322F30352F30330000654F535F0C
:1032700056332E312E330000202025732040416E1E
:10328000676C655F3134352025730909090D0A0023
:10329000D81C0020885100083852000800000000A7
:1032A00000002440B04F000868500008D8510008C2
:1032B000504F00089010002000000000000059400E
:1032C000385100082DE9F0410024154E254601270C
:1032D0004FF00308C4EB041046F8205006EB8000C2
:1032E000076180F8208080F82140C5602046FFF704
:1032F000B9FB641CE4B2062CECD30A480A4C056006
:10330000C4E90057FF20A7606075E075FFF7AEFCC9
:10331000FFF77CFC034846608660A775BDE8F08136
:103320009010002018000020F81100200248C16809
:10333000491CC16070470000F81100207CB5FFF700
:10334000C1FF00254FF4FA644FF4807633460D4AEE
:103350000DA10120CDE90045FFF716FC33460C4ACC
:103360000CA10220CDE90045FFF70EFC80230B4A9B
:103370000BA10320CDE90045FFF706FCBDE87C402A
:1033800000F01CBE892900086170705F30310000B8
:10339000CD2900086170705F303200001D2A0008DE
:1033A0006170705F6C65640010B5FFF7BFFF0120AE
:1033B0000A4A0346C0EB001102EB810191F820405C
:1033C0000CB981F82030401CC0B20528F2D3044962
:1033D0000020C875BDE8104000F06EBE90100020BF
:1033E000F811002010B5FFF7A1FF03A0FCF7F6FFCE
:1033F000BDE8104000F060BE2D2D2D2D2D24242081
:103400004F5320534C454550202024242D2D2D2D45
:103410002D0D0A0010B5FCF739FFFFF787FF0EA04E
:10342000FCF7DCFF00F048FE01200D4A0023C0EB52
:10343000001102EB810191F82040012C01D181F8AB
:103440002030401CC0B20528F1D30649FF20C875C2
:10345000BDE81040FCF71CBF6F6E2E2E2E0D0A002B
:1034600090100020F811002010B5FFF75FFF03A0B7
:10347000FCF7B4FFBDE8104000F01EBE2D2D2D2D31
:103480002D2424204F53204157414B454E202024CA
:10349000242D2D2D2D2D0D0A00000000084810B5FB
:1034A000C06800280AD100F01DF80648816840680D
:1034B000814203D0BDE81040FEF772B910BD000094
:1034C000F811002018000020054810B5C068002839
:1034D00005D100F007F8BDE81040FEF761B910BD56
:1034E000F811002000B5FFF705FC0848007DC0EB8F
:1034F0000011074800EB81000169012901D1002179
:10350000016104498860C169416100BDF811002072
:10351000901000201800002010B5034600F0A2FC17
:10352000024619460348FDF7E2F808B1002010BD35
:10353000FF2010BD28180020F8B500240D460646CF
:103540000094FFF7F8FC421C31460A48FDF7CFF81B
:1035500008B10020F8BD8DF800508DF80140694693
:103560000448FDF76FF80028F4D000F045F8FF207C
:10357000F8BD00002818002010B503460C46084688
:1035800000F070FC0246034821461844FDF7AFF8EE
:10359000C0B210BD28180020134B10B5186813498D
:1035A00000284FF0000013D0124A114B1268C0EBF4
:1035B000001403EB8404944205D101EB8000816C7C
:1035C000491C816410BD401CC0B20628EFD310BD59
:1035D000002201EB8004401CC0B2A2640628F8D38C
:1035E0000120186010BD0000F8110020EC1C002024
:1035F000901000201C00002010B5044608220E493F
:1036000000F094FD0C4908224031204600F0B2FE43
:10361000094908226031204600F0E2FE06490822EE
:10362000A031204600F063FE034920460822BDE891
:103630001040803100F010BE281C00202DE9FC470E
:10364000FD4C94F8AC04FF287AD1FC48FFF764FFE6
:1036500018B1FFF797FCFFF7A1FCA14694F8AD0461
:10366000002400286DD0F64DFF26F64FA8784FF4C1
:103670007A78002842D16878FF283FD16869411CD8
:1036800001D0401C6861286908B903202861EE4810
:10369000FFF742FFA8B1AF606C61AE70EE702E70A4
:1036A000FFF744FEE9A0FCF799FE00F005FDFFF7E7
:1036B0003DFEE9A0FCF792FE00F0FEFCFFF762FC85
:1036C0001CE0E1480D30FFF727FF40B1AF606C61AF
:1036D000AE70FFF72BFEE5A0FCF780FE0CE028693A
:1036E00001281ED00AD9A0F101002861FFF71EFEB3
:1036F000E1A02969FCF772FE00F0DEFCCF48C7307C
:10370000FFF70AFF002842D0A878E8B1AF60E87858
:10371000FF2825D02878FF282AD0FFF707FEDFA052
:1037200021E06C70686940F25372E968504301EB24
:103730000010E860FFF7FAFDE968B1FBF8F101E07D
:1037400068E259E2DBA0D5E7E868002835D0FFF74A
:10375000EDFDE968D7A0B1FBF8F1FCF73FFE04E00E
:10376000FFF7E4FDDBA0FCF739FE00F0A5FC41E229
:103770006C61AE70EE702E70FFF7D8FDB3A0FCF751
:103780002DFE00F099FCFFF7D1FDB3A00EE0AB4891
:10379000D230FFF7C1FEC8B1A8780028D4D0AF60FE
:1037A000E878FF280ED0FFF7C1FDCEA0FCF716FE8B
:1037B00000F082FCFFF7E6FB1CE26E70FFF7B6FD3F
:1037C000CCA0D0E7FFF7B2FDD3A0CCE79B48401DCB
:1037D000FFF7A2FEF0B19C490420FFF7CDFE30B107
:1037E000AF60AE702E70FFF7A1FDD2A0BBE7964987
:1037F00004200D31FFF7C0FE30B1AF60AE702C7009
:10380000FFF794FDD1A0AEE7AC702C70FFF78EFDF2
:10381000D4A0A8E789481730FFF77EFE28B1AC7026
:103820002C70FFF783FDD6A09DE784481E30FFF77C
:1038300073FE88B1A878FF2803D0FFF777FDD4A0E6
:1038400091E72878FF2803D0FFF770FDD5A08AE71D
:10385000FFF76CFDD8A086E778481030FFF75CFED4
:1038600060B976482D30FFF757FE10B1FFF718FC0E
:10387000C0E172483930FFF74FFE18B1FFF7F6FB91
:10388000FFF7DEFB6D482530FFF746FE20B1FFF75E
:10389000C1FDFFF7E9FDADE168484830FFF73CFEA8
:1038A00020B1FFF781FDFFF79DFDA3E16348BC3028
:1038B000FFF732FE10B100F059FB9BE15F48B130D9
:1038C000FFF72AFE28B100F001FB009400230194C9
:1038D0007FE05A483D215730FFF72EFE38B10020D7
:1038E00000F0E6FAC2B20094002301940CE05348C1
:1038F0003D216630FFF720FE40B1002000F0D8FAED
:10390000C3B200940022019400210EE04B483D21F7
:103910007530FFF711FE60B1002000F0C9FAC0B2A7
:103920000023CDE900041A461946002000F0F6FAFB
:10393000C1E742483D218430FFF7FEFD50B1002031
:1039400000F0B6FAC0B20023CDE900401A4619468D
:1039500018461FE039483D219330FFF7EDFDE0B1F7
:10396000052000F0A5FAC7B2042000F0A1FAC6B203
:10397000032000F09DFAC3B2022000F099FAC2B20F
:10398000012000F095FAC5B2002000F091FA294616
:10399000CDE9006700F0C2FA2CE128483D215730FC
:1039A000FFF7CAFD48B1002000F082FAC2B20094CD
:1039B00000230194002100201AE120483D216630B7
:1039C000FFF7BAFD38B1002000F072FAC3B20094DC
:1039D00001940022EEE719483D217530FFF7ACFD58
:1039E00048B1002000F064FAC0B20023CDE9000421
:1039F0001A461946DFE711483D218430FFF79CFD48
:103A000048B1002000F054FAC0B20023CDE90040D4
:103A10001A461946CFE709483D219330FFF78CFD40
:103A200048B1052000F044FAC7B2042000F040FA83
:103A3000C6B20320CAE0DDE028180020CE4D000801
:103A40005C1D0020E093040034000020B3ACBCB641
:103A5000D3C3BBA70D0A0000D5FDD4DABDD3CAD5A8
:103A6000CAFDBEDD2E2E3025250D0A00C6D5CDA8F7
:103A7000D3C3BBA70D0A0000D3C3BBA7B2BBB4E638
:103A8000D4DA0D0A3CCAA3D3E0B3A2CAD4B4CECAD6
:103A9000FD3A2564B4CE3E0D0A000000C6D5CDA87F
:103AA000D3C3BBA73E3ED4DDCEDEC8A8CFDE0D0A11
:103AB00000000000C1ACD0F8CAE4C8EBB4EDCEF30E
:103AC000A3ACC7EBD4DA2564C3EBBAF3D6D8CAD417
:103AD0000D0A0000494150D5FDD4DABDF8D0D02EF2
:103AE0002E0D0A00D5FDD4DAB6C1C8A12E2E0D0ABE
:103AF00000000000C7EBCAE4C8EBD3C3BBA7C3FBFD
:103B0000BACDC3DCC2EB28BFD5B8F1B8F4BFAA293F
:103B1000A3BA0D0A00000000CEDEB7A8B6C1C8A146
:103B2000A3AC494150D5FDD4DABDF8D0D02E2E0D2E
:103B30000A000000B5C7C2BCB3C9B9A6A3A13E3EE6
:103B4000B3ACBCB6D3C3BBA70D0A0000B5C7C2BC9B
:103B5000B3C9B9A6A3A13E3EC6D5CDA8D3C3BBA7C2
:103B60000D0A0000B5C7C2BCCAA7B0DCA3A13E3E87
:103B7000D3C3BBA7B2BBB4E6D4DA0D0A0000000081
:103B8000D2D1CDCBB3F6B5C7C2BCA3A10D0A0000FC
:103B9000CEB4B5C7C2BC3E3ED4DDCEDEC8A8CFDEB3
:103BA0000D0A0000D2D1B5C7C2BC3E3EC6D5CDA8D5
:103BB000D3C3BBA70D0A0000D2D1B5C7C2BC3E3EDD
:103BC000B3ACBCB6D3C3BBA70D0A000000F070F9BC
:103BD000C3B2022000F06CF9C2B2012000F068F913
:103BE000C5B2002000F064F9C0B22946CDE90067F3
:103BF00000F0AEF900F03AFC0748FFF78DFC18B171
:103C0000FFF7A4F9FFF7AEF900F024F9C9F8A844CA
:103C100089F8AC44BDE8FC87D84D000870B5284C45
:103C200094F8AC14002916D1D4F8A81440F2FF324D
:103C3000002591423FD26054D4F8A804401CC4F837
:103C4000A804062817D2DFE800F0160307091214AB
:103C50002078652808D170BD1AA100E01AA1184883
:103C6000FCF7B8FD002806DAC4F8A85470BD17A107
:103C7000F5E718A1F3E7D4F8A8040628F6D3104E08
:103C8000B61E815D0D29F1D1711C415C0A29EDD16F
:103C9000401FC4F8A8046FF00401B01C04F595643B
:103CA00000F0E9F820688555FF202071BDE87040DC
:103CB0000A48FFF76FB8C4F8A854207070BD000020
:103CC00028180020656F0000656F7300656F73240E
:103CD00000000000656F73243A000000B52A000858
:103CE0002DE9F041484C2089B0F57A7F03D2401C81
:103CF0002081BDE8F08100252581A07A401CC0B25A
:103D0000A0723C2811D3A572E07A401CC0B2E072C8
:103D10003C280AD3E572207B401CC0B220731828CF
:103D200003D32573607B401C60733748E77B067CB8
:103D3000437C827CC17C406837B91EB913B90AB98B
:103D400001B908B10127E773FFB2FF1E0A2F0DD298
:103D500066B95BB952B949B940B9FFF7E7FAE17BF7
:103D60002AA0891EFCF73AFB00F0A6F9E07B0228A6
:103D70000DD0012801D9401EE073C0B20128B8D18E
:103D80003C20E073207CF8B1401E2074B1E7217C18
:103D90000029F0D1617C0029EDD1A17C0029EAD174
:103DA000E17C0029E7D161680029E4D1E573FFF7E0
:103DB000BDFA1CA0FCF712FB00F07EF9FFF7F4FA45
:103DC000BDE8F041FFF70EBB607C3B2110B1401E07
:103DD000607406E0A07C1722012804D9401EA0745C
:103DE0000FE0217485E7E07C1E23012801D9401EE5
:103DF00005E060680128C9D9401E60600C20E074AD
:103E0000A3746274EDE70000D81C0020436F756E48
:103E100074696E6720646F776E3A2025302E3264A5
:103E20000D0A000074696D696E6720636F6D706CB8
:103E3000657465642C2073797374656D2068617393
:103E4000206265656E207368757420646F776E0DEF
:103E50000A0000004FF480610148FCF793BC0000A9
:103E600028180020002101E0401C491C0278002A8B
:103E7000FAD1084670472DE9F0410E460546002468
:103E8000FCF716FC002E02DA7142401A05E0771E9C
:103E90000AE06218AA5C2A55641CA042F9D8BDE861
:103EA000F081811B695C2954401EB842F9D8F6E7BD
:103EB0000549082802D3D1F87C04704701EB800043
:103EC000D0F8600470470000281800200EB5FFF7F6
:103ED0002DFA0848417CC37B027C8DE80E00837C70
:103EE000C27C416804A0FCF779FABDE80E4000F0FE
:103EF000E3B80000D81C002073687574646F7720E5
:103F000063616E63656C3A25642E25642E256420FA
:103F100025643A25643A25640D0A0000F0B50B4C7F
:103F2000DDE90565E77B3D44E573257C3544257473
:103F3000657C2B446374A37C1A44A274E27C114414
:103F4000E174616808446060F0BD0000D81C002086
:103F500070B5054CDDE90456E67325746374A274EC
:103F6000E174606070BD0000D81C00200EB5FFF742
:103F7000DDF90848417CC37B027C8DE80E00837C20
:103F8000C27C416804A0FCF729FABDE80E4000F0AD
:103F900093B80000D81C002073687574646F772094
:103FA00064656C61793A25642E25642E256420258C
:103FB000643A25643A25640D0A000000FEF702FF0A
:103FC000FDF79AFC00F080F8FDF796FCFDF7AAFCDF
:103FD000FCF760F9FDF7F0FBFDF7E2FBFEE7000000
:103FE000F0B500200F4D104F064605EB8001002272
:103FF0000E6355F8204003E00B6B5B1C521C0B63F7
:1040000054F82230002BF7D0C0EB001207EB8202ED
:104010000B6BD268401CD21AC0B28A610628E4D366
:10402000F0BD0000EC1C00209010002010B5FFF740
:10403000B3FAFFF755FE0849C86808B1401EC860CA
:104040008878FF2806D1886810B1401E886001D1A9
:104050000020887010BD00005C1D0020024A02EBA9
:1040600000108160704700001818002070B5084EDD
:10407000002406EB04152868012804D1E86800B183
:10408000804768682860641C14F0FF04F1D070BD9C
:104090001818002000B50A460346FFF747F902B199
:1040A000521C044901EB0310026042605DF804EB0E
:1040B00000F002B8181800200248C168491EC1600B
:1040C00070470000F811002010B5FEF7B1FF012184
:1040D0000020FFF7DFFF0D490020FFF7BFFF4FF47F
:1040E000E13000F0A7F9FEF78BF9094CA07DFF281D
:1040F0000AD1FFF71BF9607F10B906A0FCF76EF933
:10410000BDE81040FFF7D8BF10BD0000692B0008C4
:10411000F8110020654F532056332E312E3320697D
:104120006E736964652E2E2E0D0A00002DE9F0478E
:104130008A464FF000082DED068B91460446414615
:104140009FED410B05E00AEBC100491C80ED000B1F
:1041500089B24945F7D300269FED3DAB6CE030387E
:10416000092868D814F8010C2D2801D14FF0FF0858
:10417000B0EE4A9AF0EE6A9A0AEBC605207830381B
:1041800000F0FFFB95ED000B41EC180B53EC192BE5
:1041900051EC100B00F020FC53EC182B00F0C4F98C
:1041A000C5E9000114F8010F30380928E6D9207854
:1041B0002E2831D101271BE000F0E3FB95ED000B29
:1041C00041EC180B53EC192B51EC100B00F004FCD4
:1041D00053EC182B00F0A8F9C5E90001384600F0AF
:1041E000E7FB53EC192B00F0F7FB00F09DFB87B2C7
:1041F00014F8010F30380928DED9384600F0D8FB12
:1042000041EC110B95ED000B53EC112B51EC100B05
:1042100000F032FAC5E90001B8F1FF0F07D195EDC2
:10422000000B51EC100B00F073F9C5E90001761C8E
:10423000B6B24E4503D2641C207800288FD1BDEC65
:10424000068BBDE8F08700000000000000000000C1
:104250000000000000002440F0B500231C4603E0ED
:1042600041F823405B1C9BB29342F9D300233AE010
:10427000002525E0092E04D851F823606FF02F07A0
:1042800010E0A4F14106052E04D851F823606FF028
:10429000360707E0A4F16106052E08D851F823601F
:1042A0006FF0560707EB0616344441F823406D1CA7
:1042B000ADB2401C6C0703D15B1C9BB2934211D280
:1042C0000478A4F13006092ED4D9A4F14107052FB2
:1042D000D0D9203F052FCDD96C0703D05B1C9BB2F2
:1042E000934203D2401C0478002CC1D1F0BDF0B53C
:1042F00000231C4602E0CC545B1C9BB29342FAD3D1
:10430000002333E000251EE0092E02D8CE5CD02722
:104310000CE0A4F14106052E02D8CE5CC92705E0C9
:10432000A4F16106052E05D8CE5CA92707EB061679
:104330003444CC546D1CADB2401CEC0703D15B1C63
:104340009BB2934211D20478A4F13006092EDBD936
:10435000A4F14107052FD7D9203F052FD4D9EC0769
:1043600003D05B1C9BB2934203D2401C0478002C08
:10437000C8D1F0BDF0B500252B462C4603E041F82E
:1043800023405B1C9BB29342F9D300236FF02F06AE
:1043900022E0303C092C1ED810F8014C2D2C00D105
:1043A000FF2551F8234010F8017B04EB840406EB51
:1043B00044043C4441F823400478303C092CF0D9B3
:1043C000FF2D04D151F82340644241F823405B1C87
:1043D0009BB2934203D2401C0478002CD9D1F0BD8B
:1043E00070B500231C4603E041F823405B1C9BB2E0
:1043F0009342F9D300236FF02F0516E0303C092CCF
:1044000012D851F8234010F8016B04EB840405EB3B
:104410004404344441F823400478303C092CF0D95A
:104420005B1C9BB2934203D2401C0478002CE5D164
:1044300070BD00000B4910B5094AC1E900200020F9
:104440008860C860086188610C2048610846FDF7F3
:1044500005FFBDE81040012203490248FDF76EBF89
:1044600000100140500000201400002010B50FA0E3
:10447000FFF752F840B1FEF7DBFDFEF757FF0EA045
:10448000FBF7ACFFFFF718FE0FA0FFF745F8002879
:104490000AD0FEF7C7FDFEF749FF0EA0FBF79EFF0F
:1044A000BDE81040FFF708BE10BD000064656275EE
:1044B00067206F6E000000006F6B20646562756797
:1044C000206F6E0D0A0000006465627567206F66DC
:1044D000660000006F6B206465627567206F66661A
:1044E0000D0A000010B500290AD00878002807D06E
:1044F00005487844FCF76EF9002801D0002010BD73
:104500000248784410BD0000B20D0000AA0D000062
:1045100081F00041704780F00040704721F0004179
:10452000704720F00040704710B591EA030F48BF74
:1045300083F0004300F15683841A71EB030C05D21B
:10454000121943EB0C03001B61EB0C01DFF824E1B3
:104550004FEA1154A4EB135C1EEA430F18BF9EEA06
:10456000445F73D023EA0E03DCF1200E21EA0451EC
:1045700043F4801332D322FA0CFE10EB0E0023FA20
:104580000CFE41EB0E01CCF1200E03FA0EFE10EBF7
:104590000E0051F10001B1F5801FCCF1200E32D296
:1045A00001EB045112FA0EF2BDE8104058BF7047FB
:1045B000401C38BF5FEA420218BF7047002814BF92
:1045C00020F0010041F100014FEA410313F5001F03
:1045D00038BF7047A1F1C04100F0F6BA012A43EBA1
:1045E0000302ACF1200CDCF11F0E32BF4FF0000EC5
:1045F00023FA0CF310EB030041EB0451B4EB115F11
:10460000D0D0A1EB045101F5801149085FEA3000D8
:1046100001EB04510ED350F1000038BF12FA0EFE28
:1046200008D1BDE81040C9E7401C38BF5FEA42022C
:10463000CAD1C3E7BDE810404FEA410313F5001F9C
:1046400038BF7047A1F1C04100F0BEBA9EEA445F96
:1046500008D011EA5E0FBDE8104004BF01F0004130
:1046600000207047BDE8104070B500F05FFA00BF51
:1046700064FBBE3E0000E0FF2DE9C04130B4DFF82E
:10468000A0C23CEA111418BF3CEA131400F0EC80FD
:1046900081EA03051CEA111444EAD57418BF1CEA28
:1046A000131500F0C780A4EB05044FF0004545EA60
:1046B000C12145EAC32341EA505143EA525304F170
:1046C0007F74994204F500344FEAC0204FEAC222B9
:1046D00008BF904200F09C804FEA13650FF240162D
:1046E000765D4FEA134506FB05F7C7F1807706FBB9
:1046F00007F74FEAD737A7FB03687642C8F580383B
:10470000A7FB06CE38BFA8F1010807FB08E64FF06B
:10471000000EA6FB028CE6FB03CEDCF1000CCEF112
:10472000004E38BFAEF1010EA6FB0C584FF000074B
:104730004FF00005E6FB0E87A1FB08C6A0FB07CEE5
:1047400016EB0E0645F10005E1FB076515F1E04E9D
:104750007EBFA4F580345FEA46066D4116F18007FE
:1047600045F100054FEA17274FEA066647EA056755
:10477000A6F1DE46B6F1805F4FEA15251FD938460F
:1047800024F0010C05EBC471BCF1FE6F01EB0C11C0
:1047900002D8F0BCBDE8008124425CBF01F5801E58
:1047A0009EEAC47F02D4F0BCBDE80081244238D424
:1047B000F0BCA1F1C041BDE8004100F005BA4FEAEC
:1047C000D22242EA43524FEAD323A7FB02864FEAA2
:1047D000D02040EA415007FB03661EEA0E0F4FEA65
:1047E000D12105FB026658BFA6EB0056B6EB00567A
:1047F0004FEA520E4EEAC37E18EB0E0E56EB530EE6
:10480000BDD518EB02085E417F1C55F10005B6E7E7
:104810004FF480154FF000074FF000064FF00008EE
:10482000ADE7F0BC4FF0000001F1C04101F00041E4
:10483000BDE8008111EA0C1F0CEA131500D00CE052
:1048400013EA0C1F00F025804FF00000F0BC81EA55
:10485000030101F00041BDE80081F0BCBDE800416A
:1048600081EA030100F0B0B9F0BCBDE8004170B5C9
:1048700000F05CF9097EFC3E00F007B881EA030114
:104880004FF0000001F00041704781EA030100F0A1
:104890009BB9F0BCBDE800414FF0000021497047D2
:1048A000FFFDFBF9F7F5F4F2F0EEEDEBE9E8E6E4F5
:1048B000E3E1E0DEDDDBDAD8D7D5D4D3D1D0CFCD7C
:1048C000CCCBCAC8C7C6C5C4C2C1C0BFBEBDBCBBB5
:1048D000BAB9B8B7B6B5B4B3B2B1B0AFAEADACABB0
:1048E000AAA9A8A8A7A6A5A4A3A3A2A1A09F9F9E8A
:1048F0009D9C9C9B9A99999897979695959493933C
:10490000929191908F8F8E8E8D8C8C8B8B8A8989D2
:104910008888878786858584848383828281818055
:104920000000FF070000F87F4FEA1153A3F58063F2
:10493000D3F11E03A8BFD3F1200C08DB4FF00042D7
:1049400042EAC12252EA505232FA03F07047094259
:104950000BD4102BC4BF0020704703F5787CBCF14A
:10496000FF3F05D04FF0FF3070474FF00000704719
:1049700070B500F0DBF800BF49922480002070473A
:10498000F0E710F0004248BF4042B0FA80F310FA5E
:1049900003F10AD0C3F11D0303F580634FEA4150D0
:1049A00002EB035202EBD12170474FF00000704739
:1049B000B0FA80F310FA03F10AD0C3F11D0303F536
:1049C00080634FEA41504FEA035202EBD121704716
:1049D0004FF0000070470000DFF848C170B51CEAD6
:1049E000111E1EBF1CEA13159EEA0C0F95EA0C0F50
:1049F00000F06F8081EA030423EA4C134EEAD47E70
:104A000021EA4C1141F4801143F48013AE44A1FB20
:104A1000024CA0FB0365AEF17F7E361955EB0C0509
:104A2000A1FB034C4CF10003A0FB021C16EB0C068F
:104A3000654153F10003094218BF46F0010613F423
:104A4000007F0BD14FEA03314FEA0530340341EACE
:104A5000155140EA16506FF003020AE04FEAC321F5
:104A60004FEAC520F40241EA555140EA56506FF032
:104A7000020202EB2E4201EB025585EACE710AD00A
:104A80005FEA440C18BF24F0004450F1000041F1EB
:104A9000000120EAD47040F2FE7C624500D270BD75
:104AA000A84214BF4FF080444FF04044002E08BF8E
:104AB0000024BEF1806FA8BFA1F1C041BDE87040E5
:104AC00080F282804FF0000001F1C04101F000410E
:104AD00070479EEA0C0F0CEA131518BF95EA0C0FED
:104AE00006D04FF0000081EA030E0EF0004170BDC9
:104AF00000F01CF88900013E00F007B800F009B88A
:104B00004FEA430C5FEA5C5C08D081EA030100F0E5
:104B10005BB84FEA410C5FEA5C5CF6D14FF00000F5
:104B2000014970470000FF070000F87F0EF1020EF8
:104B30002EF0030E5EF8046B364205D4012A43EBD7
:104B4000030515F5001F12D8012841EB010C1CF5D7
:104B5000001F0CD80ED14FEAD17C15F5001F0CEBCD
:104B60004C0C0CF1020C08BF4CEBD37C04E04FF072
:104B7000080C01E04FEAD37C0CEB4C0526FA05F655
:104B800006F00706B6F1040C06D20EEB860CBDE863
:104B900070404CF0010C6047DFE80CF0090B02029A
:104BA0004FF000414FF00000A1F5002170BD194603
:104BB0001046012851EB010418BFD4F5001484BF3E
:104BC000002001F0004170BD0808A0F500114FEA77
:104BD0003101704710B591EA030F48BF83F00043DD
:104BE0003FF5AAAC841A71EB030C07D212198CF0B2
:104BF000004C43EB0C03001B61EB0C01DFF8A4E15C
:104C00004FEA1154A4EB135C1EEA430F18BF9EEA4F
:104C1000445F00F0B08023EA6E03524221EA04515F
:104C2000C3EB6E0338BF5B1EDCF1200E25D322FAE6
:104C30000CFE10EB0E0043FA0CFE41EB0E01CCF122
:104C4000200E03FA0EFE10EB0E0051F10001CCF124
:104C5000200E29D412FA0EF201EB0451BDE81040E7
:104C600058BF7047401C1CBFB2F1004F704700286E
:104C70000CBF491C20F00100704712EB020E43EB01
:104C8000030218BF4FF0010E4EEA4202ACF1200CB5
:104C9000DCF11E0E54D943FA0CFE10EB0E0051F15C
:104CA000FF31CCF11E0ED5D50EF1010E12FA0EFE1B
:104CB000404141EB010101EB445C5FEA5C5C10D9CF
:104CC00010EBDE7001EB045138BFBEF1004FBDE8C0
:104CD000104018BF704700280CBF491C20F001008D
:104CE000704730D24FEAD42C11F5001124F400643F
:104CF0001BD0B1FA81F20B3AA41AA41ED2F1200300
:104D0000914030FA03F31943904001EBCC71002C31
:104D100001EB0451BDE81040A8BF704701F1C0414C
:104D20004FF0000001F000417047B0FA80F310FA34
:104D300003F100D110BDE41A173C4805C90AE4E7A5
:104D400001EB045110BD491001EB0451BDE81040C6
:104D50004FEA300002E04FF0000170474A0008BF00
:104D60000042F8D0B2F5001F28BF704701F00041A3
:104D70004FF0000070479EEA445F07D011EA5E0FD3
:104D8000BDE8104004BF002100207047BDE810407E
:104D900070B5FFF7CBFE00BF40DFF63E83F0004169
:104DA000104670470000E0FF4FF04070E1EE100A3F
:104DB0007047FBF785BE0000000000000000010204
:104DC00003040607080900000000010203046578D7
:104DD0006974006C6F616400656E74657200726561
:104DE000626F6F7400756E6C6F6164006163636500
:104DF0007373007374617274757000696E666F729C
:104E00006D6174696F6E0073687574646F776E2D71
:104E100072206E6F770073687574646F776E2D689B
:104E2000206E6F770073687574646F776E2D686499
:104E30003D25640073687574646F776E2D68683DF6
:104E400025640073687574646F776E2D686D3D25F9
:104E5000640073687574646F776E2D68733D2564A4
:104E60000073687574646F776E2D68743D25642DCA
:104E700025642D25642025643A25643A2564007351
:104E8000687574646F776E2D630073687574646FF2
:104E9000776E2D6A0073797374656D2D696170008A
:104EA00073797374656D2D726170000400000800E1
:104EB000000000000000020001000010024000009D
:104EC000000000A00000000005400000000000C835
:104ED000000000000C4000000000409C00000000AA
:104EE000194000000020BCBE00000000344000005B
:104EF000BFC91B8E00000004B5400000504BCFD04E
:104F00006607E2CF010000006C4100003E8251AA1A
:104F1000DFEEA73401000000D9420000DCB5A0E2BA
:104F20003A301F97FFFFFFFFB4450000FD25A0C8E2
:104F3000E9A3C14FFFFFFFFFFF3F0000000000801B
:104F400000000000FF3F00000000008000000000A3
:104F500020204350552020202055736564202020B8
:104F60002020467265652020202020205065722078
:104F700020202020537461746520202020536C650C
:104F8000657020202054696D654F75742020546928
:104F90006D654D617820202020417070496420208B
:104FA00020204170704E616D650D0A0D0A000000F1
:104FB0002020435055B5B1C7B0D5BCD3C3C2CAA396
:104FC000BA252D342E3166252520202020202020B2
:104FD00020202020202020202020202020202020D1
:104FE000200909C0FACAB7D7EEB4F3D5BCD3C3C2FF
:104FF000CAA3BA252D342E31662525200D0A0000BE
:105000002B2B2B2B2B2B2B2B2B2B2B2B2B2B2B2BF0
:105010002B2B2B2B2B2B2B2B2B2B2B2B2B2B2B2BE0
:105020002B2B2B2B2B2BCFB5CDB3D7B4CCACD0C5E2
:10503000CFA22B2B2B2B2B2B2B2B2B2B2B2B2B2BA5
:105040002B2B2B2B2B2B2B2B2B2B2B2B2B2B2B2BB0
:105050002B2B2B2B2B2B2B2B2B2B2B2B2B2B2B2BA0
:105060002B2B0D0A000000002D2D2D2D2D2D2D2D6B
:105070002D2D2D2D2D2D2D2D2D2D2D2D2D2D2D2D60
:105080002D2D2D2D2D2D2D2D2D2D2D2D2D2D2D2D50
:105090002D2D2D2D2D2D2D2D2D2D2D2D2D2D2D2D40
:1050A0002D2D2D2D2D2D2D2D2D2D2D2D2D2D2D2D30
:1050B0002D2D2D2D2D2D2D2D2D2D2D2D2D2D2D2D20
:1050C0002D2D2D2D2D2D2D2D2D2D0D0A0000000007
:1050D0003D3D3D3D3D3D3D3D3D3D3D3D3D3D3D3D00
:1050E0003D3D3D3D3D3D3D3D3D3D3D3D3D3D3D3DF0
:1050F0003D3D3D3D3D3D3D3D3D3D3D3D3D3D3D3DE0
:105100003D3D3D3D3D3D3D3D3D3D3D3D3D3D3D3DCF
:105110003D3D3D3D3D3D3D3D3D3D3D3D3D3D3D3DBF
:105120003D3D3D3D3D3D3D3D3D3D3D3D3D3D3D3DAF
:105130003D3D0D0A000000002025342E3166252556
:1051400020202020252D3664202020252D36642087
:1051500025352E316625252020202020202531646C
:10516000202020202020252D3664202020252D36AB
:1051700064202020252D3664202025356420202021
:1051800020202025730D0A002020D4CBD0D0C4A32A
:10519000CABDA3BA7072696F202B2074696D656FE8
:1051A000757409090909D4CBD0D0CAB1BCE4A3BA3B
:1051B000252D64C4EA252D64D4C2252D64C8D520CC
:1051C000252D64CAB1252D64B7D6252D64C3EB20E7
:1051D000252D646D730D0A00D5BCD3C3C2CA20202F
:1051E00020CAB9D3C3D5BB202020BFD5CFD0D5BBD3
:1051F000202020B0D9B7D6B1C820202020D7B4CCE9
:10520000AC202020D0DDC3DF6D7320202020B3AC84
:10521000CAB120202020D7EEB4F3B3ACCAB120200D
:1052200020D3C5CFC8BCB6202020D3A6D3C3C3FB90
:10523000B3C60D0A000000002020CAB1D6D3BDDAE3
:10524000C5C4A3BA252D34646D730909090909CFB2
:10525000B5CDB3B9D8B1D5B5B9BCC6CAB1A3BA2515
:105260002D64C4EA252D64D4C2252D64C8D520251B
:105270002D64CAB1252D64B7D6252D64C3EB0D0A64
:1052800000000000C0520008000000205000000094
:10529000C4010008105300085000002088270000B7
:1052A000E00100081C00000043000000F8FFFFFFC1
:1052B0000C0000000E0000000F0000002E00000097
:1052C0000024F400010000001000000000000000B5
:1052D00000000000000000000000000000000000CE
:1052E00000000000000001010202020203030303A8
:1052F0000303030361646D696E2031323334353644
:105300000075736572206162633132330000000002
:040000050800018965
:00000001FF
